{
  "_format": "hh-sol-artifact-1",
  "contractName": "NFT",
  "sourceName": "contracts/Token.sol",
  "abi": [
    {
      "inputs": [],
      "stateMutability": "nonpayable",
      "type": "constructor"
    },
    {
      "inputs": [
        {
          "internalType": "address",
          "name": "sender",
          "type": "address"
        },
        {
          "internalType": "uint256",
          "name": "tokenId",
          "type": "uint256"
        },
        {
          "internalType": "address",
          "name": "owner",
          "type": "address"
        }
      ],
      "name": "ERC721IncorrectOwner",
      "type": "error"
    },
    {
      "inputs": [
        {
          "internalType": "address",
          "name": "operator",
          "type": "address"
        },
        {
          "internalType": "uint256",
          "name": "tokenId",
          "type": "uint256"
        }
      ],
      "name": "ERC721InsufficientApproval",
      "type": "error"
    },
    {
      "inputs": [
        {
          "internalType": "address",
          "name": "approver",
          "type": "address"
        }
      ],
      "name": "ERC721InvalidApprover",
      "type": "error"
    },
    {
      "inputs": [
        {
          "internalType": "address",
          "name": "operator",
          "type": "address"
        }
      ],
      "name": "ERC721InvalidOperator",
      "type": "error"
    },
    {
      "inputs": [
        {
          "internalType": "address",
          "name": "owner",
          "type": "address"
        }
      ],
      "name": "ERC721InvalidOwner",
      "type": "error"
    },
    {
      "inputs": [
        {
          "internalType": "address",
          "name": "receiver",
          "type": "address"
        }
      ],
      "name": "ERC721InvalidReceiver",
      "type": "error"
    },
    {
      "inputs": [
        {
          "internalType": "address",
          "name": "sender",
          "type": "address"
        }
      ],
      "name": "ERC721InvalidSender",
      "type": "error"
    },
    {
      "inputs": [
        {
          "internalType": "uint256",
          "name": "tokenId",
          "type": "uint256"
        }
      ],
      "name": "ERC721NonexistentToken",
      "type": "error"
    },
    {
      "inputs": [
        {
          "internalType": "address",
          "name": "owner",
          "type": "address"
        }
      ],
      "name": "OwnableInvalidOwner",
      "type": "error"
    },
    {
      "inputs": [
        {
          "internalType": "address",
          "name": "account",
          "type": "address"
        }
      ],
      "name": "OwnableUnauthorizedAccount",
      "type": "error"
    },
    {
      "anonymous": false,
      "inputs": [
        {
          "indexed": true,
          "internalType": "address",
          "name": "owner",
          "type": "address"
        },
        {
          "indexed": true,
          "internalType": "address",
          "name": "approved",
          "type": "address"
        },
        {
          "indexed": true,
          "internalType": "uint256",
          "name": "tokenId",
          "type": "uint256"
        }
      ],
      "name": "Approval",
      "type": "event"
    },
    {
      "anonymous": false,
      "inputs": [
        {
          "indexed": true,
          "internalType": "address",
          "name": "owner",
          "type": "address"
        },
        {
          "indexed": true,
          "internalType": "address",
          "name": "operator",
          "type": "address"
        },
        {
          "indexed": false,
          "internalType": "bool",
          "name": "approved",
          "type": "bool"
        }
      ],
      "name": "ApprovalForAll",
      "type": "event"
    },
    {
      "anonymous": false,
      "inputs": [
        {
          "indexed": false,
          "internalType": "uint256",
          "name": "_fromTokenId",
          "type": "uint256"
        },
        {
          "indexed": false,
          "internalType": "uint256",
          "name": "_toTokenId",
          "type": "uint256"
        }
      ],
      "name": "BatchMetadataUpdate",
      "type": "event"
    },
    {
      "anonymous": false,
      "inputs": [
        {
          "indexed": false,
          "internalType": "uint256",
          "name": "_tokenId",
          "type": "uint256"
        }
      ],
      "name": "MetadataUpdate",
      "type": "event"
    },
    {
      "anonymous": false,
      "inputs": [
        {
          "indexed": true,
          "internalType": "address",
          "name": "to",
          "type": "address"
        },
        {
          "indexed": true,
          "internalType": "uint256",
          "name": "tokenId",
          "type": "uint256"
        },
        {
          "indexed": false,
          "internalType": "string",
          "name": "tokenURI",
          "type": "string"
        }
      ],
      "name": "Minted",
      "type": "event"
    },
    {
      "anonymous": false,
      "inputs": [
        {
          "indexed": true,
          "internalType": "address",
          "name": "previousOwner",
          "type": "address"
        },
        {
          "indexed": true,
          "internalType": "address",
          "name": "newOwner",
          "type": "address"
        }
      ],
      "name": "OwnershipTransferred",
      "type": "event"
    },
    {
      "anonymous": false,
      "inputs": [
        {
          "indexed": true,
          "internalType": "address",
          "name": "from",
          "type": "address"
        },
        {
          "indexed": true,
          "internalType": "address",
          "name": "to",
          "type": "address"
        },
        {
          "indexed": true,
          "internalType": "uint256",
          "name": "tokenId",
          "type": "uint256"
        }
      ],
      "name": "Transfer",
      "type": "event"
    },
    {
      "inputs": [
        {
          "internalType": "address",
          "name": "to",
          "type": "address"
        },
        {
          "internalType": "uint256",
          "name": "tokenId",
          "type": "uint256"
        }
      ],
      "name": "approve",
      "outputs": [],
      "stateMutability": "nonpayable",
      "type": "function"
    },
    {
      "inputs": [
        {
          "internalType": "address",
          "name": "owner",
          "type": "address"
        }
      ],
      "name": "balanceOf",
      "outputs": [
        {
          "internalType": "uint256",
          "name": "",
          "type": "uint256"
        }
      ],
      "stateMutability": "view",
      "type": "function"
    },
    {
      "inputs": [
        {
          "internalType": "uint256",
          "name": "tokenId",
          "type": "uint256"
        }
      ],
      "name": "burn",
      "outputs": [],
      "stateMutability": "nonpayable",
      "type": "function"
    },
    {
      "inputs": [
        {
          "internalType": "uint256",
          "name": "tokenId",
          "type": "uint256"
        }
      ],
      "name": "getApproved",
      "outputs": [
        {
          "internalType": "address",
          "name": "",
          "type": "address"
        }
      ],
      "stateMutability": "view",
      "type": "function"
    },
    {
      "inputs": [
        {
          "internalType": "address",
          "name": "owner",
          "type": "address"
        },
        {
          "internalType": "address",
          "name": "operator",
          "type": "address"
        }
      ],
      "name": "isApprovedForAll",
      "outputs": [
        {
          "internalType": "bool",
          "name": "",
          "type": "bool"
        }
      ],
      "stateMutability": "view",
      "type": "function"
    },
    {
      "inputs": [
        {
          "internalType": "address",
          "name": "to",
          "type": "address"
        },
        {
          "internalType": "string",
          "name": "uri",
          "type": "string"
        }
      ],
      "name": "mint",
      "outputs": [],
      "stateMutability": "nonpayable",
      "type": "function"
    },
    {
      "inputs": [],
      "name": "name",
      "outputs": [
        {
          "internalType": "string",
          "name": "",
          "type": "string"
        }
      ],
      "stateMutability": "view",
      "type": "function"
    },
    {
      "inputs": [],
      "name": "nextTokenId",
      "outputs": [
        {
          "internalType": "uint256",
          "name": "",
          "type": "uint256"
        }
      ],
      "stateMutability": "view",
      "type": "function"
    },
    {
      "inputs": [],
      "name": "owner",
      "outputs": [
        {
          "internalType": "address",
          "name": "",
          "type": "address"
        }
      ],
      "stateMutability": "view",
      "type": "function"
    },
    {
      "inputs": [
        {
          "internalType": "uint256",
          "name": "tokenId",
          "type": "uint256"
        }
      ],
      "name": "ownerOf",
      "outputs": [
        {
          "internalType": "address",
          "name": "",
          "type": "address"
        }
      ],
      "stateMutability": "view",
      "type": "function"
    },
    {
      "inputs": [],
      "name": "renounceOwnership",
      "outputs": [],
      "stateMutability": "nonpayable",
      "type": "function"
    },
    {
      "inputs": [
        {
          "internalType": "address",
          "name": "from",
          "type": "address"
        },
        {
          "internalType": "address",
          "name": "to",
          "type": "address"
        },
        {
          "internalType": "uint256",
          "name": "tokenId",
          "type": "uint256"
        }
      ],
      "name": "safeTransferFrom",
      "outputs": [],
      "stateMutability": "nonpayable",
      "type": "function"
    },
    {
      "inputs": [
        {
          "internalType": "address",
          "name": "from",
          "type": "address"
        },
        {
          "internalType": "address",
          "name": "to",
          "type": "address"
        },
        {
          "internalType": "uint256",
          "name": "tokenId",
          "type": "uint256"
        },
        {
          "internalType": "bytes",
          "name": "data",
          "type": "bytes"
        }
      ],
      "name": "safeTransferFrom",
      "outputs": [],
      "stateMutability": "nonpayable",
      "type": "function"
    },
    {
      "inputs": [
        {
          "internalType": "address",
          "name": "operator",
          "type": "address"
        },
        {
          "internalType": "bool",
          "name": "approved",
          "type": "bool"
        }
      ],
      "name": "setApprovalForAll",
      "outputs": [],
      "stateMutability": "nonpayable",
      "type": "function"
    },
    {
      "inputs": [
        {
          "internalType": "bytes4",
          "name": "interfaceId",
          "type": "bytes4"
        }
      ],
      "name": "supportsInterface",
      "outputs": [
        {
          "internalType": "bool",
          "name": "",
          "type": "bool"
        }
      ],
      "stateMutability": "view",
      "type": "function"
    },
    {
      "inputs": [],
      "name": "symbol",
      "outputs": [
        {
          "internalType": "string",
          "name": "",
          "type": "string"
        }
      ],
      "stateMutability": "view",
      "type": "function"
    },
    {
      "inputs": [
        {
          "internalType": "uint256",
          "name": "tokenId",
          "type": "uint256"
        }
      ],
      "name": "tokenURI",
      "outputs": [
        {
          "internalType": "string",
          "name": "",
          "type": "string"
        }
      ],
      "stateMutability": "view",
      "type": "function"
    },
    {
      "inputs": [
        {
          "internalType": "address",
          "name": "from",
          "type": "address"
        },
        {
          "internalType": "address",
          "name": "to",
          "type": "address"
        },
        {
          "internalType": "uint256",
          "name": "tokenId",
          "type": "uint256"
        }
      ],
      "name": "transferFrom",
      "outputs": [],
      "stateMutability": "nonpayable",
      "type": "function"
    },
    {
      "inputs": [
        {
          "internalType": "address",
          "name": "newOwner",
          "type": "address"
        }
      ],
      "name": "transferOwnership",
      "outputs": [],
      "stateMutability": "nonpayable",
      "type": "function"
    }
  ],
  "bytecode": "0x608060405234801561001057600080fd5b50336040518060400160405280600681526020017f4d79204e465400000000000000000000000000000000000000000000000000008152506040518060400160405280600481526020017f4d4e465400000000000000000000000000000000000000000000000000000000815250816000908161008d919061043d565b50806001908161009d919061043d565b505050600073ffffffffffffffffffffffffffffffffffffffff168173ffffffffffffffffffffffffffffffffffffffff16036101125760006040517f1e4fbdf70000000000000000000000000000000000000000000000000000000081526004016101099190610550565b60405180910390fd5b6101218161012760201b60201c565b5061056b565b6000600760009054906101000a900473ffffffffffffffffffffffffffffffffffffffff16905081600760006101000a81548173ffffffffffffffffffffffffffffffffffffffff021916908373ffffffffffffffffffffffffffffffffffffffff1602179055508173ffffffffffffffffffffffffffffffffffffffff168173ffffffffffffffffffffffffffffffffffffffff167f8be0079c531659141344cd1fd0a4f28419497f9722a3daafe3b4186f6b6457e060405160405180910390a35050565b600081519050919050565b7f4e487b7100000000000000000000000000000000000000000000000000000000600052604160045260246000fd5b7f4e487b7100000000000000000000000000000000000000000000000000000000600052602260045260246000fd5b6000600282049050600182168061026e57607f821691505b60208210810361028157610280610227565b5b50919050565b60008190508160005260206000209050919050565b60006020601f8301049050919050565b600082821b905092915050565b6000600883026102e97fffffffffffffffffffffffffffffffffffffffffffffffffffffffffffffffff826102ac565b6102f386836102ac565b95508019841693508086168417925050509392505050565b6000819050919050565b6000819050919050565b600061033a6103356103308461030b565b610315565b61030b565b9050919050565b6000819050919050565b6103548361031f565b61036861036082610341565b8484546102b9565b825550505050565b600090565b61037d610370565b61038881848461034b565b505050565b5b818110156103ac576103a1600082610375565b60018101905061038e565b5050565b601f8211156103f1576103c281610287565b6103cb8461029c565b810160208510156103da578190505b6103ee6103e68561029c565b83018261038d565b50505b505050565b600082821c905092915050565b6000610414600019846008026103f6565b1980831691505092915050565b600061042d8383610403565b9150826002028217905092915050565b610446826101ed565b67ffffffffffffffff81111561045f5761045e6101f8565b5b6104698254610256565b6104748282856103b0565b600060209050601f8311600181146104a75760008415610495578287015190505b61049f8582610421565b865550610507565b601f1984166104b586610287565b60005b828110156104dd578489015182556001820191506020850194506020810190506104b8565b868310156104fa57848901516104f6601f891682610403565b8355505b6001600288020188555050505b505050505050565b600073ffffffffffffffffffffffffffffffffffffffff82169050919050565b600061053a8261050f565b9050919050565b61054a8161052f565b82525050565b60006020820190506105656000830184610541565b92915050565b6125c18061057a6000396000f3fe608060405234801561001057600080fd5b50600436106101215760003560e01c8063715018a6116100ad578063b88d4fde11610071578063b88d4fde146102f4578063c87b56dd14610310578063d0def52114610340578063e985e9c51461035c578063f2fde38b1461038c57610121565b8063715018a61461027457806375794a3c1461027e5780638da5cb5b1461029c57806395d89b41146102ba578063a22cb465146102d857610121565b806323b872dd116100f457806323b872dd146101c057806342842e0e146101dc57806342966c68146101f85780636352211e1461021457806370a082311461024457610121565b806301ffc9a71461012657806306fdde0314610156578063081812fc14610174578063095ea7b3146101a4575b600080fd5b610140600480360381019061013b91906119d0565b6103a8565b60405161014d9190611a18565b60405180910390f35b61015e610409565b60405161016b9190611ac3565b60405180910390f35b61018e60048036038101906101899190611b1b565b61049b565b60405161019b9190611b89565b60405180910390f35b6101be60048036038101906101b99190611bd0565b6104b7565b005b6101da60048036038101906101d59190611c10565b6104cd565b005b6101f660048036038101906101f19190611c10565b6105cf565b005b610212600480360381019061020d9190611b1b565b6105ef565b005b61022e60048036038101906102299190611b1b565b610671565b60405161023b9190611b89565b60405180910390f35b61025e60048036038101906102599190611c63565b610683565b60405161026b9190611c9f565b60405180910390f35b61027c61073d565b005b610286610751565b6040516102939190611c9f565b60405180910390f35b6102a4610757565b6040516102b19190611b89565b60405180910390f35b6102c2610781565b6040516102cf9190611ac3565b60405180910390f35b6102f260048036038101906102ed9190611ce6565b610813565b005b61030e60048036038101906103099190611e5b565b610829565b005b61032a60048036038101906103259190611b1b565b61084e565b6040516103379190611ac3565b60405180910390f35b61035a60048036038101906103559190611f7f565b610969565b005b61037660048036038101906103719190611fdb565b6109f4565b6040516103839190611a18565b60405180910390f35b6103a660048036038101906103a19190611c63565b610a88565b005b6000634906490660e01b7bffffffffffffffffffffffffffffffffffffffffffffffffffffffff1916827bffffffffffffffffffffffffffffffffffffffffffffffffffffffff19161480610402575061040182610b0e565b5b9050919050565b6060600080546104189061204a565b80601f01602080910402602001604051908101604052809291908181526020018280546104449061204a565b80156104915780601f1061046657610100808354040283529160200191610491565b820191906000526020600020905b81548152906001019060200180831161047457829003601f168201915b5050505050905090565b60006104a682610bf0565b506104b082610c78565b9050919050565b6104c982826104c4610cb5565b610cbd565b5050565b600073ffffffffffffffffffffffffffffffffffffffff168273ffffffffffffffffffffffffffffffffffffffff160361053f5760006040517f64a0ae920000000000000000000000000000000000000000000000000000000081526004016105369190611b89565b60405180910390fd5b6000610553838361054e610cb5565b610ccf565b90508373ffffffffffffffffffffffffffffffffffffffff168173ffffffffffffffffffffffffffffffffffffffff16146105c9578382826040517f64283d7b0000000000000000000000000000000000000000000000000000000081526004016105c09392919061207b565b60405180910390fd5b50505050565b6105ea83838360405180602001604052806000815250610829565b505050565b3373ffffffffffffffffffffffffffffffffffffffff1661060f82610671565b73ffffffffffffffffffffffffffffffffffffffff1614610665576040517f08c379a000000000000000000000000000000000000000000000000000000000815260040161065c906120fe565b60405180910390fd5b61066e81610ee9565b50565b600061067c82610bf0565b9050919050565b60008073ffffffffffffffffffffffffffffffffffffffff168273ffffffffffffffffffffffffffffffffffffffff16036106f65760006040517f89c62b640000000000000000000000000000000000000000000000000000000081526004016106ed9190611b89565b60405180910390fd5b600360008373ffffffffffffffffffffffffffffffffffffffff1673ffffffffffffffffffffffffffffffffffffffff168152602001908152602001600020549050919050565b610745610f6f565b61074f6000610ff6565b565b60085481565b6000600760009054906101000a900473ffffffffffffffffffffffffffffffffffffffff16905090565b6060600180546107909061204a565b80601f01602080910402602001604051908101604052809291908181526020018280546107bc9061204a565b80156108095780601f106107de57610100808354040283529160200191610809565b820191906000526020600020905b8154815290600101906020018083116107ec57829003601f168201915b5050505050905090565b61082561081e610cb5565b83836110bc565b5050565b6108348484846104cd565b61084861083f610cb5565b8585858561122b565b50505050565b60603373ffffffffffffffffffffffffffffffffffffffff1661087083610671565b73ffffffffffffffffffffffffffffffffffffffff16146108c6576040517f08c379a00000000000000000000000000000000000000000000000000000000081526004016108bd9061216a565b60405180910390fd5b6009600083815260200190815260200160002080546108e49061204a565b80601f01602080910402602001604051908101604052809291908181526020018280546109109061204a565b801561095d5780601f106109325761010080835404028352916020019161095d565b820191906000526020600020905b81548152906001019060200180831161094057829003601f168201915b50505050509050919050565b610971610f6f565b600060086000815480929190610986906121b9565b91905055905061099683826113dc565b6109a081836113fa565b808373ffffffffffffffffffffffffffffffffffffffff167fe7cd4ce7f2a465edc730269a1305e8a48bad821e8fb7e152ec413829c01a53c4846040516109e79190611ac3565b60405180910390a3505050565b6000600560008473ffffffffffffffffffffffffffffffffffffffff1673ffffffffffffffffffffffffffffffffffffffff16815260200190815260200160002060008373ffffffffffffffffffffffffffffffffffffffff1673ffffffffffffffffffffffffffffffffffffffff16815260200190815260200160002060009054906101000a900460ff16905092915050565b610a90610f6f565b600073ffffffffffffffffffffffffffffffffffffffff168173ffffffffffffffffffffffffffffffffffffffff1603610b025760006040517f1e4fbdf7000000000000000000000000000000000000000000000000000000008152600401610af99190611b89565b60405180910390fd5b610b0b81610ff6565b50565b60007f80ac58cd000000000000000000000000000000000000000000000000000000007bffffffffffffffffffffffffffffffffffffffffffffffffffffffff1916827bffffffffffffffffffffffffffffffffffffffffffffffffffffffff19161480610bd957507f5b5e139f000000000000000000000000000000000000000000000000000000007bffffffffffffffffffffffffffffffffffffffffffffffffffffffff1916827bffffffffffffffffffffffffffffffffffffffffffffffffffffffff1916145b80610be95750610be882611456565b5b9050919050565b600080610bfc836114c0565b9050600073ffffffffffffffffffffffffffffffffffffffff168173ffffffffffffffffffffffffffffffffffffffff1603610c6f57826040517f7e273289000000000000000000000000000000000000000000000000000000008152600401610c669190611c9f565b60405180910390fd5b80915050919050565b60006004600083815260200190815260200160002060009054906101000a900473ffffffffffffffffffffffffffffffffffffffff169050919050565b600033905090565b610cca83838360016114fd565b505050565b600080610cdb846114c0565b9050600073ffffffffffffffffffffffffffffffffffffffff168373ffffffffffffffffffffffffffffffffffffffff1614610d1d57610d1c8184866116c2565b5b600073ffffffffffffffffffffffffffffffffffffffff168173ffffffffffffffffffffffffffffffffffffffff1614610dae57610d5f6000856000806114fd565b6001600360008373ffffffffffffffffffffffffffffffffffffffff1673ffffffffffffffffffffffffffffffffffffffff168152602001908152602001600020600082825403925050819055505b600073ffffffffffffffffffffffffffffffffffffffff168573ffffffffffffffffffffffffffffffffffffffff1614610e31576001600360008773ffffffffffffffffffffffffffffffffffffffff1673ffffffffffffffffffffffffffffffffffffffff168152602001908152602001600020600082825401925050819055505b846002600086815260200190815260200160002060006101000a81548173ffffffffffffffffffffffffffffffffffffffff021916908373ffffffffffffffffffffffffffffffffffffffff160217905550838573ffffffffffffffffffffffffffffffffffffffff168273ffffffffffffffffffffffffffffffffffffffff167fddf252ad1be2c89b69c2b068fc378daa952ba7f163c4a11628f55a4df523b3ef60405160405180910390a4809150509392505050565b6000610ef86000836000610ccf565b9050600073ffffffffffffffffffffffffffffffffffffffff168173ffffffffffffffffffffffffffffffffffffffff1603610f6b57816040517f7e273289000000000000000000000000000000000000000000000000000000008152600401610f629190611c9f565b60405180910390fd5b5050565b610f77610cb5565b73ffffffffffffffffffffffffffffffffffffffff16610f95610757565b73ffffffffffffffffffffffffffffffffffffffff1614610ff457610fb8610cb5565b6040517f118cdaa7000000000000000000000000000000000000000000000000000000008152600401610feb9190611b89565b60405180910390fd5b565b6000600760009054906101000a900473ffffffffffffffffffffffffffffffffffffffff16905081600760006101000a81548173ffffffffffffffffffffffffffffffffffffffff021916908373ffffffffffffffffffffffffffffffffffffffff1602179055508173ffffffffffffffffffffffffffffffffffffffff168173ffffffffffffffffffffffffffffffffffffffff167f8be0079c531659141344cd1fd0a4f28419497f9722a3daafe3b4186f6b6457e060405160405180910390a35050565b600073ffffffffffffffffffffffffffffffffffffffff168273ffffffffffffffffffffffffffffffffffffffff160361112d57816040517f5b08ba180000000000000000000000000000000000000000000000000000000081526004016111249190611b89565b60405180910390fd5b80600560008573ffffffffffffffffffffffffffffffffffffffff1673ffffffffffffffffffffffffffffffffffffffff16815260200190815260200160002060008473ffffffffffffffffffffffffffffffffffffffff1673ffffffffffffffffffffffffffffffffffffffff16815260200190815260200160002060006101000a81548160ff0219169083151502179055508173ffffffffffffffffffffffffffffffffffffffff168373ffffffffffffffffffffffffffffffffffffffff167f17307eab39ab6107e8899845ad3d59bd9653f200f220920489ca2b5937696c318360405161121e9190611a18565b60405180910390a3505050565b60008373ffffffffffffffffffffffffffffffffffffffff163b11156113d5578273ffffffffffffffffffffffffffffffffffffffff1663150b7a02868685856040518563ffffffff1660e01b815260040161128a9493929190612256565b6020604051808303816000875af19250505080156112c657506040513d601f19601f820116820180604052508101906112c391906122b7565b60015b61134a573d80600081146112f6576040519150601f19603f3d011682016040523d82523d6000602084013e6112fb565b606091505b50600081510361134257836040517f64a0ae920000000000000000000000000000000000000000000000000000000081526004016113399190611b89565b60405180910390fd5b805160208201fd5b63150b7a0260e01b7bffffffffffffffffffffffffffffffffffffffffffffffffffffffff1916817bffffffffffffffffffffffffffffffffffffffffffffffffffffffff1916146113d357836040517f64a0ae920000000000000000000000000000000000000000000000000000000081526004016113ca9190611b89565b60405180910390fd5b505b5050505050565b6113f6828260405180602001604052806000815250611786565b5050565b8060066000848152602001908152602001600020908161141a9190612490565b507ff8e1a15aba9398e019f0b49df1a4fde98ee17ae345cb5f6b5e2c27f5033e8ce78260405161144a9190611c9f565b60405180910390a15050565b60007f01ffc9a7000000000000000000000000000000000000000000000000000000007bffffffffffffffffffffffffffffffffffffffffffffffffffffffff1916827bffffffffffffffffffffffffffffffffffffffffffffffffffffffff1916149050919050565b60006002600083815260200190815260200160002060009054906101000a900473ffffffffffffffffffffffffffffffffffffffff169050919050565b80806115365750600073ffffffffffffffffffffffffffffffffffffffff168273ffffffffffffffffffffffffffffffffffffffff1614155b1561166a57600061154684610bf0565b9050600073ffffffffffffffffffffffffffffffffffffffff168373ffffffffffffffffffffffffffffffffffffffff16141580156115b157508273ffffffffffffffffffffffffffffffffffffffff168173ffffffffffffffffffffffffffffffffffffffff1614155b80156115c457506115c281846109f4565b155b1561160657826040517fa9fbf51f0000000000000000000000000000000000000000000000000000000081526004016115fd9190611b89565b60405180910390fd5b811561166857838573ffffffffffffffffffffffffffffffffffffffff168273ffffffffffffffffffffffffffffffffffffffff167f8c5be1e5ebec7d5bd14f71427d1e84f3dd0314c0f7b2291e5b200ac8c7c3b92560405160405180910390a45b505b836004600085815260200190815260200160002060006101000a81548173ffffffffffffffffffffffffffffffffffffffff021916908373ffffffffffffffffffffffffffffffffffffffff16021790555050505050565b6116cd8383836117aa565b61178157600073ffffffffffffffffffffffffffffffffffffffff168373ffffffffffffffffffffffffffffffffffffffff160361174257806040517f7e2732890000000000000000000000000000000000000000000000000000000081526004016117399190611c9f565b60405180910390fd5b81816040517f177e802f000000000000000000000000000000000000000000000000000000008152600401611778929190612562565b60405180910390fd5b505050565b611790838361186b565b6117a561179b610cb5565b600085858561122b565b505050565b60008073ffffffffffffffffffffffffffffffffffffffff168373ffffffffffffffffffffffffffffffffffffffff161415801561186257508273ffffffffffffffffffffffffffffffffffffffff168473ffffffffffffffffffffffffffffffffffffffff161480611823575061182284846109f4565b5b8061186157508273ffffffffffffffffffffffffffffffffffffffff1661184983610c78565b73ffffffffffffffffffffffffffffffffffffffff16145b5b90509392505050565b600073ffffffffffffffffffffffffffffffffffffffff168273ffffffffffffffffffffffffffffffffffffffff16036118dd5760006040517f64a0ae920000000000000000000000000000000000000000000000000000000081526004016118d49190611b89565b60405180910390fd5b60006118eb83836000610ccf565b9050600073ffffffffffffffffffffffffffffffffffffffff168173ffffffffffffffffffffffffffffffffffffffff161461195f5760006040517f73c6ac6e0000000000000000000000000000000000000000000000000000000081526004016119569190611b89565b60405180910390fd5b505050565b6000604051905090565b600080fd5b600080fd5b60007fffffffff0000000000000000000000000000000000000000000000000000000082169050919050565b6119ad81611978565b81146119b857600080fd5b50565b6000813590506119ca816119a4565b92915050565b6000602082840312156119e6576119e561196e565b5b60006119f4848285016119bb565b91505092915050565b60008115159050919050565b611a12816119fd565b82525050565b6000602082019050611a2d6000830184611a09565b92915050565b600081519050919050565b600082825260208201905092915050565b60005b83811015611a6d578082015181840152602081019050611a52565b60008484015250505050565b6000601f19601f8301169050919050565b6000611a9582611a33565b611a9f8185611a3e565b9350611aaf818560208601611a4f565b611ab881611a79565b840191505092915050565b60006020820190508181036000830152611add8184611a8a565b905092915050565b6000819050919050565b611af881611ae5565b8114611b0357600080fd5b50565b600081359050611b1581611aef565b92915050565b600060208284031215611b3157611b3061196e565b5b6000611b3f84828501611b06565b91505092915050565b600073ffffffffffffffffffffffffffffffffffffffff82169050919050565b6000611b7382611b48565b9050919050565b611b8381611b68565b82525050565b6000602082019050611b9e6000830184611b7a565b92915050565b611bad81611b68565b8114611bb857600080fd5b50565b600081359050611bca81611ba4565b92915050565b60008060408385031215611be757611be661196e565b5b6000611bf585828601611bbb565b9250506020611c0685828601611b06565b9150509250929050565b600080600060608486031215611c2957611c2861196e565b5b6000611c3786828701611bbb565b9350506020611c4886828701611bbb565b9250506040611c5986828701611b06565b9150509250925092565b600060208284031215611c7957611c7861196e565b5b6000611c8784828501611bbb565b91505092915050565b611c9981611ae5565b82525050565b6000602082019050611cb46000830184611c90565b92915050565b611cc3816119fd565b8114611cce57600080fd5b50565b600081359050611ce081611cba565b92915050565b60008060408385031215611cfd57611cfc61196e565b5b6000611d0b85828601611bbb565b9250506020611d1c85828601611cd1565b9150509250929050565b600080fd5b600080fd5b7f4e487b7100000000000000000000000000000000000000000000000000000000600052604160045260246000fd5b611d6882611a79565b810181811067ffffffffffffffff82111715611d8757611d86611d30565b5b80604052505050565b6000611d9a611964565b9050611da68282611d5f565b919050565b600067ffffffffffffffff821115611dc657611dc5611d30565b5b611dcf82611a79565b9050602081019050919050565b82818337600083830152505050565b6000611dfe611df984611dab565b611d90565b905082815260208101848484011115611e1a57611e19611d2b565b5b611e25848285611ddc565b509392505050565b600082601f830112611e4257611e41611d26565b5b8135611e52848260208601611deb565b91505092915050565b60008060008060808587031215611e7557611e7461196e565b5b6000611e8387828801611bbb565b9450506020611e9487828801611bbb565b9350506040611ea587828801611b06565b925050606085013567ffffffffffffffff811115611ec657611ec5611973565b5b611ed287828801611e2d565b91505092959194509250565b600067ffffffffffffffff821115611ef957611ef8611d30565b5b611f0282611a79565b9050602081019050919050565b6000611f22611f1d84611ede565b611d90565b905082815260208101848484011115611f3e57611f3d611d2b565b5b611f49848285611ddc565b509392505050565b600082601f830112611f6657611f65611d26565b5b8135611f76848260208601611f0f565b91505092915050565b60008060408385031215611f9657611f9561196e565b5b6000611fa485828601611bbb565b925050602083013567ffffffffffffffff811115611fc557611fc4611973565b5b611fd185828601611f51565b9150509250929050565b60008060408385031215611ff257611ff161196e565b5b600061200085828601611bbb565b925050602061201185828601611bbb565b9150509250929050565b7f4e487b7100000000000000000000000000000000000000000000000000000000600052602260045260246000fd5b6000600282049050600182168061206257607f821691505b6020821081036120755761207461201b565b5b50919050565b60006060820190506120906000830186611b7a565b61209d6020830185611c90565b6120aa6040830184611b7a565b949350505050565b7f4e6f74206f776e65720000000000000000000000000000000000000000000000600082015250565b60006120e8600983611a3e565b91506120f3826120b2565b602082019050919050565b60006020820190508181036000830152612117816120db565b9050919050565b7f546f6b656e20646f6573206e6f74206578697374000000000000000000000000600082015250565b6000612154601483611a3e565b915061215f8261211e565b602082019050919050565b6000602082019050818103600083015261218381612147565b9050919050565b7f4e487b7100000000000000000000000000000000000000000000000000000000600052601160045260246000fd5b60006121c482611ae5565b91507fffffffffffffffffffffffffffffffffffffffffffffffffffffffffffffffff82036121f6576121f561218a565b5b600182019050919050565b600081519050919050565b600082825260208201905092915050565b600061222882612201565b612232818561220c565b9350612242818560208601611a4f565b61224b81611a79565b840191505092915050565b600060808201905061226b6000830187611b7a565b6122786020830186611b7a565b6122856040830185611c90565b8181036060830152612297818461221d565b905095945050505050565b6000815190506122b1816119a4565b92915050565b6000602082840312156122cd576122cc61196e565b5b60006122db848285016122a2565b91505092915050565b60008190508160005260206000209050919050565b60006020601f8301049050919050565b600082821b905092915050565b6000600883026123467fffffffffffffffffffffffffffffffffffffffffffffffffffffffffffffffff82612309565b6123508683612309565b95508019841693508086168417925050509392505050565b6000819050919050565b600061238d61238861238384611ae5565b612368565b611ae5565b9050919050565b6000819050919050565b6123a783612372565b6123bb6123b382612394565b848454612316565b825550505050565b600090565b6123d06123c3565b6123db81848461239e565b505050565b5b818110156123ff576123f46000826123c8565b6001810190506123e1565b5050565b601f82111561244457612415816122e4565b61241e846122f9565b8101602085101561242d578190505b612441612439856122f9565b8301826123e0565b50505b505050565b600082821c905092915050565b600061246760001984600802612449565b1980831691505092915050565b60006124808383612456565b9150826002028217905092915050565b61249982611a33565b67ffffffffffffffff8111156124b2576124b1611d30565b5b6124bc825461204a565b6124c7828285612403565b600060209050601f8311600181146124fa57600084156124e8578287015190505b6124f28582612474565b86555061255a565b601f198416612508866122e4565b60005b828110156125305784890151825560018201915060208501945060208101905061250b565b8683101561254d5784890151612549601f891682612456565b8355505b6001600288020188555050505b505050505050565b60006040820190506125776000830185611b7a565b6125846020830184611c90565b939250505056fea264697066735822122056e15e8db1ed1f448166fd7e7324b5bb0462db33b9a0bd5aec88f03c7a4e185464736f6c634300081c0033",
  "linkReferences": {},
  "deployedLinkReferences": {}
}