{
  "_format": "hh-sol-artifact-1",
  "contractName": "NFT",
  "sourceName": "contracts/Token.sol",
  "abi": [
    {
      "inputs": [],
      "stateMutability": "nonpayable",
      "type": "constructor"
    },
    {
      "inputs": [
        {
          "internalType": "address",
          "name": "sender",
          "type": "address"
        },
        {
          "internalType": "uint256",
          "name": "tokenId",
          "type": "uint256"
        },
        {
          "internalType": "address",
          "name": "owner",
          "type": "address"
        }
      ],
      "name": "ERC721IncorrectOwner",
      "type": "error"
    },
    {
      "inputs": [
        {
          "internalType": "address",
          "name": "operator",
          "type": "address"
        },
        {
          "internalType": "uint256",
          "name": "tokenId",
          "type": "uint256"
        }
      ],
      "name": "ERC721InsufficientApproval",
      "type": "error"
    },
    {
      "inputs": [
        {
          "internalType": "address",
          "name": "approver",
          "type": "address"
        }
      ],
      "name": "ERC721InvalidApprover",
      "type": "error"
    },
    {
      "inputs": [
        {
          "internalType": "address",
          "name": "operator",
          "type": "address"
        }
      ],
      "name": "ERC721InvalidOperator",
      "type": "error"
    },
    {
      "inputs": [
        {
          "internalType": "address",
          "name": "owner",
          "type": "address"
        }
      ],
      "name": "ERC721InvalidOwner",
      "type": "error"
    },
    {
      "inputs": [
        {
          "internalType": "address",
          "name": "receiver",
          "type": "address"
        }
      ],
      "name": "ERC721InvalidReceiver",
      "type": "error"
    },
    {
      "inputs": [
        {
          "internalType": "address",
          "name": "sender",
          "type": "address"
        }
      ],
      "name": "ERC721InvalidSender",
      "type": "error"
    },
    {
      "inputs": [
        {
          "internalType": "uint256",
          "name": "tokenId",
          "type": "uint256"
        }
      ],
      "name": "ERC721NonexistentToken",
      "type": "error"
    },
    {
      "inputs": [
        {
          "internalType": "address",
          "name": "owner",
          "type": "address"
        }
      ],
      "name": "OwnableInvalidOwner",
      "type": "error"
    },
    {
      "inputs": [
        {
          "internalType": "address",
          "name": "account",
          "type": "address"
        }
      ],
      "name": "OwnableUnauthorizedAccount",
      "type": "error"
    },
    {
      "anonymous": false,
      "inputs": [
        {
          "indexed": true,
          "internalType": "address",
          "name": "owner",
          "type": "address"
        },
        {
          "indexed": true,
          "internalType": "address",
          "name": "approved",
          "type": "address"
        },
        {
          "indexed": true,
          "internalType": "uint256",
          "name": "tokenId",
          "type": "uint256"
        }
      ],
      "name": "Approval",
      "type": "event"
    },
    {
      "anonymous": false,
      "inputs": [
        {
          "indexed": true,
          "internalType": "address",
          "name": "owner",
          "type": "address"
        },
        {
          "indexed": true,
          "internalType": "address",
          "name": "operator",
          "type": "address"
        },
        {
          "indexed": false,
          "internalType": "bool",
          "name": "approved",
          "type": "bool"
        }
      ],
      "name": "ApprovalForAll",
      "type": "event"
    },
    {
      "anonymous": false,
      "inputs": [
        {
          "indexed": false,
          "internalType": "uint256",
          "name": "_fromTokenId",
          "type": "uint256"
        },
        {
          "indexed": false,
          "internalType": "uint256",
          "name": "_toTokenId",
          "type": "uint256"
        }
      ],
      "name": "BatchMetadataUpdate",
      "type": "event"
    },
    {
      "anonymous": false,
      "inputs": [
        {
          "indexed": false,
          "internalType": "uint256",
          "name": "_tokenId",
          "type": "uint256"
        }
      ],
      "name": "MetadataUpdate",
      "type": "event"
    },
    {
      "anonymous": false,
      "inputs": [
        {
          "indexed": true,
          "internalType": "address",
          "name": "to",
          "type": "address"
        },
        {
          "indexed": true,
          "internalType": "uint256",
          "name": "tokenId",
          "type": "uint256"
        },
        {
          "indexed": false,
          "internalType": "string",
          "name": "tokenURI",
          "type": "string"
        }
      ],
      "name": "Minted",
      "type": "event"
    },
    {
      "anonymous": false,
      "inputs": [
        {
          "indexed": true,
          "internalType": "address",
          "name": "previousOwner",
          "type": "address"
        },
        {
          "indexed": true,
          "internalType": "address",
          "name": "newOwner",
          "type": "address"
        }
      ],
      "name": "OwnershipTransferred",
      "type": "event"
    },
    {
      "anonymous": false,
      "inputs": [
        {
          "indexed": true,
          "internalType": "address",
          "name": "from",
          "type": "address"
        },
        {
          "indexed": true,
          "internalType": "address",
          "name": "to",
          "type": "address"
        },
        {
          "indexed": true,
          "internalType": "uint256",
          "name": "tokenId",
          "type": "uint256"
        }
      ],
      "name": "Transfer",
      "type": "event"
    },
    {
      "inputs": [
        {
          "internalType": "address",
          "name": "to",
          "type": "address"
        },
        {
          "internalType": "uint256",
          "name": "tokenId",
          "type": "uint256"
        }
      ],
      "name": "approve",
      "outputs": [],
      "stateMutability": "nonpayable",
      "type": "function"
    },
    {
      "inputs": [
        {
          "internalType": "address",
          "name": "owner",
          "type": "address"
        }
      ],
      "name": "balanceOf",
      "outputs": [
        {
          "internalType": "uint256",
          "name": "",
          "type": "uint256"
        }
      ],
      "stateMutability": "view",
      "type": "function"
    },
    {
      "inputs": [
        {
          "internalType": "uint256",
          "name": "tokenId",
          "type": "uint256"
        }
      ],
      "name": "burn",
      "outputs": [],
      "stateMutability": "nonpayable",
      "type": "function"
    },
    {
      "inputs": [
        {
          "internalType": "uint256",
          "name": "tokenId",
          "type": "uint256"
        }
      ],
      "name": "getApproved",
      "outputs": [
        {
          "internalType": "address",
          "name": "",
          "type": "address"
        }
      ],
      "stateMutability": "view",
      "type": "function"
    },
    {
      "inputs": [
        {
          "internalType": "address",
          "name": "owner",
          "type": "address"
        },
        {
          "internalType": "address",
          "name": "operator",
          "type": "address"
        }
      ],
      "name": "isApprovedForAll",
      "outputs": [
        {
          "internalType": "bool",
          "name": "",
          "type": "bool"
        }
      ],
      "stateMutability": "view",
      "type": "function"
    },
    {
      "inputs": [],
      "name": "marketplace",
      "outputs": [
        {
          "internalType": "address",
          "name": "",
          "type": "address"
        }
      ],
      "stateMutability": "view",
      "type": "function"
    },
    {
      "inputs": [
        {
          "internalType": "address",
          "name": "to",
          "type": "address"
        },
        {
          "internalType": "string",
          "name": "uri",
          "type": "string"
        }
      ],
      "name": "mint",
      "outputs": [
        {
          "internalType": "uint256",
          "name": "",
          "type": "uint256"
        }
      ],
      "stateMutability": "nonpayable",
      "type": "function"
    },
    {
      "inputs": [
        {
          "internalType": "address",
          "name": "to",
          "type": "address"
        },
        {
          "internalType": "string",
          "name": "uri",
          "type": "string"
        }
      ],
      "name": "mintFromMarketplace",
      "outputs": [
        {
          "internalType": "uint256",
          "name": "",
          "type": "uint256"
        }
      ],
      "stateMutability": "nonpayable",
      "type": "function"
    },
    {
      "inputs": [],
      "name": "name",
      "outputs": [
        {
          "internalType": "string",
          "name": "",
          "type": "string"
        }
      ],
      "stateMutability": "view",
      "type": "function"
    },
    {
      "inputs": [],
      "name": "nextTokenId",
      "outputs": [
        {
          "internalType": "uint256",
          "name": "",
          "type": "uint256"
        }
      ],
      "stateMutability": "view",
      "type": "function"
    },
    {
      "inputs": [],
      "name": "owner",
      "outputs": [
        {
          "internalType": "address",
          "name": "",
          "type": "address"
        }
      ],
      "stateMutability": "view",
      "type": "function"
    },
    {
      "inputs": [
        {
          "internalType": "uint256",
          "name": "tokenId",
          "type": "uint256"
        }
      ],
      "name": "ownerOf",
      "outputs": [
        {
          "internalType": "address",
          "name": "",
          "type": "address"
        }
      ],
      "stateMutability": "view",
      "type": "function"
    },
    {
      "inputs": [],
      "name": "renounceOwnership",
      "outputs": [],
      "stateMutability": "nonpayable",
      "type": "function"
    },
    {
      "inputs": [
        {
          "internalType": "address",
          "name": "from",
          "type": "address"
        },
        {
          "internalType": "address",
          "name": "to",
          "type": "address"
        },
        {
          "internalType": "uint256",
          "name": "tokenId",
          "type": "uint256"
        }
      ],
      "name": "safeTransferFrom",
      "outputs": [],
      "stateMutability": "nonpayable",
      "type": "function"
    },
    {
      "inputs": [
        {
          "internalType": "address",
          "name": "from",
          "type": "address"
        },
        {
          "internalType": "address",
          "name": "to",
          "type": "address"
        },
        {
          "internalType": "uint256",
          "name": "tokenId",
          "type": "uint256"
        },
        {
          "internalType": "bytes",
          "name": "data",
          "type": "bytes"
        }
      ],
      "name": "safeTransferFrom",
      "outputs": [],
      "stateMutability": "nonpayable",
      "type": "function"
    },
    {
      "inputs": [
        {
          "internalType": "address",
          "name": "operator",
          "type": "address"
        },
        {
          "internalType": "bool",
          "name": "approved",
          "type": "bool"
        }
      ],
      "name": "setApprovalForAll",
      "outputs": [],
      "stateMutability": "nonpayable",
      "type": "function"
    },
    {
      "inputs": [
        {
          "internalType": "address",
          "name": "_marketplace",
          "type": "address"
        }
      ],
      "name": "setMarketplace",
      "outputs": [],
      "stateMutability": "nonpayable",
      "type": "function"
    },
    {
      "inputs": [
        {
          "internalType": "bytes4",
          "name": "interfaceId",
          "type": "bytes4"
        }
      ],
      "name": "supportsInterface",
      "outputs": [
        {
          "internalType": "bool",
          "name": "",
          "type": "bool"
        }
      ],
      "stateMutability": "view",
      "type": "function"
    },
    {
      "inputs": [],
      "name": "symbol",
      "outputs": [
        {
          "internalType": "string",
          "name": "",
          "type": "string"
        }
      ],
      "stateMutability": "view",
      "type": "function"
    },
    {
      "inputs": [
        {
          "internalType": "uint256",
          "name": "tokenId",
          "type": "uint256"
        }
      ],
      "name": "tokenURI",
      "outputs": [
        {
          "internalType": "string",
          "name": "",
          "type": "string"
        }
      ],
      "stateMutability": "view",
      "type": "function"
    },
    {
      "inputs": [
        {
          "internalType": "address",
          "name": "from",
          "type": "address"
        },
        {
          "internalType": "address",
          "name": "to",
          "type": "address"
        },
        {
          "internalType": "uint256",
          "name": "tokenId",
          "type": "uint256"
        }
      ],
      "name": "transferFrom",
      "outputs": [],
      "stateMutability": "nonpayable",
      "type": "function"
    },
    {
      "inputs": [
        {
          "internalType": "address",
          "name": "newOwner",
          "type": "address"
        }
      ],
      "name": "transferOwnership",
      "outputs": [],
      "stateMutability": "nonpayable",
      "type": "function"
    }
  ],
  "bytecode": "0x608060405234801561001057600080fd5b50336040518060400160405280600681526020017f4d79204e465400000000000000000000000000000000000000000000000000008152506040518060400160405280600481526020017f4d4e465400000000000000000000000000000000000000000000000000000000815250816000908161008d919061043d565b50806001908161009d919061043d565b505050600073ffffffffffffffffffffffffffffffffffffffff168173ffffffffffffffffffffffffffffffffffffffff16036101125760006040517f1e4fbdf70000000000000000000000000000000000000000000000000000000081526004016101099190610550565b60405180910390fd5b6101218161012760201b60201c565b5061056b565b6000600760009054906101000a900473ffffffffffffffffffffffffffffffffffffffff16905081600760006101000a81548173ffffffffffffffffffffffffffffffffffffffff021916908373ffffffffffffffffffffffffffffffffffffffff1602179055508173ffffffffffffffffffffffffffffffffffffffff168173ffffffffffffffffffffffffffffffffffffffff167f8be0079c531659141344cd1fd0a4f28419497f9722a3daafe3b4186f6b6457e060405160405180910390a35050565b600081519050919050565b7f4e487b7100000000000000000000000000000000000000000000000000000000600052604160045260246000fd5b7f4e487b7100000000000000000000000000000000000000000000000000000000600052602260045260246000fd5b6000600282049050600182168061026e57607f821691505b60208210810361028157610280610227565b5b50919050565b60008190508160005260206000209050919050565b60006020601f8301049050919050565b600082821b905092915050565b6000600883026102e97fffffffffffffffffffffffffffffffffffffffffffffffffffffffffffffffff826102ac565b6102f386836102ac565b95508019841693508086168417925050509392505050565b6000819050919050565b6000819050919050565b600061033a6103356103308461030b565b610315565b61030b565b9050919050565b6000819050919050565b6103548361031f565b61036861036082610341565b8484546102b9565b825550505050565b600090565b61037d610370565b61038881848461034b565b505050565b5b818110156103ac576103a1600082610375565b60018101905061038e565b5050565b601f8211156103f1576103c281610287565b6103cb8461029c565b810160208510156103da578190505b6103ee6103e68561029c565b83018261038d565b50505b505050565b600082821c905092915050565b6000610414600019846008026103f6565b1980831691505092915050565b600061042d8383610403565b9150826002028217905092915050565b610446826101ed565b67ffffffffffffffff81111561045f5761045e6101f8565b5b6104698254610256565b6104748282856103b0565b600060209050601f8311600181146104a75760008415610495578287015190505b61049f8582610421565b865550610507565b601f1984166104b586610287565b60005b828110156104dd578489015182556001820191506020850194506020810190506104b8565b868310156104fa57848901516104f6601f891682610403565b8355505b6001600288020188555050505b505050505050565b600073ffffffffffffffffffffffffffffffffffffffff82169050919050565b600061053a8261050f565b9050919050565b61054a8161052f565b82525050565b60006020820190506105656000830184610541565b92915050565b612ac38061057a6000396000f3fe608060405234801561001057600080fd5b50600436106101425760003560e01c806375794a3c116100b8578063b04eec591161007c578063b04eec591461034f578063b88d4fde1461037f578063c87b56dd1461039b578063d0def521146103cb578063e985e9c5146103fb578063f2fde38b1461042b57610142565b806375794a3c146102bb5780638da5cb5b146102d957806395d89b41146102f7578063a22cb46514610315578063abc8c7af1461033157610142565b806342842e0e1161010a57806342842e0e146101fd57806342966c68146102195780636352211e1461023557806370a0823114610265578063715018a61461029557806373ad6c2d1461029f57610142565b806301ffc9a71461014757806306fdde0314610177578063081812fc14610195578063095ea7b3146101c557806323b872dd146101e1575b600080fd5b610161600480360381019061015c9190611e43565b610447565b60405161016e9190611e8b565b60405180910390f35b61017f6104a8565b60405161018c9190611f36565b60405180910390f35b6101af60048036038101906101aa9190611f8e565b61053a565b6040516101bc9190611ffc565b60405180910390f35b6101df60048036038101906101da9190612043565b610556565b005b6101fb60048036038101906101f69190612083565b61056c565b005b61021760048036038101906102129190612083565b61066e565b005b610233600480360381019061022e9190611f8e565b61068e565b005b61024f600480360381019061024a9190611f8e565b610710565b60405161025c9190611ffc565b60405180910390f35b61027f600480360381019061027a91906120d6565b610722565b60405161028c9190612112565b60405180910390f35b61029d6107dc565b005b6102b960048036038101906102b491906120d6565b6107f0565b005b6102c361083c565b6040516102d09190612112565b60405180910390f35b6102e1610842565b6040516102ee9190611ffc565b60405180910390f35b6102ff61086c565b60405161030c9190611f36565b60405180910390f35b61032f600480360381019061032a9190612159565b6108fe565b005b610339610914565b6040516103469190611ffc565b60405180910390f35b610369600480360381019061036491906122ce565b61093a565b6040516103769190612112565b60405180910390f35b610399600480360381019061039491906123cb565b610a05565b005b6103b560048036038101906103b09190611f8e565b610a2a565b6040516103c29190611f36565b60405180910390f35b6103e560048036038101906103e091906122ce565b610b3d565b6040516103f29190612112565b60405180910390f35b6104156004803603810190610410919061244e565b610bc6565b6040516104229190611e8b565b60405180910390f35b610445600480360381019061044091906120d6565b610c5a565b005b6000634906490660e01b7bffffffffffffffffffffffffffffffffffffffffffffffffffffffff1916827bffffffffffffffffffffffffffffffffffffffffffffffffffffffff191614806104a157506104a082610ce0565b5b9050919050565b6060600080546104b7906124bd565b80601f01602080910402602001604051908101604052809291908181526020018280546104e3906124bd565b80156105305780601f1061050557610100808354040283529160200191610530565b820191906000526020600020905b81548152906001019060200180831161051357829003601f168201915b5050505050905090565b600061054582610dc2565b5061054f82610e4a565b9050919050565b6105688282610563610e87565b610e8f565b5050565b600073ffffffffffffffffffffffffffffffffffffffff168273ffffffffffffffffffffffffffffffffffffffff16036105de5760006040517f64a0ae920000000000000000000000000000000000000000000000000000000081526004016105d59190611ffc565b60405180910390fd5b60006105f283836105ed610e87565b610ea1565b90508373ffffffffffffffffffffffffffffffffffffffff168173ffffffffffffffffffffffffffffffffffffffff1614610668578382826040517f64283d7b00000000000000000000000000000000000000000000000000000000815260040161065f939291906124ee565b60405180910390fd5b50505050565b61068983838360405180602001604052806000815250610a05565b505050565b3373ffffffffffffffffffffffffffffffffffffffff166106ae82610710565b73ffffffffffffffffffffffffffffffffffffffff1614610704576040517f08c379a00000000000000000000000000000000000000000000000000000000081526004016106fb90612571565b60405180910390fd5b61070d816110bb565b50565b600061071b82610dc2565b9050919050565b60008073ffffffffffffffffffffffffffffffffffffffff168273ffffffffffffffffffffffffffffffffffffffff16036107955760006040517f89c62b6400000000000000000000000000000000000000000000000000000000815260040161078c9190611ffc565b60405180910390fd5b600360008373ffffffffffffffffffffffffffffffffffffffff1673ffffffffffffffffffffffffffffffffffffffff168152602001908152602001600020549050919050565b6107e4611141565b6107ee60006111c8565b565b6107f8611141565b80600960006101000a81548173ffffffffffffffffffffffffffffffffffffffff021916908373ffffffffffffffffffffffffffffffffffffffff16021790555050565b60085481565b6000600760009054906101000a900473ffffffffffffffffffffffffffffffffffffffff16905090565b60606001805461087b906124bd565b80601f01602080910402602001604051908101604052809291908181526020018280546108a7906124bd565b80156108f45780601f106108c9576101008083540402835291602001916108f4565b820191906000526020600020905b8154815290600101906020018083116108d757829003601f168201915b5050505050905090565b610910610909610e87565b838361128e565b5050565b600960009054906101000a900473ffffffffffffffffffffffffffffffffffffffff1681565b6000600960009054906101000a900473ffffffffffffffffffffffffffffffffffffffff1673ffffffffffffffffffffffffffffffffffffffff163373ffffffffffffffffffffffffffffffffffffffff16146109cc576040517f08c379a00000000000000000000000000000000000000000000000000000000081526004016109c3906125dd565b60405180910390fd5b6000600860008154809291906109e19061262c565b9190505590506109f184826113fd565b6109fb818461141b565b8091505092915050565b610a1084848461056c565b610a24610a1b610e87565b85858585611477565b50505050565b6060610a3582610dc2565b506000600660008481526020019081526020016000208054610a56906124bd565b80601f0160208091040260200160405190810160405280929190818152602001828054610a82906124bd565b8015610acf5780601f10610aa457610100808354040283529160200191610acf565b820191906000526020600020905b815481529060010190602001808311610ab257829003601f168201915b505050505090506000610ae0611628565b90506000815103610af5578192505050610b38565b600082511115610b2a578082604051602001610b129291906126b0565b60405160208183030381529060405292505050610b38565b610b338461163f565b925050505b919050565b60008060086000815480929190610b539061262c565b919050559050610b6384826113fd565b610b6d818461141b565b808473ffffffffffffffffffffffffffffffffffffffff167fe7cd4ce7f2a465edc730269a1305e8a48bad821e8fb7e152ec413829c01a53c485604051610bb49190611f36565b60405180910390a38091505092915050565b6000600560008473ffffffffffffffffffffffffffffffffffffffff1673ffffffffffffffffffffffffffffffffffffffff16815260200190815260200160002060008373ffffffffffffffffffffffffffffffffffffffff1673ffffffffffffffffffffffffffffffffffffffff16815260200190815260200160002060009054906101000a900460ff16905092915050565b610c62611141565b600073ffffffffffffffffffffffffffffffffffffffff168173ffffffffffffffffffffffffffffffffffffffff1603610cd45760006040517f1e4fbdf7000000000000000000000000000000000000000000000000000000008152600401610ccb9190611ffc565b60405180910390fd5b610cdd816111c8565b50565b60007f80ac58cd000000000000000000000000000000000000000000000000000000007bffffffffffffffffffffffffffffffffffffffffffffffffffffffff1916827bffffffffffffffffffffffffffffffffffffffffffffffffffffffff19161480610dab57507f5b5e139f000000000000000000000000000000000000000000000000000000007bffffffffffffffffffffffffffffffffffffffffffffffffffffffff1916827bffffffffffffffffffffffffffffffffffffffffffffffffffffffff1916145b80610dbb5750610dba826116a8565b5b9050919050565b600080610dce83611712565b9050600073ffffffffffffffffffffffffffffffffffffffff168173ffffffffffffffffffffffffffffffffffffffff1603610e4157826040517f7e273289000000000000000000000000000000000000000000000000000000008152600401610e389190612112565b60405180910390fd5b80915050919050565b60006004600083815260200190815260200160002060009054906101000a900473ffffffffffffffffffffffffffffffffffffffff169050919050565b600033905090565b610e9c838383600161174f565b505050565b600080610ead84611712565b9050600073ffffffffffffffffffffffffffffffffffffffff168373ffffffffffffffffffffffffffffffffffffffff1614610eef57610eee818486611914565b5b600073ffffffffffffffffffffffffffffffffffffffff168173ffffffffffffffffffffffffffffffffffffffff1614610f8057610f3160008560008061174f565b6001600360008373ffffffffffffffffffffffffffffffffffffffff1673ffffffffffffffffffffffffffffffffffffffff168152602001908152602001600020600082825403925050819055505b600073ffffffffffffffffffffffffffffffffffffffff168573ffffffffffffffffffffffffffffffffffffffff1614611003576001600360008773ffffffffffffffffffffffffffffffffffffffff1673ffffffffffffffffffffffffffffffffffffffff168152602001908152602001600020600082825401925050819055505b846002600086815260200190815260200160002060006101000a81548173ffffffffffffffffffffffffffffffffffffffff021916908373ffffffffffffffffffffffffffffffffffffffff160217905550838573ffffffffffffffffffffffffffffffffffffffff168273ffffffffffffffffffffffffffffffffffffffff167fddf252ad1be2c89b69c2b068fc378daa952ba7f163c4a11628f55a4df523b3ef60405160405180910390a4809150509392505050565b60006110ca6000836000610ea1565b9050600073ffffffffffffffffffffffffffffffffffffffff168173ffffffffffffffffffffffffffffffffffffffff160361113d57816040517f7e2732890000000000000000000000000000000000000000000000000000000081526004016111349190612112565b60405180910390fd5b5050565b611149610e87565b73ffffffffffffffffffffffffffffffffffffffff16611167610842565b73ffffffffffffffffffffffffffffffffffffffff16146111c65761118a610e87565b6040517f118cdaa70000000000000000000000000000000000000000000000000000000081526004016111bd9190611ffc565b60405180910390fd5b565b6000600760009054906101000a900473ffffffffffffffffffffffffffffffffffffffff16905081600760006101000a81548173ffffffffffffffffffffffffffffffffffffffff021916908373ffffffffffffffffffffffffffffffffffffffff1602179055508173ffffffffffffffffffffffffffffffffffffffff168173ffffffffffffffffffffffffffffffffffffffff167f8be0079c531659141344cd1fd0a4f28419497f9722a3daafe3b4186f6b6457e060405160405180910390a35050565b600073ffffffffffffffffffffffffffffffffffffffff168273ffffffffffffffffffffffffffffffffffffffff16036112ff57816040517f5b08ba180000000000000000000000000000000000000000000000000000000081526004016112f69190611ffc565b60405180910390fd5b80600560008573ffffffffffffffffffffffffffffffffffffffff1673ffffffffffffffffffffffffffffffffffffffff16815260200190815260200160002060008473ffffffffffffffffffffffffffffffffffffffff1673ffffffffffffffffffffffffffffffffffffffff16815260200190815260200160002060006101000a81548160ff0219169083151502179055508173ffffffffffffffffffffffffffffffffffffffff168373ffffffffffffffffffffffffffffffffffffffff167f17307eab39ab6107e8899845ad3d59bd9653f200f220920489ca2b5937696c31836040516113f09190611e8b565b60405180910390a3505050565b6114178282604051806020016040528060008152506119d8565b5050565b8060066000848152602001908152602001600020908161143b9190612880565b507ff8e1a15aba9398e019f0b49df1a4fde98ee17ae345cb5f6b5e2c27f5033e8ce78260405161146b9190612112565b60405180910390a15050565b60008373ffffffffffffffffffffffffffffffffffffffff163b1115611621578273ffffffffffffffffffffffffffffffffffffffff1663150b7a02868685856040518563ffffffff1660e01b81526004016114d694939291906129a7565b6020604051808303816000875af192505050801561151257506040513d601f19601f8201168201806040525081019061150f9190612a08565b60015b611596573d8060008114611542576040519150601f19603f3d011682016040523d82523d6000602084013e611547565b606091505b50600081510361158e57836040517f64a0ae920000000000000000000000000000000000000000000000000000000081526004016115859190611ffc565b60405180910390fd5b805160208201fd5b63150b7a0260e01b7bffffffffffffffffffffffffffffffffffffffffffffffffffffffff1916817bffffffffffffffffffffffffffffffffffffffffffffffffffffffff19161461161f57836040517f64a0ae920000000000000000000000000000000000000000000000000000000081526004016116169190611ffc565b60405180910390fd5b505b5050505050565b606060405180602001604052806000815250905090565b606061164a82610dc2565b506000611655611628565b9050600081511161167557604051806020016040528060008152506116a0565b8061167f846119fc565b6040516020016116909291906126b0565b6040516020818303038152906040525b915050919050565b60007f01ffc9a7000000000000000000000000000000000000000000000000000000007bffffffffffffffffffffffffffffffffffffffffffffffffffffffff1916827bffffffffffffffffffffffffffffffffffffffffffffffffffffffff1916149050919050565b60006002600083815260200190815260200160002060009054906101000a900473ffffffffffffffffffffffffffffffffffffffff169050919050565b80806117885750600073ffffffffffffffffffffffffffffffffffffffff168273ffffffffffffffffffffffffffffffffffffffff1614155b156118bc57600061179884610dc2565b9050600073ffffffffffffffffffffffffffffffffffffffff168373ffffffffffffffffffffffffffffffffffffffff161415801561180357508273ffffffffffffffffffffffffffffffffffffffff168173ffffffffffffffffffffffffffffffffffffffff1614155b801561181657506118148184610bc6565b155b1561185857826040517fa9fbf51f00000000000000000000000000000000000000000000000000000000815260040161184f9190611ffc565b60405180910390fd5b81156118ba57838573ffffffffffffffffffffffffffffffffffffffff168273ffffffffffffffffffffffffffffffffffffffff167f8c5be1e5ebec7d5bd14f71427d1e84f3dd0314c0f7b2291e5b200ac8c7c3b92560405160405180910390a45b505b836004600085815260200190815260200160002060006101000a81548173ffffffffffffffffffffffffffffffffffffffff021916908373ffffffffffffffffffffffffffffffffffffffff16021790555050505050565b61191f838383611aca565b6119d357600073ffffffffffffffffffffffffffffffffffffffff168373ffffffffffffffffffffffffffffffffffffffff160361199457806040517f7e27328900000000000000000000000000000000000000000000000000000000815260040161198b9190612112565b60405180910390fd5b81816040517f177e802f0000000000000000000000000000000000000000000000000000000081526004016119ca929190612a35565b60405180910390fd5b505050565b6119e28383611b8b565b6119f76119ed610e87565b6000858585611477565b505050565b606060006001611a0b84611c84565b01905060008167ffffffffffffffff811115611a2a57611a296121a3565b5b6040519080825280601f01601f191660200182016040528015611a5c5781602001600182028036833780820191505090505b509050600082602083010190505b600115611abf578080600190039150507f3031323334353637383961626364656600000000000000000000000000000000600a86061a8153600a8581611ab357611ab2612a5e565b5b04945060008503611a6a575b819350505050919050565b60008073ffffffffffffffffffffffffffffffffffffffff168373ffffffffffffffffffffffffffffffffffffffff1614158015611b8257508273ffffffffffffffffffffffffffffffffffffffff168473ffffffffffffffffffffffffffffffffffffffff161480611b435750611b428484610bc6565b5b80611b8157508273ffffffffffffffffffffffffffffffffffffffff16611b6983610e4a565b73ffffffffffffffffffffffffffffffffffffffff16145b5b90509392505050565b600073ffffffffffffffffffffffffffffffffffffffff168273ffffffffffffffffffffffffffffffffffffffff1603611bfd5760006040517f64a0ae92000000000000000000000000000000000000000000000000000000008152600401611bf49190611ffc565b60405180910390fd5b6000611c0b83836000610ea1565b9050600073ffffffffffffffffffffffffffffffffffffffff168173ffffffffffffffffffffffffffffffffffffffff1614611c7f5760006040517f73c6ac6e000000000000000000000000000000000000000000000000000000008152600401611c769190611ffc565b60405180910390fd5b505050565b600080600090507a184f03e93ff9f4daa797ed6e38ed64bf6a1f0100000000000000008310611ce2577a184f03e93ff9f4daa797ed6e38ed64bf6a1f0100000000000000008381611cd857611cd7612a5e565b5b0492506040810190505b6d04ee2d6d415b85acef81000000008310611d1f576d04ee2d6d415b85acef81000000008381611d1557611d14612a5e565b5b0492506020810190505b662386f26fc100008310611d4e57662386f26fc100008381611d4457611d43612a5e565b5b0492506010810190505b6305f5e1008310611d77576305f5e1008381611d6d57611d6c612a5e565b5b0492506008810190505b6127108310611d9c576127108381611d9257611d91612a5e565b5b0492506004810190505b60648310611dbf5760648381611db557611db4612a5e565b5b0492506002810190505b600a8310611dce576001810190505b80915050919050565b6000604051905090565b600080fd5b600080fd5b60007fffffffff0000000000000000000000000000000000000000000000000000000082169050919050565b611e2081611deb565b8114611e2b57600080fd5b50565b600081359050611e3d81611e17565b92915050565b600060208284031215611e5957611e58611de1565b5b6000611e6784828501611e2e565b91505092915050565b60008115159050919050565b611e8581611e70565b82525050565b6000602082019050611ea06000830184611e7c565b92915050565b600081519050919050565b600082825260208201905092915050565b60005b83811015611ee0578082015181840152602081019050611ec5565b60008484015250505050565b6000601f19601f8301169050919050565b6000611f0882611ea6565b611f128185611eb1565b9350611f22818560208601611ec2565b611f2b81611eec565b840191505092915050565b60006020820190508181036000830152611f508184611efd565b905092915050565b6000819050919050565b611f6b81611f58565b8114611f7657600080fd5b50565b600081359050611f8881611f62565b92915050565b600060208284031215611fa457611fa3611de1565b5b6000611fb284828501611f79565b91505092915050565b600073ffffffffffffffffffffffffffffffffffffffff82169050919050565b6000611fe682611fbb565b9050919050565b611ff681611fdb565b82525050565b60006020820190506120116000830184611fed565b92915050565b61202081611fdb565b811461202b57600080fd5b50565b60008135905061203d81612017565b92915050565b6000806040838503121561205a57612059611de1565b5b60006120688582860161202e565b925050602061207985828601611f79565b9150509250929050565b60008060006060848603121561209c5761209b611de1565b5b60006120aa8682870161202e565b93505060206120bb8682870161202e565b92505060406120cc86828701611f79565b9150509250925092565b6000602082840312156120ec576120eb611de1565b5b60006120fa8482850161202e565b91505092915050565b61210c81611f58565b82525050565b60006020820190506121276000830184612103565b92915050565b61213681611e70565b811461214157600080fd5b50565b6000813590506121538161212d565b92915050565b600080604083850312156121705761216f611de1565b5b600061217e8582860161202e565b925050602061218f85828601612144565b9150509250929050565b600080fd5b600080fd5b7f4e487b7100000000000000000000000000000000000000000000000000000000600052604160045260246000fd5b6121db82611eec565b810181811067ffffffffffffffff821117156121fa576121f96121a3565b5b80604052505050565b600061220d611dd7565b905061221982826121d2565b919050565b600067ffffffffffffffff821115612239576122386121a3565b5b61224282611eec565b9050602081019050919050565b82818337600083830152505050565b600061227161226c8461221e565b612203565b90508281526020810184848401111561228d5761228c61219e565b5b61229884828561224f565b509392505050565b600082601f8301126122b5576122b4612199565b5b81356122c584826020860161225e565b91505092915050565b600080604083850312156122e5576122e4611de1565b5b60006122f38582860161202e565b925050602083013567ffffffffffffffff81111561231457612313611de6565b5b612320858286016122a0565b9150509250929050565b600067ffffffffffffffff821115612345576123446121a3565b5b61234e82611eec565b9050602081019050919050565b600061236e6123698461232a565b612203565b90508281526020810184848401111561238a5761238961219e565b5b61239584828561224f565b509392505050565b600082601f8301126123b2576123b1612199565b5b81356123c284826020860161235b565b91505092915050565b600080600080608085870312156123e5576123e4611de1565b5b60006123f38782880161202e565b94505060206124048782880161202e565b935050604061241587828801611f79565b925050606085013567ffffffffffffffff81111561243657612435611de6565b5b6124428782880161239d565b91505092959194509250565b6000806040838503121561246557612464611de1565b5b60006124738582860161202e565b92505060206124848582860161202e565b9150509250929050565b7f4e487b7100000000000000000000000000000000000000000000000000000000600052602260045260246000fd5b600060028204905060018216806124d557607f821691505b6020821081036124e8576124e761248e565b5b50919050565b60006060820190506125036000830186611fed565b6125106020830185612103565b61251d6040830184611fed565b949350505050565b7f4e6f74206f776e65720000000000000000000000000000000000000000000000600082015250565b600061255b600983611eb1565b915061256682612525565b602082019050919050565b6000602082019050818103600083015261258a8161254e565b9050919050565b7f4e6f74206d61726b6574706c6163650000000000000000000000000000000000600082015250565b60006125c7600f83611eb1565b91506125d282612591565b602082019050919050565b600060208201905081810360008301526125f6816125ba565b9050919050565b7f4e487b7100000000000000000000000000000000000000000000000000000000600052601160045260246000fd5b600061263782611f58565b91507fffffffffffffffffffffffffffffffffffffffffffffffffffffffffffffffff8203612669576126686125fd565b5b600182019050919050565b600081905092915050565b600061268a82611ea6565b6126948185612674565b93506126a4818560208601611ec2565b80840191505092915050565b60006126bc828561267f565b91506126c8828461267f565b91508190509392505050565b60008190508160005260206000209050919050565b60006020601f8301049050919050565b600082821b905092915050565b6000600883026127367fffffffffffffffffffffffffffffffffffffffffffffffffffffffffffffffff826126f9565b61274086836126f9565b95508019841693508086168417925050509392505050565b6000819050919050565b600061277d61277861277384611f58565b612758565b611f58565b9050919050565b6000819050919050565b61279783612762565b6127ab6127a382612784565b848454612706565b825550505050565b600090565b6127c06127b3565b6127cb81848461278e565b505050565b5b818110156127ef576127e46000826127b8565b6001810190506127d1565b5050565b601f82111561283457612805816126d4565b61280e846126e9565b8101602085101561281d578190505b612831612829856126e9565b8301826127d0565b50505b505050565b600082821c905092915050565b600061285760001984600802612839565b1980831691505092915050565b60006128708383612846565b9150826002028217905092915050565b61288982611ea6565b67ffffffffffffffff8111156128a2576128a16121a3565b5b6128ac82546124bd565b6128b78282856127f3565b600060209050601f8311600181146128ea57600084156128d8578287015190505b6128e28582612864565b86555061294a565b601f1984166128f8866126d4565b60005b82811015612920578489015182556001820191506020850194506020810190506128fb565b8683101561293d5784890151612939601f891682612846565b8355505b6001600288020188555050505b505050505050565b600081519050919050565b600082825260208201905092915050565b600061297982612952565b612983818561295d565b9350612993818560208601611ec2565b61299c81611eec565b840191505092915050565b60006080820190506129bc6000830187611fed565b6129c96020830186611fed565b6129d66040830185612103565b81810360608301526129e8818461296e565b905095945050505050565b600081519050612a0281611e17565b92915050565b600060208284031215612a1e57612a1d611de1565b5b6000612a2c848285016129f3565b91505092915050565b6000604082019050612a4a6000830185611fed565b612a576020830184612103565b9392505050565b7f4e487b7100000000000000000000000000000000000000000000000000000000600052601260045260246000fdfea264697066735822122085dc4281442c5e22433ef6e823d45e532d623e041ce2810a8783ffb7c48fb39f64736f6c634300081c0033",
  "linkReferences": {},
  "deployedLinkReferences": {}
}