{
  "_format": "hh-sol-artifact-1",
  "contractName": "NFT",
  "sourceName": "contracts/Token.sol",
  "abi": [
    {
      "inputs": [
        {
          "internalType": "string",
          "name": "_name",
          "type": "string"
        },
        {
          "internalType": "string",
          "name": "_symbol",
          "type": "string"
        },
        {
          "internalType": "string",
          "name": "_cover",
          "type": "string"
        },
        {
          "internalType": "address",
          "name": "_creator",
          "type": "address"
        }
      ],
      "stateMutability": "nonpayable",
      "type": "constructor"
    },
    {
      "inputs": [
        {
          "internalType": "address",
          "name": "sender",
          "type": "address"
        },
        {
          "internalType": "uint256",
          "name": "tokenId",
          "type": "uint256"
        },
        {
          "internalType": "address",
          "name": "owner",
          "type": "address"
        }
      ],
      "name": "ERC721IncorrectOwner",
      "type": "error"
    },
    {
      "inputs": [
        {
          "internalType": "address",
          "name": "operator",
          "type": "address"
        },
        {
          "internalType": "uint256",
          "name": "tokenId",
          "type": "uint256"
        }
      ],
      "name": "ERC721InsufficientApproval",
      "type": "error"
    },
    {
      "inputs": [
        {
          "internalType": "address",
          "name": "approver",
          "type": "address"
        }
      ],
      "name": "ERC721InvalidApprover",
      "type": "error"
    },
    {
      "inputs": [
        {
          "internalType": "address",
          "name": "operator",
          "type": "address"
        }
      ],
      "name": "ERC721InvalidOperator",
      "type": "error"
    },
    {
      "inputs": [
        {
          "internalType": "address",
          "name": "owner",
          "type": "address"
        }
      ],
      "name": "ERC721InvalidOwner",
      "type": "error"
    },
    {
      "inputs": [
        {
          "internalType": "address",
          "name": "receiver",
          "type": "address"
        }
      ],
      "name": "ERC721InvalidReceiver",
      "type": "error"
    },
    {
      "inputs": [
        {
          "internalType": "address",
          "name": "sender",
          "type": "address"
        }
      ],
      "name": "ERC721InvalidSender",
      "type": "error"
    },
    {
      "inputs": [
        {
          "internalType": "uint256",
          "name": "tokenId",
          "type": "uint256"
        }
      ],
      "name": "ERC721NonexistentToken",
      "type": "error"
    },
    {
      "inputs": [
        {
          "internalType": "address",
          "name": "owner",
          "type": "address"
        }
      ],
      "name": "OwnableInvalidOwner",
      "type": "error"
    },
    {
      "inputs": [
        {
          "internalType": "address",
          "name": "account",
          "type": "address"
        }
      ],
      "name": "OwnableUnauthorizedAccount",
      "type": "error"
    },
    {
      "anonymous": false,
      "inputs": [
        {
          "indexed": true,
          "internalType": "address",
          "name": "owner",
          "type": "address"
        },
        {
          "indexed": true,
          "internalType": "address",
          "name": "approved",
          "type": "address"
        },
        {
          "indexed": true,
          "internalType": "uint256",
          "name": "tokenId",
          "type": "uint256"
        }
      ],
      "name": "Approval",
      "type": "event"
    },
    {
      "anonymous": false,
      "inputs": [
        {
          "indexed": true,
          "internalType": "address",
          "name": "owner",
          "type": "address"
        },
        {
          "indexed": true,
          "internalType": "address",
          "name": "operator",
          "type": "address"
        },
        {
          "indexed": false,
          "internalType": "bool",
          "name": "approved",
          "type": "bool"
        }
      ],
      "name": "ApprovalForAll",
      "type": "event"
    },
    {
      "anonymous": false,
      "inputs": [
        {
          "indexed": false,
          "internalType": "uint256",
          "name": "_fromTokenId",
          "type": "uint256"
        },
        {
          "indexed": false,
          "internalType": "uint256",
          "name": "_toTokenId",
          "type": "uint256"
        }
      ],
      "name": "BatchMetadataUpdate",
      "type": "event"
    },
    {
      "anonymous": false,
      "inputs": [
        {
          "indexed": false,
          "internalType": "uint256",
          "name": "_tokenId",
          "type": "uint256"
        }
      ],
      "name": "MetadataUpdate",
      "type": "event"
    },
    {
      "anonymous": false,
      "inputs": [
        {
          "indexed": true,
          "internalType": "address",
          "name": "to",
          "type": "address"
        },
        {
          "indexed": true,
          "internalType": "uint256",
          "name": "tokenId",
          "type": "uint256"
        },
        {
          "indexed": false,
          "internalType": "string",
          "name": "tokenURI",
          "type": "string"
        }
      ],
      "name": "Minted",
      "type": "event"
    },
    {
      "anonymous": false,
      "inputs": [
        {
          "indexed": true,
          "internalType": "address",
          "name": "previousOwner",
          "type": "address"
        },
        {
          "indexed": true,
          "internalType": "address",
          "name": "newOwner",
          "type": "address"
        }
      ],
      "name": "OwnershipTransferred",
      "type": "event"
    },
    {
      "anonymous": false,
      "inputs": [
        {
          "indexed": true,
          "internalType": "address",
          "name": "from",
          "type": "address"
        },
        {
          "indexed": true,
          "internalType": "address",
          "name": "to",
          "type": "address"
        },
        {
          "indexed": true,
          "internalType": "uint256",
          "name": "tokenId",
          "type": "uint256"
        }
      ],
      "name": "Transfer",
      "type": "event"
    },
    {
      "inputs": [
        {
          "internalType": "address",
          "name": "to",
          "type": "address"
        },
        {
          "internalType": "uint256",
          "name": "tokenId",
          "type": "uint256"
        }
      ],
      "name": "approve",
      "outputs": [],
      "stateMutability": "nonpayable",
      "type": "function"
    },
    {
      "inputs": [
        {
          "internalType": "address",
          "name": "owner",
          "type": "address"
        }
      ],
      "name": "balanceOf",
      "outputs": [
        {
          "internalType": "uint256",
          "name": "",
          "type": "uint256"
        }
      ],
      "stateMutability": "view",
      "type": "function"
    },
    {
      "inputs": [
        {
          "internalType": "uint256",
          "name": "tokenId",
          "type": "uint256"
        }
      ],
      "name": "burn",
      "outputs": [],
      "stateMutability": "nonpayable",
      "type": "function"
    },
    {
      "inputs": [],
      "name": "collectionCover",
      "outputs": [
        {
          "internalType": "string",
          "name": "",
          "type": "string"
        }
      ],
      "stateMutability": "view",
      "type": "function"
    },
    {
      "inputs": [],
      "name": "collectionName",
      "outputs": [
        {
          "internalType": "string",
          "name": "",
          "type": "string"
        }
      ],
      "stateMutability": "view",
      "type": "function"
    },
    {
      "inputs": [],
      "name": "collectionSymbol",
      "outputs": [
        {
          "internalType": "string",
          "name": "",
          "type": "string"
        }
      ],
      "stateMutability": "view",
      "type": "function"
    },
    {
      "inputs": [
        {
          "internalType": "uint256",
          "name": "tokenId",
          "type": "uint256"
        }
      ],
      "name": "getApproved",
      "outputs": [
        {
          "internalType": "address",
          "name": "",
          "type": "address"
        }
      ],
      "stateMutability": "view",
      "type": "function"
    },
    {
      "inputs": [
        {
          "internalType": "address",
          "name": "owner",
          "type": "address"
        },
        {
          "internalType": "address",
          "name": "operator",
          "type": "address"
        }
      ],
      "name": "isApprovedForAll",
      "outputs": [
        {
          "internalType": "bool",
          "name": "",
          "type": "bool"
        }
      ],
      "stateMutability": "view",
      "type": "function"
    },
    {
      "inputs": [],
      "name": "marketplace",
      "outputs": [
        {
          "internalType": "address",
          "name": "",
          "type": "address"
        }
      ],
      "stateMutability": "view",
      "type": "function"
    },
    {
      "inputs": [
        {
          "internalType": "address",
          "name": "to",
          "type": "address"
        },
        {
          "internalType": "string",
          "name": "uri",
          "type": "string"
        }
      ],
      "name": "mint",
      "outputs": [
        {
          "internalType": "uint256",
          "name": "",
          "type": "uint256"
        }
      ],
      "stateMutability": "nonpayable",
      "type": "function"
    },
    {
      "inputs": [
        {
          "internalType": "address",
          "name": "to",
          "type": "address"
        },
        {
          "internalType": "string",
          "name": "uri",
          "type": "string"
        }
      ],
      "name": "mintFromMarketplace",
      "outputs": [
        {
          "internalType": "uint256",
          "name": "",
          "type": "uint256"
        }
      ],
      "stateMutability": "nonpayable",
      "type": "function"
    },
    {
      "inputs": [],
      "name": "name",
      "outputs": [
        {
          "internalType": "string",
          "name": "",
          "type": "string"
        }
      ],
      "stateMutability": "view",
      "type": "function"
    },
    {
      "inputs": [],
      "name": "nextTokenId",
      "outputs": [
        {
          "internalType": "uint256",
          "name": "",
          "type": "uint256"
        }
      ],
      "stateMutability": "view",
      "type": "function"
    },
    {
      "inputs": [],
      "name": "owner",
      "outputs": [
        {
          "internalType": "address",
          "name": "",
          "type": "address"
        }
      ],
      "stateMutability": "view",
      "type": "function"
    },
    {
      "inputs": [
        {
          "internalType": "uint256",
          "name": "tokenId",
          "type": "uint256"
        }
      ],
      "name": "ownerOf",
      "outputs": [
        {
          "internalType": "address",
          "name": "",
          "type": "address"
        }
      ],
      "stateMutability": "view",
      "type": "function"
    },
    {
      "inputs": [],
      "name": "renounceOwnership",
      "outputs": [],
      "stateMutability": "nonpayable",
      "type": "function"
    },
    {
      "inputs": [
        {
          "internalType": "address",
          "name": "from",
          "type": "address"
        },
        {
          "internalType": "address",
          "name": "to",
          "type": "address"
        },
        {
          "internalType": "uint256",
          "name": "tokenId",
          "type": "uint256"
        }
      ],
      "name": "safeTransferFrom",
      "outputs": [],
      "stateMutability": "nonpayable",
      "type": "function"
    },
    {
      "inputs": [
        {
          "internalType": "address",
          "name": "from",
          "type": "address"
        },
        {
          "internalType": "address",
          "name": "to",
          "type": "address"
        },
        {
          "internalType": "uint256",
          "name": "tokenId",
          "type": "uint256"
        },
        {
          "internalType": "bytes",
          "name": "data",
          "type": "bytes"
        }
      ],
      "name": "safeTransferFrom",
      "outputs": [],
      "stateMutability": "nonpayable",
      "type": "function"
    },
    {
      "inputs": [
        {
          "internalType": "address",
          "name": "operator",
          "type": "address"
        },
        {
          "internalType": "bool",
          "name": "approved",
          "type": "bool"
        }
      ],
      "name": "setApprovalForAll",
      "outputs": [],
      "stateMutability": "nonpayable",
      "type": "function"
    },
    {
      "inputs": [
        {
          "internalType": "address",
          "name": "_marketplace",
          "type": "address"
        }
      ],
      "name": "setMarketplace",
      "outputs": [],
      "stateMutability": "nonpayable",
      "type": "function"
    },
    {
      "inputs": [
        {
          "internalType": "bytes4",
          "name": "interfaceId",
          "type": "bytes4"
        }
      ],
      "name": "supportsInterface",
      "outputs": [
        {
          "internalType": "bool",
          "name": "",
          "type": "bool"
        }
      ],
      "stateMutability": "view",
      "type": "function"
    },
    {
      "inputs": [],
      "name": "symbol",
      "outputs": [
        {
          "internalType": "string",
          "name": "",
          "type": "string"
        }
      ],
      "stateMutability": "view",
      "type": "function"
    },
    {
      "inputs": [
        {
          "internalType": "uint256",
          "name": "tokenId",
          "type": "uint256"
        }
      ],
      "name": "tokenURI",
      "outputs": [
        {
          "internalType": "string",
          "name": "",
          "type": "string"
        }
      ],
      "stateMutability": "view",
      "type": "function"
    },
    {
      "inputs": [
        {
          "internalType": "address",
          "name": "from",
          "type": "address"
        },
        {
          "internalType": "address",
          "name": "to",
          "type": "address"
        },
        {
          "internalType": "uint256",
          "name": "tokenId",
          "type": "uint256"
        }
      ],
      "name": "transferFrom",
      "outputs": [],
      "stateMutability": "nonpayable",
      "type": "function"
    },
    {
      "inputs": [
        {
          "internalType": "address",
          "name": "newOwner",
          "type": "address"
        }
      ],
      "name": "transferOwnership",
      "outputs": [],
      "stateMutability": "nonpayable",
      "type": "function"
    }
  ],
  "bytecode": "0x608060405234801561001057600080fd5b5060405161367d38038061367d83398181016040528101906100329190610415565b806040518060400160405280600681526020017f4d79204e465400000000000000000000000000000000000000000000000000008152506040518060400160405280600481526020017f4d4e46540000000000000000000000000000000000000000000000000000000081525081600090816100ae91906106f1565b5080600190816100be91906106f1565b505050600073ffffffffffffffffffffffffffffffffffffffff168173ffffffffffffffffffffffffffffffffffffffff16036101335760006040517f1e4fbdf700000000000000000000000000000000000000000000000000000000815260040161012a91906107d2565b60405180910390fd5b6101428161017c60201b60201c565b5083600a908161015291906106f1565b5082600b908161016291906106f1565b5081600c908161017291906106f1565b50505050506107ed565b6000600760009054906101000a900473ffffffffffffffffffffffffffffffffffffffff16905081600760006101000a81548173ffffffffffffffffffffffffffffffffffffffff021916908373ffffffffffffffffffffffffffffffffffffffff1602179055508173ffffffffffffffffffffffffffffffffffffffff168173ffffffffffffffffffffffffffffffffffffffff167f8be0079c531659141344cd1fd0a4f28419497f9722a3daafe3b4186f6b6457e060405160405180910390a35050565b6000604051905090565b600080fd5b600080fd5b600080fd5b600080fd5b6000601f19601f8301169050919050565b7f4e487b7100000000000000000000000000000000000000000000000000000000600052604160045260246000fd5b6102a982610260565b810181811067ffffffffffffffff821117156102c8576102c7610271565b5b80604052505050565b60006102db610242565b90506102e782826102a0565b919050565b600067ffffffffffffffff82111561030757610306610271565b5b61031082610260565b9050602081019050919050565b60005b8381101561033b578082015181840152602081019050610320565b60008484015250505050565b600061035a610355846102ec565b6102d1565b9050828152602081018484840111156103765761037561025b565b5b61038184828561031d565b509392505050565b600082601f83011261039e5761039d610256565b5b81516103ae848260208601610347565b91505092915050565b600073ffffffffffffffffffffffffffffffffffffffff82169050919050565b60006103e2826103b7565b9050919050565b6103f2816103d7565b81146103fd57600080fd5b50565b60008151905061040f816103e9565b92915050565b6000806000806080858703121561042f5761042e61024c565b5b600085015167ffffffffffffffff81111561044d5761044c610251565b5b61045987828801610389565b945050602085015167ffffffffffffffff81111561047a57610479610251565b5b61048687828801610389565b935050604085015167ffffffffffffffff8111156104a7576104a6610251565b5b6104b387828801610389565b92505060606104c487828801610400565b91505092959194509250565b600081519050919050565b7f4e487b7100000000000000000000000000000000000000000000000000000000600052602260045260246000fd5b6000600282049050600182168061052257607f821691505b602082108103610535576105346104db565b5b50919050565b60008190508160005260206000209050919050565b60006020601f8301049050919050565b600082821b905092915050565b60006008830261059d7fffffffffffffffffffffffffffffffffffffffffffffffffffffffffffffffff82610560565b6105a78683610560565b95508019841693508086168417925050509392505050565b6000819050919050565b6000819050919050565b60006105ee6105e96105e4846105bf565b6105c9565b6105bf565b9050919050565b6000819050919050565b610608836105d3565b61061c610614826105f5565b84845461056d565b825550505050565b600090565b610631610624565b61063c8184846105ff565b505050565b5b8181101561066057610655600082610629565b600181019050610642565b5050565b601f8211156106a5576106768161053b565b61067f84610550565b8101602085101561068e578190505b6106a261069a85610550565b830182610641565b50505b505050565b600082821c905092915050565b60006106c8600019846008026106aa565b1980831691505092915050565b60006106e183836106b7565b9150826002028217905092915050565b6106fa826104d0565b67ffffffffffffffff81111561071357610712610271565b5b61071d825461050a565b610728828285610664565b600060209050601f83116001811461075b5760008415610749578287015190505b61075385826106d5565b8655506107bb565b601f1984166107698661053b565b60005b828110156107915784890151825560018201915060208501945060208101905061076c565b868310156107ae57848901516107aa601f8916826106b7565b8355505b6001600288020188555050505b505050505050565b6107cc816103d7565b82525050565b60006020820190506107e760008301846107c3565b92915050565b612e81806107fc6000396000f3fe608060405234801561001057600080fd5b50600436106101735760003560e01c806375794a3c116100de578063b88d4fde11610097578063d0def52111610071578063d0def52114610438578063e5326ab114610468578063e985e9c514610486578063f2fde38b146104b657610173565b8063b88d4fde146103ce578063c155f3b1146103ea578063c87b56dd1461040857610173565b806375794a3c1461030a5780638da5cb5b1461032857806395d89b4114610346578063a22cb46514610364578063abc8c7af14610380578063b04eec591461039e57610173565b806342842e0e1161013057806342842e0e1461024c57806342966c68146102685780636352211e1461028457806370a08231146102b4578063715018a6146102e457806373ad6c2d146102ee57610173565b806301ffc9a71461017857806306fdde03146101a8578063081812fc146101c6578063095ea7b3146101f657806323b872dd146102125780632f39352a1461022e575b600080fd5b610192600480360381019061018d9190612195565b6104d2565b60405161019f91906121dd565b60405180910390f35b6101b0610533565b6040516101bd9190612288565b60405180910390f35b6101e060048036038101906101db91906122e0565b6105c5565b6040516101ed919061234e565b60405180910390f35b610210600480360381019061020b9190612395565b6105e1565b005b61022c600480360381019061022791906123d5565b6105f7565b005b6102366106f9565b6040516102439190612288565b60405180910390f35b610266600480360381019061026191906123d5565b610787565b005b610282600480360381019061027d91906122e0565b6107a7565b005b61029e600480360381019061029991906122e0565b610829565b6040516102ab919061234e565b60405180910390f35b6102ce60048036038101906102c99190612428565b61083b565b6040516102db9190612464565b60405180910390f35b6102ec6108f5565b005b61030860048036038101906103039190612428565b610909565b005b610312610955565b60405161031f9190612464565b60405180910390f35b61033061095b565b60405161033d919061234e565b60405180910390f35b61034e610985565b60405161035b9190612288565b60405180910390f35b61037e600480360381019061037991906124ab565b610a17565b005b610388610a2d565b604051610395919061234e565b60405180910390f35b6103b860048036038101906103b39190612620565b610a53565b6040516103c59190612464565b60405180910390f35b6103e860048036038101906103e3919061271d565b610b6d565b005b6103f2610b92565b6040516103ff9190612288565b60405180910390f35b610422600480360381019061041d91906122e0565b610c20565b60405161042f9190612288565b60405180910390f35b610452600480360381019061044d9190612620565b610d33565b60405161045f9190612464565b60405180910390f35b610470610e8a565b60405161047d9190612288565b60405180910390f35b6104a0600480360381019061049b91906127a0565b610f18565b6040516104ad91906121dd565b60405180910390f35b6104d060048036038101906104cb9190612428565b610fac565b005b6000634906490660e01b7bffffffffffffffffffffffffffffffffffffffffffffffffffffffff1916827bffffffffffffffffffffffffffffffffffffffffffffffffffffffff1916148061052c575061052b82611032565b5b9050919050565b6060600080546105429061280f565b80601f016020809104026020016040519081016040528092919081815260200182805461056e9061280f565b80156105bb5780601f10610590576101008083540402835291602001916105bb565b820191906000526020600020905b81548152906001019060200180831161059e57829003601f168201915b5050505050905090565b60006105d082611114565b506105da8261119c565b9050919050565b6105f382826105ee6111d9565b6111e1565b5050565b600073ffffffffffffffffffffffffffffffffffffffff168273ffffffffffffffffffffffffffffffffffffffff16036106695760006040517f64a0ae92000000000000000000000000000000000000000000000000000000008152600401610660919061234e565b60405180910390fd5b600061067d83836106786111d9565b6111f3565b90508373ffffffffffffffffffffffffffffffffffffffff168173ffffffffffffffffffffffffffffffffffffffff16146106f3578382826040517f64283d7b0000000000000000000000000000000000000000000000000000000081526004016106ea93929190612840565b60405180910390fd5b50505050565b600b80546107069061280f565b80601f01602080910402602001604051908101604052809291908181526020018280546107329061280f565b801561077f5780601f106107545761010080835404028352916020019161077f565b820191906000526020600020905b81548152906001019060200180831161076257829003601f168201915b505050505081565b6107a283838360405180602001604052806000815250610b6d565b505050565b3373ffffffffffffffffffffffffffffffffffffffff166107c782610829565b73ffffffffffffffffffffffffffffffffffffffff161461081d576040517f08c379a0000000000000000000000000000000000000000000000000000000008152600401610814906128c3565b60405180910390fd5b6108268161140d565b50565b600061083482611114565b9050919050565b60008073ffffffffffffffffffffffffffffffffffffffff168273ffffffffffffffffffffffffffffffffffffffff16036108ae5760006040517f89c62b640000000000000000000000000000000000000000000000000000000081526004016108a5919061234e565b60405180910390fd5b600360008373ffffffffffffffffffffffffffffffffffffffff1673ffffffffffffffffffffffffffffffffffffffff168152602001908152602001600020549050919050565b6108fd611493565b610907600061151a565b565b610911611493565b80600960006101000a81548173ffffffffffffffffffffffffffffffffffffffff021916908373ffffffffffffffffffffffffffffffffffffffff16021790555050565b60085481565b6000600760009054906101000a900473ffffffffffffffffffffffffffffffffffffffff16905090565b6060600180546109949061280f565b80601f01602080910402602001604051908101604052809291908181526020018280546109c09061280f565b8015610a0d5780601f106109e257610100808354040283529160200191610a0d565b820191906000526020600020905b8154815290600101906020018083116109f057829003601f168201915b5050505050905090565b610a29610a226111d9565b83836115e0565b5050565b600960009054906101000a900473ffffffffffffffffffffffffffffffffffffffff1681565b6000600960009054906101000a900473ffffffffffffffffffffffffffffffffffffffff1673ffffffffffffffffffffffffffffffffffffffff163373ffffffffffffffffffffffffffffffffffffffff1614610ae5576040517f08c379a0000000000000000000000000000000000000000000000000000000008152600401610adc9061292f565b60405180910390fd5b600060086000815480929190610afa9061297e565b919050559050610b0a848261174f565b610b14818461176d565b808473ffffffffffffffffffffffffffffffffffffffff167fe7cd4ce7f2a465edc730269a1305e8a48bad821e8fb7e152ec413829c01a53c485604051610b5b9190612288565b60405180910390a38091505092915050565b610b788484846105f7565b610b8c610b836111d9565b858585856117c9565b50505050565b600c8054610b9f9061280f565b80601f0160208091040260200160405190810160405280929190818152602001828054610bcb9061280f565b8015610c185780601f10610bed57610100808354040283529160200191610c18565b820191906000526020600020905b815481529060010190602001808311610bfb57829003601f168201915b505050505081565b6060610c2b82611114565b506000600660008481526020019081526020016000208054610c4c9061280f565b80601f0160208091040260200160405190810160405280929190818152602001828054610c789061280f565b8015610cc55780601f10610c9a57610100808354040283529160200191610cc5565b820191906000526020600020905b815481529060010190602001808311610ca857829003601f168201915b505050505090506000610cd661197a565b90506000815103610ceb578192505050610d2e565b600082511115610d20578082604051602001610d08929190612a02565b60405160208183030381529060405292505050610d2e565b610d2984611991565b925050505b919050565b6000610d3d61095b565b73ffffffffffffffffffffffffffffffffffffffff163373ffffffffffffffffffffffffffffffffffffffff161480610dc35750600960009054906101000a900473ffffffffffffffffffffffffffffffffffffffff1673ffffffffffffffffffffffffffffffffffffffff163373ffffffffffffffffffffffffffffffffffffffff16145b610e02576040517f08c379a0000000000000000000000000000000000000000000000000000000008152600401610df990612a72565b60405180910390fd5b600060086000815480929190610e179061297e565b919050559050610e27848261174f565b610e31818461176d565b808473ffffffffffffffffffffffffffffffffffffffff167fe7cd4ce7f2a465edc730269a1305e8a48bad821e8fb7e152ec413829c01a53c485604051610e789190612288565b60405180910390a38091505092915050565b600a8054610e979061280f565b80601f0160208091040260200160405190810160405280929190818152602001828054610ec39061280f565b8015610f105780601f10610ee557610100808354040283529160200191610f10565b820191906000526020600020905b815481529060010190602001808311610ef357829003601f168201915b505050505081565b6000600560008473ffffffffffffffffffffffffffffffffffffffff1673ffffffffffffffffffffffffffffffffffffffff16815260200190815260200160002060008373ffffffffffffffffffffffffffffffffffffffff1673ffffffffffffffffffffffffffffffffffffffff16815260200190815260200160002060009054906101000a900460ff16905092915050565b610fb4611493565b600073ffffffffffffffffffffffffffffffffffffffff168173ffffffffffffffffffffffffffffffffffffffff16036110265760006040517f1e4fbdf700000000000000000000000000000000000000000000000000000000815260040161101d919061234e565b60405180910390fd5b61102f8161151a565b50565b60007f80ac58cd000000000000000000000000000000000000000000000000000000007bffffffffffffffffffffffffffffffffffffffffffffffffffffffff1916827bffffffffffffffffffffffffffffffffffffffffffffffffffffffff191614806110fd57507f5b5e139f000000000000000000000000000000000000000000000000000000007bffffffffffffffffffffffffffffffffffffffffffffffffffffffff1916827bffffffffffffffffffffffffffffffffffffffffffffffffffffffff1916145b8061110d575061110c826119fa565b5b9050919050565b60008061112083611a64565b9050600073ffffffffffffffffffffffffffffffffffffffff168173ffffffffffffffffffffffffffffffffffffffff160361119357826040517f7e27328900000000000000000000000000000000000000000000000000000000815260040161118a9190612464565b60405180910390fd5b80915050919050565b60006004600083815260200190815260200160002060009054906101000a900473ffffffffffffffffffffffffffffffffffffffff169050919050565b600033905090565b6111ee8383836001611aa1565b505050565b6000806111ff84611a64565b9050600073ffffffffffffffffffffffffffffffffffffffff168373ffffffffffffffffffffffffffffffffffffffff161461124157611240818486611c66565b5b600073ffffffffffffffffffffffffffffffffffffffff168173ffffffffffffffffffffffffffffffffffffffff16146112d257611283600085600080611aa1565b6001600360008373ffffffffffffffffffffffffffffffffffffffff1673ffffffffffffffffffffffffffffffffffffffff168152602001908152602001600020600082825403925050819055505b600073ffffffffffffffffffffffffffffffffffffffff168573ffffffffffffffffffffffffffffffffffffffff1614611355576001600360008773ffffffffffffffffffffffffffffffffffffffff1673ffffffffffffffffffffffffffffffffffffffff168152602001908152602001600020600082825401925050819055505b846002600086815260200190815260200160002060006101000a81548173ffffffffffffffffffffffffffffffffffffffff021916908373ffffffffffffffffffffffffffffffffffffffff160217905550838573ffffffffffffffffffffffffffffffffffffffff168273ffffffffffffffffffffffffffffffffffffffff167fddf252ad1be2c89b69c2b068fc378daa952ba7f163c4a11628f55a4df523b3ef60405160405180910390a4809150509392505050565b600061141c60008360006111f3565b9050600073ffffffffffffffffffffffffffffffffffffffff168173ffffffffffffffffffffffffffffffffffffffff160361148f57816040517f7e2732890000000000000000000000000000000000000000000000000000000081526004016114869190612464565b60405180910390fd5b5050565b61149b6111d9565b73ffffffffffffffffffffffffffffffffffffffff166114b961095b565b73ffffffffffffffffffffffffffffffffffffffff1614611518576114dc6111d9565b6040517f118cdaa700000000000000000000000000000000000000000000000000000000815260040161150f919061234e565b60405180910390fd5b565b6000600760009054906101000a900473ffffffffffffffffffffffffffffffffffffffff16905081600760006101000a81548173ffffffffffffffffffffffffffffffffffffffff021916908373ffffffffffffffffffffffffffffffffffffffff1602179055508173ffffffffffffffffffffffffffffffffffffffff168173ffffffffffffffffffffffffffffffffffffffff167f8be0079c531659141344cd1fd0a4f28419497f9722a3daafe3b4186f6b6457e060405160405180910390a35050565b600073ffffffffffffffffffffffffffffffffffffffff168273ffffffffffffffffffffffffffffffffffffffff160361165157816040517f5b08ba18000000000000000000000000000000000000000000000000000000008152600401611648919061234e565b60405180910390fd5b80600560008573ffffffffffffffffffffffffffffffffffffffff1673ffffffffffffffffffffffffffffffffffffffff16815260200190815260200160002060008473ffffffffffffffffffffffffffffffffffffffff1673ffffffffffffffffffffffffffffffffffffffff16815260200190815260200160002060006101000a81548160ff0219169083151502179055508173ffffffffffffffffffffffffffffffffffffffff168373ffffffffffffffffffffffffffffffffffffffff167f17307eab39ab6107e8899845ad3d59bd9653f200f220920489ca2b5937696c318360405161174291906121dd565b60405180910390a3505050565b611769828260405180602001604052806000815250611d2a565b5050565b8060066000848152602001908152602001600020908161178d9190612c3e565b507ff8e1a15aba9398e019f0b49df1a4fde98ee17ae345cb5f6b5e2c27f5033e8ce7826040516117bd9190612464565b60405180910390a15050565b60008373ffffffffffffffffffffffffffffffffffffffff163b1115611973578273ffffffffffffffffffffffffffffffffffffffff1663150b7a02868685856040518563ffffffff1660e01b81526004016118289493929190612d65565b6020604051808303816000875af192505050801561186457506040513d601f19601f820116820180604052508101906118619190612dc6565b60015b6118e8573d8060008114611894576040519150601f19603f3d011682016040523d82523d6000602084013e611899565b606091505b5060008151036118e057836040517f64a0ae920000000000000000000000000000000000000000000000000000000081526004016118d7919061234e565b60405180910390fd5b805160208201fd5b63150b7a0260e01b7bffffffffffffffffffffffffffffffffffffffffffffffffffffffff1916817bffffffffffffffffffffffffffffffffffffffffffffffffffffffff19161461197157836040517f64a0ae92000000000000000000000000000000000000000000000000000000008152600401611968919061234e565b60405180910390fd5b505b5050505050565b606060405180602001604052806000815250905090565b606061199c82611114565b5060006119a761197a565b905060008151116119c757604051806020016040528060008152506119f2565b806119d184611d4e565b6040516020016119e2929190612a02565b6040516020818303038152906040525b915050919050565b60007f01ffc9a7000000000000000000000000000000000000000000000000000000007bffffffffffffffffffffffffffffffffffffffffffffffffffffffff1916827bffffffffffffffffffffffffffffffffffffffffffffffffffffffff1916149050919050565b60006002600083815260200190815260200160002060009054906101000a900473ffffffffffffffffffffffffffffffffffffffff169050919050565b8080611ada5750600073ffffffffffffffffffffffffffffffffffffffff168273ffffffffffffffffffffffffffffffffffffffff1614155b15611c0e576000611aea84611114565b9050600073ffffffffffffffffffffffffffffffffffffffff168373ffffffffffffffffffffffffffffffffffffffff1614158015611b5557508273ffffffffffffffffffffffffffffffffffffffff168173ffffffffffffffffffffffffffffffffffffffff1614155b8015611b685750611b668184610f18565b155b15611baa57826040517fa9fbf51f000000000000000000000000000000000000000000000000000000008152600401611ba1919061234e565b60405180910390fd5b8115611c0c57838573ffffffffffffffffffffffffffffffffffffffff168273ffffffffffffffffffffffffffffffffffffffff167f8c5be1e5ebec7d5bd14f71427d1e84f3dd0314c0f7b2291e5b200ac8c7c3b92560405160405180910390a45b505b836004600085815260200190815260200160002060006101000a81548173ffffffffffffffffffffffffffffffffffffffff021916908373ffffffffffffffffffffffffffffffffffffffff16021790555050505050565b611c71838383611e1c565b611d2557600073ffffffffffffffffffffffffffffffffffffffff168373ffffffffffffffffffffffffffffffffffffffff1603611ce657806040517f7e273289000000000000000000000000000000000000000000000000000000008152600401611cdd9190612464565b60405180910390fd5b81816040517f177e802f000000000000000000000000000000000000000000000000000000008152600401611d1c929190612df3565b60405180910390fd5b505050565b611d348383611edd565b611d49611d3f6111d9565b60008585856117c9565b505050565b606060006001611d5d84611fd6565b01905060008167ffffffffffffffff811115611d7c57611d7b6124f5565b5b6040519080825280601f01601f191660200182016040528015611dae5781602001600182028036833780820191505090505b509050600082602083010190505b600115611e11578080600190039150507f3031323334353637383961626364656600000000000000000000000000000000600a86061a8153600a8581611e0557611e04612e1c565b5b04945060008503611dbc575b819350505050919050565b60008073ffffffffffffffffffffffffffffffffffffffff168373ffffffffffffffffffffffffffffffffffffffff1614158015611ed457508273ffffffffffffffffffffffffffffffffffffffff168473ffffffffffffffffffffffffffffffffffffffff161480611e955750611e948484610f18565b5b80611ed357508273ffffffffffffffffffffffffffffffffffffffff16611ebb8361119c565b73ffffffffffffffffffffffffffffffffffffffff16145b5b90509392505050565b600073ffffffffffffffffffffffffffffffffffffffff168273ffffffffffffffffffffffffffffffffffffffff1603611f4f5760006040517f64a0ae92000000000000000000000000000000000000000000000000000000008152600401611f46919061234e565b60405180910390fd5b6000611f5d838360006111f3565b9050600073ffffffffffffffffffffffffffffffffffffffff168173ffffffffffffffffffffffffffffffffffffffff1614611fd15760006040517f73c6ac6e000000000000000000000000000000000000000000000000000000008152600401611fc8919061234e565b60405180910390fd5b505050565b600080600090507a184f03e93ff9f4daa797ed6e38ed64bf6a1f0100000000000000008310612034577a184f03e93ff9f4daa797ed6e38ed64bf6a1f010000000000000000838161202a57612029612e1c565b5b0492506040810190505b6d04ee2d6d415b85acef81000000008310612071576d04ee2d6d415b85acef8100000000838161206757612066612e1c565b5b0492506020810190505b662386f26fc1000083106120a057662386f26fc10000838161209657612095612e1c565b5b0492506010810190505b6305f5e10083106120c9576305f5e10083816120bf576120be612e1c565b5b0492506008810190505b61271083106120ee5761271083816120e4576120e3612e1c565b5b0492506004810190505b60648310612111576064838161210757612106612e1c565b5b0492506002810190505b600a8310612120576001810190505b80915050919050565b6000604051905090565b600080fd5b600080fd5b60007fffffffff0000000000000000000000000000000000000000000000000000000082169050919050565b6121728161213d565b811461217d57600080fd5b50565b60008135905061218f81612169565b92915050565b6000602082840312156121ab576121aa612133565b5b60006121b984828501612180565b91505092915050565b60008115159050919050565b6121d7816121c2565b82525050565b60006020820190506121f260008301846121ce565b92915050565b600081519050919050565b600082825260208201905092915050565b60005b83811015612232578082015181840152602081019050612217565b60008484015250505050565b6000601f19601f8301169050919050565b600061225a826121f8565b6122648185612203565b9350612274818560208601612214565b61227d8161223e565b840191505092915050565b600060208201905081810360008301526122a2818461224f565b905092915050565b6000819050919050565b6122bd816122aa565b81146122c857600080fd5b50565b6000813590506122da816122b4565b92915050565b6000602082840312156122f6576122f5612133565b5b6000612304848285016122cb565b91505092915050565b600073ffffffffffffffffffffffffffffffffffffffff82169050919050565b60006123388261230d565b9050919050565b6123488161232d565b82525050565b6000602082019050612363600083018461233f565b92915050565b6123728161232d565b811461237d57600080fd5b50565b60008135905061238f81612369565b92915050565b600080604083850312156123ac576123ab612133565b5b60006123ba85828601612380565b92505060206123cb858286016122cb565b9150509250929050565b6000806000606084860312156123ee576123ed612133565b5b60006123fc86828701612380565b935050602061240d86828701612380565b925050604061241e868287016122cb565b9150509250925092565b60006020828403121561243e5761243d612133565b5b600061244c84828501612380565b91505092915050565b61245e816122aa565b82525050565b60006020820190506124796000830184612455565b92915050565b612488816121c2565b811461249357600080fd5b50565b6000813590506124a58161247f565b92915050565b600080604083850312156124c2576124c1612133565b5b60006124d085828601612380565b92505060206124e185828601612496565b9150509250929050565b600080fd5b600080fd5b7f4e487b7100000000000000000000000000000000000000000000000000000000600052604160045260246000fd5b61252d8261223e565b810181811067ffffffffffffffff8211171561254c5761254b6124f5565b5b80604052505050565b600061255f612129565b905061256b8282612524565b919050565b600067ffffffffffffffff82111561258b5761258a6124f5565b5b6125948261223e565b9050602081019050919050565b82818337600083830152505050565b60006125c36125be84612570565b612555565b9050828152602081018484840111156125df576125de6124f0565b5b6125ea8482856125a1565b509392505050565b600082601f830112612607576126066124eb565b5b81356126178482602086016125b0565b91505092915050565b6000806040838503121561263757612636612133565b5b600061264585828601612380565b925050602083013567ffffffffffffffff81111561266657612665612138565b5b612672858286016125f2565b9150509250929050565b600067ffffffffffffffff821115612697576126966124f5565b5b6126a08261223e565b9050602081019050919050565b60006126c06126bb8461267c565b612555565b9050828152602081018484840111156126dc576126db6124f0565b5b6126e78482856125a1565b509392505050565b600082601f830112612704576127036124eb565b5b81356127148482602086016126ad565b91505092915050565b6000806000806080858703121561273757612736612133565b5b600061274587828801612380565b945050602061275687828801612380565b9350506040612767878288016122cb565b925050606085013567ffffffffffffffff81111561278857612787612138565b5b612794878288016126ef565b91505092959194509250565b600080604083850312156127b7576127b6612133565b5b60006127c585828601612380565b92505060206127d685828601612380565b9150509250929050565b7f4e487b7100000000000000000000000000000000000000000000000000000000600052602260045260246000fd5b6000600282049050600182168061282757607f821691505b60208210810361283a576128396127e0565b5b50919050565b6000606082019050612855600083018661233f565b6128626020830185612455565b61286f604083018461233f565b949350505050565b7f4e6f74206f776e65720000000000000000000000000000000000000000000000600082015250565b60006128ad600983612203565b91506128b882612877565b602082019050919050565b600060208201905081810360008301526128dc816128a0565b9050919050565b7f4e6f74206d61726b6574706c6163650000000000000000000000000000000000600082015250565b6000612919600f83612203565b9150612924826128e3565b602082019050919050565b600060208201905081810360008301526129488161290c565b9050919050565b7f4e487b7100000000000000000000000000000000000000000000000000000000600052601160045260246000fd5b6000612989826122aa565b91507fffffffffffffffffffffffffffffffffffffffffffffffffffffffffffffffff82036129bb576129ba61294f565b5b600182019050919050565b600081905092915050565b60006129dc826121f8565b6129e681856129c6565b93506129f6818560208601612214565b80840191505092915050565b6000612a0e82856129d1565b9150612a1a82846129d1565b91508190509392505050565b7f4e6f7420617574686f72697a6564000000000000000000000000000000000000600082015250565b6000612a5c600e83612203565b9150612a6782612a26565b602082019050919050565b60006020820190508181036000830152612a8b81612a4f565b9050919050565b60008190508160005260206000209050919050565b60006020601f8301049050919050565b600082821b905092915050565b600060088302612af47fffffffffffffffffffffffffffffffffffffffffffffffffffffffffffffffff82612ab7565b612afe8683612ab7565b95508019841693508086168417925050509392505050565b6000819050919050565b6000612b3b612b36612b31846122aa565b612b16565b6122aa565b9050919050565b6000819050919050565b612b5583612b20565b612b69612b6182612b42565b848454612ac4565b825550505050565b600090565b612b7e612b71565b612b89818484612b4c565b505050565b5b81811015612bad57612ba2600082612b76565b600181019050612b8f565b5050565b601f821115612bf257612bc381612a92565b612bcc84612aa7565b81016020851015612bdb578190505b612bef612be785612aa7565b830182612b8e565b50505b505050565b600082821c905092915050565b6000612c1560001984600802612bf7565b1980831691505092915050565b6000612c2e8383612c04565b9150826002028217905092915050565b612c47826121f8565b67ffffffffffffffff811115612c6057612c5f6124f5565b5b612c6a825461280f565b612c75828285612bb1565b600060209050601f831160018114612ca85760008415612c96578287015190505b612ca08582612c22565b865550612d08565b601f198416612cb686612a92565b60005b82811015612cde57848901518255600182019150602085019450602081019050612cb9565b86831015612cfb5784890151612cf7601f891682612c04565b8355505b6001600288020188555050505b505050505050565b600081519050919050565b600082825260208201905092915050565b6000612d3782612d10565b612d418185612d1b565b9350612d51818560208601612214565b612d5a8161223e565b840191505092915050565b6000608082019050612d7a600083018761233f565b612d87602083018661233f565b612d946040830185612455565b8181036060830152612da68184612d2c565b905095945050505050565b600081519050612dc081612169565b92915050565b600060208284031215612ddc57612ddb612133565b5b6000612dea84828501612db1565b91505092915050565b6000604082019050612e08600083018561233f565b612e156020830184612455565b9392505050565b7f4e487b7100000000000000000000000000000000000000000000000000000000600052601260045260246000fdfea2646970667358221220d5c0fdf9a654e8402301b1778329f2841f1795c89a5cf99702f0e8857e7874bc64736f6c634300081c0033",
  "linkReferences": {},
  "deployedLinkReferences": {}
}