{
  "_format": "hh-sol-artifact-1",
  "contractName": "NFT",
  "sourceName": "contracts/Token.sol",
  "abi": [
    {
      "inputs": [
        {
          "internalType": "string",
          "name": "_name",
          "type": "string"
        },
        {
          "internalType": "string",
          "name": "_symbol",
          "type": "string"
        },
        {
          "internalType": "string",
          "name": "_cover",
          "type": "string"
        },
        {
          "internalType": "address",
          "name": "_creator",
          "type": "address"
        }
      ],
      "stateMutability": "nonpayable",
      "type": "constructor"
    },
    {
      "inputs": [
        {
          "internalType": "address",
          "name": "sender",
          "type": "address"
        },
        {
          "internalType": "uint256",
          "name": "tokenId",
          "type": "uint256"
        },
        {
          "internalType": "address",
          "name": "owner",
          "type": "address"
        }
      ],
      "name": "ERC721IncorrectOwner",
      "type": "error"
    },
    {
      "inputs": [
        {
          "internalType": "address",
          "name": "operator",
          "type": "address"
        },
        {
          "internalType": "uint256",
          "name": "tokenId",
          "type": "uint256"
        }
      ],
      "name": "ERC721InsufficientApproval",
      "type": "error"
    },
    {
      "inputs": [
        {
          "internalType": "address",
          "name": "approver",
          "type": "address"
        }
      ],
      "name": "ERC721InvalidApprover",
      "type": "error"
    },
    {
      "inputs": [
        {
          "internalType": "address",
          "name": "operator",
          "type": "address"
        }
      ],
      "name": "ERC721InvalidOperator",
      "type": "error"
    },
    {
      "inputs": [
        {
          "internalType": "address",
          "name": "owner",
          "type": "address"
        }
      ],
      "name": "ERC721InvalidOwner",
      "type": "error"
    },
    {
      "inputs": [
        {
          "internalType": "address",
          "name": "receiver",
          "type": "address"
        }
      ],
      "name": "ERC721InvalidReceiver",
      "type": "error"
    },
    {
      "inputs": [
        {
          "internalType": "address",
          "name": "sender",
          "type": "address"
        }
      ],
      "name": "ERC721InvalidSender",
      "type": "error"
    },
    {
      "inputs": [
        {
          "internalType": "uint256",
          "name": "tokenId",
          "type": "uint256"
        }
      ],
      "name": "ERC721NonexistentToken",
      "type": "error"
    },
    {
      "inputs": [
        {
          "internalType": "address",
          "name": "owner",
          "type": "address"
        }
      ],
      "name": "OwnableInvalidOwner",
      "type": "error"
    },
    {
      "inputs": [
        {
          "internalType": "address",
          "name": "account",
          "type": "address"
        }
      ],
      "name": "OwnableUnauthorizedAccount",
      "type": "error"
    },
    {
      "anonymous": false,
      "inputs": [
        {
          "indexed": true,
          "internalType": "address",
          "name": "owner",
          "type": "address"
        },
        {
          "indexed": true,
          "internalType": "address",
          "name": "approved",
          "type": "address"
        },
        {
          "indexed": true,
          "internalType": "uint256",
          "name": "tokenId",
          "type": "uint256"
        }
      ],
      "name": "Approval",
      "type": "event"
    },
    {
      "anonymous": false,
      "inputs": [
        {
          "indexed": true,
          "internalType": "address",
          "name": "owner",
          "type": "address"
        },
        {
          "indexed": true,
          "internalType": "address",
          "name": "operator",
          "type": "address"
        },
        {
          "indexed": false,
          "internalType": "bool",
          "name": "approved",
          "type": "bool"
        }
      ],
      "name": "ApprovalForAll",
      "type": "event"
    },
    {
      "anonymous": false,
      "inputs": [
        {
          "indexed": false,
          "internalType": "uint256",
          "name": "_fromTokenId",
          "type": "uint256"
        },
        {
          "indexed": false,
          "internalType": "uint256",
          "name": "_toTokenId",
          "type": "uint256"
        }
      ],
      "name": "BatchMetadataUpdate",
      "type": "event"
    },
    {
      "anonymous": false,
      "inputs": [
        {
          "indexed": false,
          "internalType": "uint256",
          "name": "_tokenId",
          "type": "uint256"
        }
      ],
      "name": "MetadataUpdate",
      "type": "event"
    },
    {
      "anonymous": false,
      "inputs": [
        {
          "indexed": true,
          "internalType": "address",
          "name": "to",
          "type": "address"
        },
        {
          "indexed": true,
          "internalType": "uint256",
          "name": "tokenId",
          "type": "uint256"
        },
        {
          "indexed": false,
          "internalType": "string",
          "name": "tokenURI",
          "type": "string"
        }
      ],
      "name": "Minted",
      "type": "event"
    },
    {
      "anonymous": false,
      "inputs": [
        {
          "indexed": true,
          "internalType": "address",
          "name": "previousOwner",
          "type": "address"
        },
        {
          "indexed": true,
          "internalType": "address",
          "name": "newOwner",
          "type": "address"
        }
      ],
      "name": "OwnershipTransferred",
      "type": "event"
    },
    {
      "anonymous": false,
      "inputs": [
        {
          "indexed": true,
          "internalType": "address",
          "name": "from",
          "type": "address"
        },
        {
          "indexed": true,
          "internalType": "address",
          "name": "to",
          "type": "address"
        },
        {
          "indexed": true,
          "internalType": "uint256",
          "name": "tokenId",
          "type": "uint256"
        }
      ],
      "name": "Transfer",
      "type": "event"
    },
    {
      "inputs": [
        {
          "internalType": "address",
          "name": "to",
          "type": "address"
        },
        {
          "internalType": "uint256",
          "name": "tokenId",
          "type": "uint256"
        }
      ],
      "name": "approve",
      "outputs": [],
      "stateMutability": "nonpayable",
      "type": "function"
    },
    {
      "inputs": [
        {
          "internalType": "address",
          "name": "owner",
          "type": "address"
        }
      ],
      "name": "balanceOf",
      "outputs": [
        {
          "internalType": "uint256",
          "name": "",
          "type": "uint256"
        }
      ],
      "stateMutability": "view",
      "type": "function"
    },
    {
      "inputs": [
        {
          "internalType": "uint256",
          "name": "tokenId",
          "type": "uint256"
        }
      ],
      "name": "burn",
      "outputs": [],
      "stateMutability": "nonpayable",
      "type": "function"
    },
    {
      "inputs": [],
      "name": "collectionCover",
      "outputs": [
        {
          "internalType": "string",
          "name": "",
          "type": "string"
        }
      ],
      "stateMutability": "view",
      "type": "function"
    },
    {
      "inputs": [],
      "name": "collectionName",
      "outputs": [
        {
          "internalType": "string",
          "name": "",
          "type": "string"
        }
      ],
      "stateMutability": "view",
      "type": "function"
    },
    {
      "inputs": [],
      "name": "collectionSymbol",
      "outputs": [
        {
          "internalType": "string",
          "name": "",
          "type": "string"
        }
      ],
      "stateMutability": "view",
      "type": "function"
    },
    {
      "inputs": [
        {
          "internalType": "uint256",
          "name": "tokenId",
          "type": "uint256"
        }
      ],
      "name": "getApproved",
      "outputs": [
        {
          "internalType": "address",
          "name": "",
          "type": "address"
        }
      ],
      "stateMutability": "view",
      "type": "function"
    },
    {
      "inputs": [],
      "name": "getCollectionName",
      "outputs": [
        {
          "internalType": "string",
          "name": "",
          "type": "string"
        }
      ],
      "stateMutability": "view",
      "type": "function"
    },
    {
      "inputs": [
        {
          "internalType": "address",
          "name": "owner",
          "type": "address"
        },
        {
          "internalType": "address",
          "name": "operator",
          "type": "address"
        }
      ],
      "name": "isApprovedForAll",
      "outputs": [
        {
          "internalType": "bool",
          "name": "",
          "type": "bool"
        }
      ],
      "stateMutability": "view",
      "type": "function"
    },
    {
      "inputs": [],
      "name": "marketplace",
      "outputs": [
        {
          "internalType": "address",
          "name": "",
          "type": "address"
        }
      ],
      "stateMutability": "view",
      "type": "function"
    },
    {
      "inputs": [
        {
          "internalType": "address",
          "name": "to",
          "type": "address"
        },
        {
          "internalType": "string",
          "name": "uri",
          "type": "string"
        }
      ],
      "name": "mint",
      "outputs": [
        {
          "internalType": "uint256",
          "name": "",
          "type": "uint256"
        }
      ],
      "stateMutability": "nonpayable",
      "type": "function"
    },
    {
      "inputs": [
        {
          "internalType": "address",
          "name": "to",
          "type": "address"
        },
        {
          "internalType": "string",
          "name": "uri",
          "type": "string"
        }
      ],
      "name": "mintFromMarketplace",
      "outputs": [
        {
          "internalType": "uint256",
          "name": "",
          "type": "uint256"
        }
      ],
      "stateMutability": "nonpayable",
      "type": "function"
    },
    {
      "inputs": [],
      "name": "name",
      "outputs": [
        {
          "internalType": "string",
          "name": "",
          "type": "string"
        }
      ],
      "stateMutability": "view",
      "type": "function"
    },
    {
      "inputs": [],
      "name": "nextTokenId",
      "outputs": [
        {
          "internalType": "uint256",
          "name": "",
          "type": "uint256"
        }
      ],
      "stateMutability": "view",
      "type": "function"
    },
    {
      "inputs": [],
      "name": "owner",
      "outputs": [
        {
          "internalType": "address",
          "name": "",
          "type": "address"
        }
      ],
      "stateMutability": "view",
      "type": "function"
    },
    {
      "inputs": [
        {
          "internalType": "uint256",
          "name": "tokenId",
          "type": "uint256"
        }
      ],
      "name": "ownerOf",
      "outputs": [
        {
          "internalType": "address",
          "name": "",
          "type": "address"
        }
      ],
      "stateMutability": "view",
      "type": "function"
    },
    {
      "inputs": [],
      "name": "renounceOwnership",
      "outputs": [],
      "stateMutability": "nonpayable",
      "type": "function"
    },
    {
      "inputs": [
        {
          "internalType": "address",
          "name": "from",
          "type": "address"
        },
        {
          "internalType": "address",
          "name": "to",
          "type": "address"
        },
        {
          "internalType": "uint256",
          "name": "tokenId",
          "type": "uint256"
        }
      ],
      "name": "safeTransferFrom",
      "outputs": [],
      "stateMutability": "nonpayable",
      "type": "function"
    },
    {
      "inputs": [
        {
          "internalType": "address",
          "name": "from",
          "type": "address"
        },
        {
          "internalType": "address",
          "name": "to",
          "type": "address"
        },
        {
          "internalType": "uint256",
          "name": "tokenId",
          "type": "uint256"
        },
        {
          "internalType": "bytes",
          "name": "data",
          "type": "bytes"
        }
      ],
      "name": "safeTransferFrom",
      "outputs": [],
      "stateMutability": "nonpayable",
      "type": "function"
    },
    {
      "inputs": [
        {
          "internalType": "address",
          "name": "operator",
          "type": "address"
        },
        {
          "internalType": "bool",
          "name": "approved",
          "type": "bool"
        }
      ],
      "name": "setApprovalForAll",
      "outputs": [],
      "stateMutability": "nonpayable",
      "type": "function"
    },
    {
      "inputs": [
        {
          "internalType": "address",
          "name": "_marketplace",
          "type": "address"
        }
      ],
      "name": "setMarketplace",
      "outputs": [],
      "stateMutability": "nonpayable",
      "type": "function"
    },
    {
      "inputs": [
        {
          "internalType": "bytes4",
          "name": "interfaceId",
          "type": "bytes4"
        }
      ],
      "name": "supportsInterface",
      "outputs": [
        {
          "internalType": "bool",
          "name": "",
          "type": "bool"
        }
      ],
      "stateMutability": "view",
      "type": "function"
    },
    {
      "inputs": [],
      "name": "symbol",
      "outputs": [
        {
          "internalType": "string",
          "name": "",
          "type": "string"
        }
      ],
      "stateMutability": "view",
      "type": "function"
    },
    {
      "inputs": [
        {
          "internalType": "uint256",
          "name": "tokenId",
          "type": "uint256"
        }
      ],
      "name": "tokenURI",
      "outputs": [
        {
          "internalType": "string",
          "name": "",
          "type": "string"
        }
      ],
      "stateMutability": "view",
      "type": "function"
    },
    {
      "inputs": [
        {
          "internalType": "address",
          "name": "from",
          "type": "address"
        },
        {
          "internalType": "address",
          "name": "to",
          "type": "address"
        },
        {
          "internalType": "uint256",
          "name": "tokenId",
          "type": "uint256"
        }
      ],
      "name": "transferFrom",
      "outputs": [],
      "stateMutability": "nonpayable",
      "type": "function"
    },
    {
      "inputs": [
        {
          "internalType": "address",
          "name": "newOwner",
          "type": "address"
        }
      ],
      "name": "transferOwnership",
      "outputs": [],
      "stateMutability": "nonpayable",
      "type": "function"
    }
  ],
  "bytecode": "0x608060405234801561001057600080fd5b506040516135ac3803806135ac833981810160405281019061003291906103ab565b80848481600090816100449190610687565b5080600190816100549190610687565b505050600073ffffffffffffffffffffffffffffffffffffffff168173ffffffffffffffffffffffffffffffffffffffff16036100c95760006040517f1e4fbdf70000000000000000000000000000000000000000000000000000000081526004016100c09190610768565b60405180910390fd5b6100d88161011260201b60201c565b5083600a90816100e89190610687565b5082600b90816100f89190610687565b5081600c90816101089190610687565b5050505050610783565b6000600760009054906101000a900473ffffffffffffffffffffffffffffffffffffffff16905081600760006101000a81548173ffffffffffffffffffffffffffffffffffffffff021916908373ffffffffffffffffffffffffffffffffffffffff1602179055508173ffffffffffffffffffffffffffffffffffffffff168173ffffffffffffffffffffffffffffffffffffffff167f8be0079c531659141344cd1fd0a4f28419497f9722a3daafe3b4186f6b6457e060405160405180910390a35050565b6000604051905090565b600080fd5b600080fd5b600080fd5b600080fd5b6000601f19601f8301169050919050565b7f4e487b7100000000000000000000000000000000000000000000000000000000600052604160045260246000fd5b61023f826101f6565b810181811067ffffffffffffffff8211171561025e5761025d610207565b5b80604052505050565b60006102716101d8565b905061027d8282610236565b919050565b600067ffffffffffffffff82111561029d5761029c610207565b5b6102a6826101f6565b9050602081019050919050565b60005b838110156102d15780820151818401526020810190506102b6565b60008484015250505050565b60006102f06102eb84610282565b610267565b90508281526020810184848401111561030c5761030b6101f1565b5b6103178482856102b3565b509392505050565b600082601f830112610334576103336101ec565b5b81516103448482602086016102dd565b91505092915050565b600073ffffffffffffffffffffffffffffffffffffffff82169050919050565b60006103788261034d565b9050919050565b6103888161036d565b811461039357600080fd5b50565b6000815190506103a58161037f565b92915050565b600080600080608085870312156103c5576103c46101e2565b5b600085015167ffffffffffffffff8111156103e3576103e26101e7565b5b6103ef8782880161031f565b945050602085015167ffffffffffffffff8111156104105761040f6101e7565b5b61041c8782880161031f565b935050604085015167ffffffffffffffff81111561043d5761043c6101e7565b5b6104498782880161031f565b925050606061045a87828801610396565b91505092959194509250565b600081519050919050565b7f4e487b7100000000000000000000000000000000000000000000000000000000600052602260045260246000fd5b600060028204905060018216806104b857607f821691505b6020821081036104cb576104ca610471565b5b50919050565b60008190508160005260206000209050919050565b60006020601f8301049050919050565b600082821b905092915050565b6000600883026105337fffffffffffffffffffffffffffffffffffffffffffffffffffffffffffffffff826104f6565b61053d86836104f6565b95508019841693508086168417925050509392505050565b6000819050919050565b6000819050919050565b600061058461057f61057a84610555565b61055f565b610555565b9050919050565b6000819050919050565b61059e83610569565b6105b26105aa8261058b565b848454610503565b825550505050565b600090565b6105c76105ba565b6105d2818484610595565b505050565b5b818110156105f6576105eb6000826105bf565b6001810190506105d8565b5050565b601f82111561063b5761060c816104d1565b610615846104e6565b81016020851015610624578190505b610638610630856104e6565b8301826105d7565b50505b505050565b600082821c905092915050565b600061065e60001984600802610640565b1980831691505092915050565b6000610677838361064d565b9150826002028217905092915050565b61069082610466565b67ffffffffffffffff8111156106a9576106a8610207565b5b6106b382546104a0565b6106be8282856105fa565b600060209050601f8311600181146106f157600084156106df578287015190505b6106e9858261066b565b865550610751565b601f1984166106ff866104d1565b60005b8281101561072757848901518255600182019150602085019450602081019050610702565b868310156107445784890151610740601f89168261064d565b8355505b6001600288020188555050505b505050505050565b6107628161036d565b82525050565b600060208201905061077d6000830184610759565b92915050565b612e1a806107926000396000f3fe608060405234801561001057600080fd5b506004361061018e5760003560e01c806375794a3c116100de578063b88d4fde11610097578063d0def52111610071578063d0def52114610471578063e5326ab1146104a1578063e985e9c5146104bf578063f2fde38b146104ef5761018e565b8063b88d4fde14610407578063c155f3b114610423578063c87b56dd146104415761018e565b806375794a3c146103435780638da5cb5b1461036157806395d89b411461037f578063a22cb4651461039d578063abc8c7af146103b9578063b04eec59146103d75761018e565b806332045a851161014b5780636352211e116101255780636352211e146102bd57806370a08231146102ed578063715018a61461031d57806373ad6c2d146103275761018e565b806332045a851461026757806342842e0e1461028557806342966c68146102a15761018e565b806301ffc9a71461019357806306fdde03146101c3578063081812fc146101e1578063095ea7b31461021157806323b872dd1461022d5780632f39352a14610249575b600080fd5b6101ad60048036038101906101a8919061219a565b61050b565b6040516101ba91906121e2565b60405180910390f35b6101cb61056c565b6040516101d8919061228d565b60405180910390f35b6101fb60048036038101906101f691906122e5565b6105fe565b6040516102089190612353565b60405180910390f35b61022b6004803603810190610226919061239a565b61061a565b005b610247600480360381019061024291906123da565b610630565b005b610251610732565b60405161025e919061228d565b60405180910390f35b61026f6107c0565b60405161027c919061228d565b60405180910390f35b61029f600480360381019061029a91906123da565b610852565b005b6102bb60048036038101906102b691906122e5565b610872565b005b6102d760048036038101906102d291906122e5565b6108f4565b6040516102e49190612353565b60405180910390f35b6103076004803603810190610302919061242d565b610906565b6040516103149190612469565b60405180910390f35b6103256109c0565b005b610341600480360381019061033c919061242d565b6109d4565b005b61034b610a20565b6040516103589190612469565b60405180910390f35b610369610a26565b6040516103769190612353565b60405180910390f35b610387610a50565b604051610394919061228d565b60405180910390f35b6103b760048036038101906103b291906124b0565b610ae2565b005b6103c1610af8565b6040516103ce9190612353565b60405180910390f35b6103f160048036038101906103ec9190612625565b610b1e565b6040516103fe9190612469565b60405180910390f35b610421600480360381019061041c9190612722565b610c3c565b005b61042b610c61565b604051610438919061228d565b60405180910390f35b61045b600480360381019061045691906122e5565b610cef565b604051610468919061228d565b60405180910390f35b61048b60048036038101906104869190612625565b610e02565b6040516104989190612469565b60405180910390f35b6104a9610e8f565b6040516104b6919061228d565b60405180910390f35b6104d960048036038101906104d491906127a5565b610f1d565b6040516104e691906121e2565b60405180910390f35b6105096004803603810190610504919061242d565b610fb1565b005b6000634906490660e01b7bffffffffffffffffffffffffffffffffffffffffffffffffffffffff1916827bffffffffffffffffffffffffffffffffffffffffffffffffffffffff19161480610565575061056482611037565b5b9050919050565b60606000805461057b90612814565b80601f01602080910402602001604051908101604052809291908181526020018280546105a790612814565b80156105f45780601f106105c9576101008083540402835291602001916105f4565b820191906000526020600020905b8154815290600101906020018083116105d757829003601f168201915b5050505050905090565b600061060982611119565b50610613826111a1565b9050919050565b61062c82826106276111de565b6111e6565b5050565b600073ffffffffffffffffffffffffffffffffffffffff168273ffffffffffffffffffffffffffffffffffffffff16036106a25760006040517f64a0ae920000000000000000000000000000000000000000000000000000000081526004016106999190612353565b60405180910390fd5b60006106b683836106b16111de565b6111f8565b90508373ffffffffffffffffffffffffffffffffffffffff168173ffffffffffffffffffffffffffffffffffffffff161461072c578382826040517f64283d7b00000000000000000000000000000000000000000000000000000000815260040161072393929190612845565b60405180910390fd5b50505050565b600b805461073f90612814565b80601f016020809104026020016040519081016040528092919081815260200182805461076b90612814565b80156107b85780601f1061078d576101008083540402835291602001916107b8565b820191906000526020600020905b81548152906001019060200180831161079b57829003601f168201915b505050505081565b6060600a80546107cf90612814565b80601f01602080910402602001604051908101604052809291908181526020018280546107fb90612814565b80156108485780601f1061081d57610100808354040283529160200191610848565b820191906000526020600020905b81548152906001019060200180831161082b57829003601f168201915b5050505050905090565b61086d83838360405180602001604052806000815250610c3c565b505050565b3373ffffffffffffffffffffffffffffffffffffffff16610892826108f4565b73ffffffffffffffffffffffffffffffffffffffff16146108e8576040517f08c379a00000000000000000000000000000000000000000000000000000000081526004016108df906128c8565b60405180910390fd5b6108f181611412565b50565b60006108ff82611119565b9050919050565b60008073ffffffffffffffffffffffffffffffffffffffff168273ffffffffffffffffffffffffffffffffffffffff16036109795760006040517f89c62b640000000000000000000000000000000000000000000000000000000081526004016109709190612353565b60405180910390fd5b600360008373ffffffffffffffffffffffffffffffffffffffff1673ffffffffffffffffffffffffffffffffffffffff168152602001908152602001600020549050919050565b6109c8611498565b6109d2600061151f565b565b6109dc611498565b80600960006101000a81548173ffffffffffffffffffffffffffffffffffffffff021916908373ffffffffffffffffffffffffffffffffffffffff16021790555050565b60085481565b6000600760009054906101000a900473ffffffffffffffffffffffffffffffffffffffff16905090565b606060018054610a5f90612814565b80601f0160208091040260200160405190810160405280929190818152602001828054610a8b90612814565b8015610ad85780601f10610aad57610100808354040283529160200191610ad8565b820191906000526020600020905b815481529060010190602001808311610abb57829003601f168201915b5050505050905090565b610af4610aed6111de565b83836115e5565b5050565b600960009054906101000a900473ffffffffffffffffffffffffffffffffffffffff1681565b6000600960009054906101000a900473ffffffffffffffffffffffffffffffffffffffff1673ffffffffffffffffffffffffffffffffffffffff163373ffffffffffffffffffffffffffffffffffffffff1614610bb0576040517f08c379a0000000000000000000000000000000000000000000000000000000008152600401610ba790612934565b60405180910390fd5b6000600854905060086000815480929190610bca90612983565b9190505550610bd98482611754565b610be38184611772565b808473ffffffffffffffffffffffffffffffffffffffff167fe7cd4ce7f2a465edc730269a1305e8a48bad821e8fb7e152ec413829c01a53c485604051610c2a919061228d565b60405180910390a38091505092915050565b610c47848484610630565b610c5b610c526111de565b858585856117ce565b50505050565b600c8054610c6e90612814565b80601f0160208091040260200160405190810160405280929190818152602001828054610c9a90612814565b8015610ce75780601f10610cbc57610100808354040283529160200191610ce7565b820191906000526020600020905b815481529060010190602001808311610cca57829003601f168201915b505050505081565b6060610cfa82611119565b506000600660008481526020019081526020016000208054610d1b90612814565b80601f0160208091040260200160405190810160405280929190818152602001828054610d4790612814565b8015610d945780601f10610d6957610100808354040283529160200191610d94565b820191906000526020600020905b815481529060010190602001808311610d7757829003601f168201915b505050505090506000610da561197f565b90506000815103610dba578192505050610dfd565b600082511115610def578082604051602001610dd7929190612a07565b60405160208183030381529060405292505050610dfd565b610df884611996565b925050505b919050565b600080600854905060086000815480929190610e1d90612983565b9190505550610e2c8482611754565b610e368184611772565b808473ffffffffffffffffffffffffffffffffffffffff167fe7cd4ce7f2a465edc730269a1305e8a48bad821e8fb7e152ec413829c01a53c485604051610e7d919061228d565b60405180910390a38091505092915050565b600a8054610e9c90612814565b80601f0160208091040260200160405190810160405280929190818152602001828054610ec890612814565b8015610f155780601f10610eea57610100808354040283529160200191610f15565b820191906000526020600020905b815481529060010190602001808311610ef857829003601f168201915b505050505081565b6000600560008473ffffffffffffffffffffffffffffffffffffffff1673ffffffffffffffffffffffffffffffffffffffff16815260200190815260200160002060008373ffffffffffffffffffffffffffffffffffffffff1673ffffffffffffffffffffffffffffffffffffffff16815260200190815260200160002060009054906101000a900460ff16905092915050565b610fb9611498565b600073ffffffffffffffffffffffffffffffffffffffff168173ffffffffffffffffffffffffffffffffffffffff160361102b5760006040517f1e4fbdf70000000000000000000000000000000000000000000000000000000081526004016110229190612353565b60405180910390fd5b6110348161151f565b50565b60007f80ac58cd000000000000000000000000000000000000000000000000000000007bffffffffffffffffffffffffffffffffffffffffffffffffffffffff1916827bffffffffffffffffffffffffffffffffffffffffffffffffffffffff1916148061110257507f5b5e139f000000000000000000000000000000000000000000000000000000007bffffffffffffffffffffffffffffffffffffffffffffffffffffffff1916827bffffffffffffffffffffffffffffffffffffffffffffffffffffffff1916145b806111125750611111826119ff565b5b9050919050565b60008061112583611a69565b9050600073ffffffffffffffffffffffffffffffffffffffff168173ffffffffffffffffffffffffffffffffffffffff160361119857826040517f7e27328900000000000000000000000000000000000000000000000000000000815260040161118f9190612469565b60405180910390fd5b80915050919050565b60006004600083815260200190815260200160002060009054906101000a900473ffffffffffffffffffffffffffffffffffffffff169050919050565b600033905090565b6111f38383836001611aa6565b505050565b60008061120484611a69565b9050600073ffffffffffffffffffffffffffffffffffffffff168373ffffffffffffffffffffffffffffffffffffffff161461124657611245818486611c6b565b5b600073ffffffffffffffffffffffffffffffffffffffff168173ffffffffffffffffffffffffffffffffffffffff16146112d757611288600085600080611aa6565b6001600360008373ffffffffffffffffffffffffffffffffffffffff1673ffffffffffffffffffffffffffffffffffffffff168152602001908152602001600020600082825403925050819055505b600073ffffffffffffffffffffffffffffffffffffffff168573ffffffffffffffffffffffffffffffffffffffff161461135a576001600360008773ffffffffffffffffffffffffffffffffffffffff1673ffffffffffffffffffffffffffffffffffffffff168152602001908152602001600020600082825401925050819055505b846002600086815260200190815260200160002060006101000a81548173ffffffffffffffffffffffffffffffffffffffff021916908373ffffffffffffffffffffffffffffffffffffffff160217905550838573ffffffffffffffffffffffffffffffffffffffff168273ffffffffffffffffffffffffffffffffffffffff167fddf252ad1be2c89b69c2b068fc378daa952ba7f163c4a11628f55a4df523b3ef60405160405180910390a4809150509392505050565b600061142160008360006111f8565b9050600073ffffffffffffffffffffffffffffffffffffffff168173ffffffffffffffffffffffffffffffffffffffff160361149457816040517f7e27328900000000000000000000000000000000000000000000000000000000815260040161148b9190612469565b60405180910390fd5b5050565b6114a06111de565b73ffffffffffffffffffffffffffffffffffffffff166114be610a26565b73ffffffffffffffffffffffffffffffffffffffff161461151d576114e16111de565b6040517f118cdaa70000000000000000000000000000000000000000000000000000000081526004016115149190612353565b60405180910390fd5b565b6000600760009054906101000a900473ffffffffffffffffffffffffffffffffffffffff16905081600760006101000a81548173ffffffffffffffffffffffffffffffffffffffff021916908373ffffffffffffffffffffffffffffffffffffffff1602179055508173ffffffffffffffffffffffffffffffffffffffff168173ffffffffffffffffffffffffffffffffffffffff167f8be0079c531659141344cd1fd0a4f28419497f9722a3daafe3b4186f6b6457e060405160405180910390a35050565b600073ffffffffffffffffffffffffffffffffffffffff168273ffffffffffffffffffffffffffffffffffffffff160361165657816040517f5b08ba1800000000000000000000000000000000000000000000000000000000815260040161164d9190612353565b60405180910390fd5b80600560008573ffffffffffffffffffffffffffffffffffffffff1673ffffffffffffffffffffffffffffffffffffffff16815260200190815260200160002060008473ffffffffffffffffffffffffffffffffffffffff1673ffffffffffffffffffffffffffffffffffffffff16815260200190815260200160002060006101000a81548160ff0219169083151502179055508173ffffffffffffffffffffffffffffffffffffffff168373ffffffffffffffffffffffffffffffffffffffff167f17307eab39ab6107e8899845ad3d59bd9653f200f220920489ca2b5937696c318360405161174791906121e2565b60405180910390a3505050565b61176e828260405180602001604052806000815250611d2f565b5050565b806006600084815260200190815260200160002090816117929190612bd7565b507ff8e1a15aba9398e019f0b49df1a4fde98ee17ae345cb5f6b5e2c27f5033e8ce7826040516117c29190612469565b60405180910390a15050565b60008373ffffffffffffffffffffffffffffffffffffffff163b1115611978578273ffffffffffffffffffffffffffffffffffffffff1663150b7a02868685856040518563ffffffff1660e01b815260040161182d9493929190612cfe565b6020604051808303816000875af192505050801561186957506040513d601f19601f820116820180604052508101906118669190612d5f565b60015b6118ed573d8060008114611899576040519150601f19603f3d011682016040523d82523d6000602084013e61189e565b606091505b5060008151036118e557836040517f64a0ae920000000000000000000000000000000000000000000000000000000081526004016118dc9190612353565b60405180910390fd5b805160208201fd5b63150b7a0260e01b7bffffffffffffffffffffffffffffffffffffffffffffffffffffffff1916817bffffffffffffffffffffffffffffffffffffffffffffffffffffffff19161461197657836040517f64a0ae9200000000000000000000000000000000000000000000000000000000815260040161196d9190612353565b60405180910390fd5b505b5050505050565b606060405180602001604052806000815250905090565b60606119a182611119565b5060006119ac61197f565b905060008151116119cc57604051806020016040528060008152506119f7565b806119d684611d53565b6040516020016119e7929190612a07565b6040516020818303038152906040525b915050919050565b60007f01ffc9a7000000000000000000000000000000000000000000000000000000007bffffffffffffffffffffffffffffffffffffffffffffffffffffffff1916827bffffffffffffffffffffffffffffffffffffffffffffffffffffffff1916149050919050565b60006002600083815260200190815260200160002060009054906101000a900473ffffffffffffffffffffffffffffffffffffffff169050919050565b8080611adf5750600073ffffffffffffffffffffffffffffffffffffffff168273ffffffffffffffffffffffffffffffffffffffff1614155b15611c13576000611aef84611119565b9050600073ffffffffffffffffffffffffffffffffffffffff168373ffffffffffffffffffffffffffffffffffffffff1614158015611b5a57508273ffffffffffffffffffffffffffffffffffffffff168173ffffffffffffffffffffffffffffffffffffffff1614155b8015611b6d5750611b6b8184610f1d565b155b15611baf57826040517fa9fbf51f000000000000000000000000000000000000000000000000000000008152600401611ba69190612353565b60405180910390fd5b8115611c1157838573ffffffffffffffffffffffffffffffffffffffff168273ffffffffffffffffffffffffffffffffffffffff167f8c5be1e5ebec7d5bd14f71427d1e84f3dd0314c0f7b2291e5b200ac8c7c3b92560405160405180910390a45b505b836004600085815260200190815260200160002060006101000a81548173ffffffffffffffffffffffffffffffffffffffff021916908373ffffffffffffffffffffffffffffffffffffffff16021790555050505050565b611c76838383611e21565b611d2a57600073ffffffffffffffffffffffffffffffffffffffff168373ffffffffffffffffffffffffffffffffffffffff1603611ceb57806040517f7e273289000000000000000000000000000000000000000000000000000000008152600401611ce29190612469565b60405180910390fd5b81816040517f177e802f000000000000000000000000000000000000000000000000000000008152600401611d21929190612d8c565b60405180910390fd5b505050565b611d398383611ee2565b611d4e611d446111de565b60008585856117ce565b505050565b606060006001611d6284611fdb565b01905060008167ffffffffffffffff811115611d8157611d806124fa565b5b6040519080825280601f01601f191660200182016040528015611db35781602001600182028036833780820191505090505b509050600082602083010190505b600115611e16578080600190039150507f3031323334353637383961626364656600000000000000000000000000000000600a86061a8153600a8581611e0a57611e09612db5565b5b04945060008503611dc1575b819350505050919050565b60008073ffffffffffffffffffffffffffffffffffffffff168373ffffffffffffffffffffffffffffffffffffffff1614158015611ed957508273ffffffffffffffffffffffffffffffffffffffff168473ffffffffffffffffffffffffffffffffffffffff161480611e9a5750611e998484610f1d565b5b80611ed857508273ffffffffffffffffffffffffffffffffffffffff16611ec0836111a1565b73ffffffffffffffffffffffffffffffffffffffff16145b5b90509392505050565b600073ffffffffffffffffffffffffffffffffffffffff168273ffffffffffffffffffffffffffffffffffffffff1603611f545760006040517f64a0ae92000000000000000000000000000000000000000000000000000000008152600401611f4b9190612353565b60405180910390fd5b6000611f62838360006111f8565b9050600073ffffffffffffffffffffffffffffffffffffffff168173ffffffffffffffffffffffffffffffffffffffff1614611fd65760006040517f73c6ac6e000000000000000000000000000000000000000000000000000000008152600401611fcd9190612353565b60405180910390fd5b505050565b600080600090507a184f03e93ff9f4daa797ed6e38ed64bf6a1f0100000000000000008310612039577a184f03e93ff9f4daa797ed6e38ed64bf6a1f010000000000000000838161202f5761202e612db5565b5b0492506040810190505b6d04ee2d6d415b85acef81000000008310612076576d04ee2d6d415b85acef8100000000838161206c5761206b612db5565b5b0492506020810190505b662386f26fc1000083106120a557662386f26fc10000838161209b5761209a612db5565b5b0492506010810190505b6305f5e10083106120ce576305f5e10083816120c4576120c3612db5565b5b0492506008810190505b61271083106120f35761271083816120e9576120e8612db5565b5b0492506004810190505b60648310612116576064838161210c5761210b612db5565b5b0492506002810190505b600a8310612125576001810190505b80915050919050565b6000604051905090565b600080fd5b600080fd5b60007fffffffff0000000000000000000000000000000000000000000000000000000082169050919050565b61217781612142565b811461218257600080fd5b50565b6000813590506121948161216e565b92915050565b6000602082840312156121b0576121af612138565b5b60006121be84828501612185565b91505092915050565b60008115159050919050565b6121dc816121c7565b82525050565b60006020820190506121f760008301846121d3565b92915050565b600081519050919050565b600082825260208201905092915050565b60005b8381101561223757808201518184015260208101905061221c565b60008484015250505050565b6000601f19601f8301169050919050565b600061225f826121fd565b6122698185612208565b9350612279818560208601612219565b61228281612243565b840191505092915050565b600060208201905081810360008301526122a78184612254565b905092915050565b6000819050919050565b6122c2816122af565b81146122cd57600080fd5b50565b6000813590506122df816122b9565b92915050565b6000602082840312156122fb576122fa612138565b5b6000612309848285016122d0565b91505092915050565b600073ffffffffffffffffffffffffffffffffffffffff82169050919050565b600061233d82612312565b9050919050565b61234d81612332565b82525050565b60006020820190506123686000830184612344565b92915050565b61237781612332565b811461238257600080fd5b50565b6000813590506123948161236e565b92915050565b600080604083850312156123b1576123b0612138565b5b60006123bf85828601612385565b92505060206123d0858286016122d0565b9150509250929050565b6000806000606084860312156123f3576123f2612138565b5b600061240186828701612385565b935050602061241286828701612385565b9250506040612423868287016122d0565b9150509250925092565b60006020828403121561244357612442612138565b5b600061245184828501612385565b91505092915050565b612463816122af565b82525050565b600060208201905061247e600083018461245a565b92915050565b61248d816121c7565b811461249857600080fd5b50565b6000813590506124aa81612484565b92915050565b600080604083850312156124c7576124c6612138565b5b60006124d585828601612385565b92505060206124e68582860161249b565b9150509250929050565b600080fd5b600080fd5b7f4e487b7100000000000000000000000000000000000000000000000000000000600052604160045260246000fd5b61253282612243565b810181811067ffffffffffffffff82111715612551576125506124fa565b5b80604052505050565b600061256461212e565b90506125708282612529565b919050565b600067ffffffffffffffff8211156125905761258f6124fa565b5b61259982612243565b9050602081019050919050565b82818337600083830152505050565b60006125c86125c384612575565b61255a565b9050828152602081018484840111156125e4576125e36124f5565b5b6125ef8482856125a6565b509392505050565b600082601f83011261260c5761260b6124f0565b5b813561261c8482602086016125b5565b91505092915050565b6000806040838503121561263c5761263b612138565b5b600061264a85828601612385565b925050602083013567ffffffffffffffff81111561266b5761266a61213d565b5b612677858286016125f7565b9150509250929050565b600067ffffffffffffffff82111561269c5761269b6124fa565b5b6126a582612243565b9050602081019050919050565b60006126c56126c084612681565b61255a565b9050828152602081018484840111156126e1576126e06124f5565b5b6126ec8482856125a6565b509392505050565b600082601f830112612709576127086124f0565b5b81356127198482602086016126b2565b91505092915050565b6000806000806080858703121561273c5761273b612138565b5b600061274a87828801612385565b945050602061275b87828801612385565b935050604061276c878288016122d0565b925050606085013567ffffffffffffffff81111561278d5761278c61213d565b5b612799878288016126f4565b91505092959194509250565b600080604083850312156127bc576127bb612138565b5b60006127ca85828601612385565b92505060206127db85828601612385565b9150509250929050565b7f4e487b7100000000000000000000000000000000000000000000000000000000600052602260045260246000fd5b6000600282049050600182168061282c57607f821691505b60208210810361283f5761283e6127e5565b5b50919050565b600060608201905061285a6000830186612344565b612867602083018561245a565b6128746040830184612344565b949350505050565b7f4e6f74206f776e65720000000000000000000000000000000000000000000000600082015250565b60006128b2600983612208565b91506128bd8261287c565b602082019050919050565b600060208201905081810360008301526128e1816128a5565b9050919050565b7f4e6f74206d61726b6574706c6163650000000000000000000000000000000000600082015250565b600061291e600f83612208565b9150612929826128e8565b602082019050919050565b6000602082019050818103600083015261294d81612911565b9050919050565b7f4e487b7100000000000000000000000000000000000000000000000000000000600052601160045260246000fd5b600061298e826122af565b91507fffffffffffffffffffffffffffffffffffffffffffffffffffffffffffffffff82036129c0576129bf612954565b5b600182019050919050565b600081905092915050565b60006129e1826121fd565b6129eb81856129cb565b93506129fb818560208601612219565b80840191505092915050565b6000612a1382856129d6565b9150612a1f82846129d6565b91508190509392505050565b60008190508160005260206000209050919050565b60006020601f8301049050919050565b600082821b905092915050565b600060088302612a8d7fffffffffffffffffffffffffffffffffffffffffffffffffffffffffffffffff82612a50565b612a978683612a50565b95508019841693508086168417925050509392505050565b6000819050919050565b6000612ad4612acf612aca846122af565b612aaf565b6122af565b9050919050565b6000819050919050565b612aee83612ab9565b612b02612afa82612adb565b848454612a5d565b825550505050565b600090565b612b17612b0a565b612b22818484612ae5565b505050565b5b81811015612b4657612b3b600082612b0f565b600181019050612b28565b5050565b601f821115612b8b57612b5c81612a2b565b612b6584612a40565b81016020851015612b74578190505b612b88612b8085612a40565b830182612b27565b50505b505050565b600082821c905092915050565b6000612bae60001984600802612b90565b1980831691505092915050565b6000612bc78383612b9d565b9150826002028217905092915050565b612be0826121fd565b67ffffffffffffffff811115612bf957612bf86124fa565b5b612c038254612814565b612c0e828285612b4a565b600060209050601f831160018114612c415760008415612c2f578287015190505b612c398582612bbb565b865550612ca1565b601f198416612c4f86612a2b565b60005b82811015612c7757848901518255600182019150602085019450602081019050612c52565b86831015612c945784890151612c90601f891682612b9d565b8355505b6001600288020188555050505b505050505050565b600081519050919050565b600082825260208201905092915050565b6000612cd082612ca9565b612cda8185612cb4565b9350612cea818560208601612219565b612cf381612243565b840191505092915050565b6000608082019050612d136000830187612344565b612d206020830186612344565b612d2d604083018561245a565b8181036060830152612d3f8184612cc5565b905095945050505050565b600081519050612d598161216e565b92915050565b600060208284031215612d7557612d74612138565b5b6000612d8384828501612d4a565b91505092915050565b6000604082019050612da16000830185612344565b612dae602083018461245a565b9392505050565b7f4e487b7100000000000000000000000000000000000000000000000000000000600052601260045260246000fdfea2646970667358221220ba012cf4e4b0aa13b0623b1ab0a2374b2f008c60713f4a9bc2c12fb90cbedc9b64736f6c634300081c0033",
  "linkReferences": {},
  "deployedLinkReferences": {}
}