{
  "_format": "hh-sol-artifact-1",
  "contractName": "NFT",
  "sourceName": "contracts/Token.sol",
  "abi": [
    {
      "inputs": [
        {
          "internalType": "string",
          "name": "_name",
          "type": "string"
        },
        {
          "internalType": "string",
          "name": "_symbol",
          "type": "string"
        },
        {
          "internalType": "string",
          "name": "_cover",
          "type": "string"
        },
        {
          "internalType": "address",
          "name": "_creator",
          "type": "address"
        }
      ],
      "stateMutability": "nonpayable",
      "type": "constructor"
    },
    {
      "inputs": [
        {
          "internalType": "address",
          "name": "sender",
          "type": "address"
        },
        {
          "internalType": "uint256",
          "name": "tokenId",
          "type": "uint256"
        },
        {
          "internalType": "address",
          "name": "owner",
          "type": "address"
        }
      ],
      "name": "ERC721IncorrectOwner",
      "type": "error"
    },
    {
      "inputs": [
        {
          "internalType": "address",
          "name": "operator",
          "type": "address"
        },
        {
          "internalType": "uint256",
          "name": "tokenId",
          "type": "uint256"
        }
      ],
      "name": "ERC721InsufficientApproval",
      "type": "error"
    },
    {
      "inputs": [
        {
          "internalType": "address",
          "name": "approver",
          "type": "address"
        }
      ],
      "name": "ERC721InvalidApprover",
      "type": "error"
    },
    {
      "inputs": [
        {
          "internalType": "address",
          "name": "operator",
          "type": "address"
        }
      ],
      "name": "ERC721InvalidOperator",
      "type": "error"
    },
    {
      "inputs": [
        {
          "internalType": "address",
          "name": "owner",
          "type": "address"
        }
      ],
      "name": "ERC721InvalidOwner",
      "type": "error"
    },
    {
      "inputs": [
        {
          "internalType": "address",
          "name": "receiver",
          "type": "address"
        }
      ],
      "name": "ERC721InvalidReceiver",
      "type": "error"
    },
    {
      "inputs": [
        {
          "internalType": "address",
          "name": "sender",
          "type": "address"
        }
      ],
      "name": "ERC721InvalidSender",
      "type": "error"
    },
    {
      "inputs": [
        {
          "internalType": "uint256",
          "name": "tokenId",
          "type": "uint256"
        }
      ],
      "name": "ERC721NonexistentToken",
      "type": "error"
    },
    {
      "inputs": [
        {
          "internalType": "address",
          "name": "owner",
          "type": "address"
        }
      ],
      "name": "OwnableInvalidOwner",
      "type": "error"
    },
    {
      "inputs": [
        {
          "internalType": "address",
          "name": "account",
          "type": "address"
        }
      ],
      "name": "OwnableUnauthorizedAccount",
      "type": "error"
    },
    {
      "anonymous": false,
      "inputs": [
        {
          "indexed": true,
          "internalType": "address",
          "name": "owner",
          "type": "address"
        },
        {
          "indexed": true,
          "internalType": "address",
          "name": "approved",
          "type": "address"
        },
        {
          "indexed": true,
          "internalType": "uint256",
          "name": "tokenId",
          "type": "uint256"
        }
      ],
      "name": "Approval",
      "type": "event"
    },
    {
      "anonymous": false,
      "inputs": [
        {
          "indexed": true,
          "internalType": "address",
          "name": "owner",
          "type": "address"
        },
        {
          "indexed": true,
          "internalType": "address",
          "name": "operator",
          "type": "address"
        },
        {
          "indexed": false,
          "internalType": "bool",
          "name": "approved",
          "type": "bool"
        }
      ],
      "name": "ApprovalForAll",
      "type": "event"
    },
    {
      "anonymous": false,
      "inputs": [
        {
          "indexed": false,
          "internalType": "uint256",
          "name": "_fromTokenId",
          "type": "uint256"
        },
        {
          "indexed": false,
          "internalType": "uint256",
          "name": "_toTokenId",
          "type": "uint256"
        }
      ],
      "name": "BatchMetadataUpdate",
      "type": "event"
    },
    {
      "anonymous": false,
      "inputs": [
        {
          "indexed": false,
          "internalType": "uint256",
          "name": "_tokenId",
          "type": "uint256"
        }
      ],
      "name": "MetadataUpdate",
      "type": "event"
    },
    {
      "anonymous": false,
      "inputs": [
        {
          "indexed": true,
          "internalType": "address",
          "name": "to",
          "type": "address"
        },
        {
          "indexed": true,
          "internalType": "uint256",
          "name": "tokenId",
          "type": "uint256"
        },
        {
          "indexed": false,
          "internalType": "string",
          "name": "tokenURI",
          "type": "string"
        }
      ],
      "name": "Minted",
      "type": "event"
    },
    {
      "anonymous": false,
      "inputs": [
        {
          "indexed": true,
          "internalType": "address",
          "name": "previousOwner",
          "type": "address"
        },
        {
          "indexed": true,
          "internalType": "address",
          "name": "newOwner",
          "type": "address"
        }
      ],
      "name": "OwnershipTransferred",
      "type": "event"
    },
    {
      "anonymous": false,
      "inputs": [
        {
          "indexed": true,
          "internalType": "address",
          "name": "from",
          "type": "address"
        },
        {
          "indexed": true,
          "internalType": "address",
          "name": "to",
          "type": "address"
        },
        {
          "indexed": true,
          "internalType": "uint256",
          "name": "tokenId",
          "type": "uint256"
        }
      ],
      "name": "Transfer",
      "type": "event"
    },
    {
      "inputs": [
        {
          "internalType": "address",
          "name": "to",
          "type": "address"
        },
        {
          "internalType": "uint256",
          "name": "tokenId",
          "type": "uint256"
        }
      ],
      "name": "approve",
      "outputs": [],
      "stateMutability": "nonpayable",
      "type": "function"
    },
    {
      "inputs": [
        {
          "internalType": "address",
          "name": "owner",
          "type": "address"
        }
      ],
      "name": "balanceOf",
      "outputs": [
        {
          "internalType": "uint256",
          "name": "",
          "type": "uint256"
        }
      ],
      "stateMutability": "view",
      "type": "function"
    },
    {
      "inputs": [
        {
          "internalType": "uint256",
          "name": "tokenId",
          "type": "uint256"
        }
      ],
      "name": "burn",
      "outputs": [],
      "stateMutability": "nonpayable",
      "type": "function"
    },
    {
      "inputs": [],
      "name": "collectionCover",
      "outputs": [
        {
          "internalType": "string",
          "name": "",
          "type": "string"
        }
      ],
      "stateMutability": "view",
      "type": "function"
    },
    {
      "inputs": [],
      "name": "collectionName",
      "outputs": [
        {
          "internalType": "string",
          "name": "",
          "type": "string"
        }
      ],
      "stateMutability": "view",
      "type": "function"
    },
    {
      "inputs": [],
      "name": "collectionSymbol",
      "outputs": [
        {
          "internalType": "string",
          "name": "",
          "type": "string"
        }
      ],
      "stateMutability": "view",
      "type": "function"
    },
    {
      "inputs": [
        {
          "internalType": "uint256",
          "name": "tokenId",
          "type": "uint256"
        }
      ],
      "name": "getApproved",
      "outputs": [
        {
          "internalType": "address",
          "name": "",
          "type": "address"
        }
      ],
      "stateMutability": "view",
      "type": "function"
    },
    {
      "inputs": [],
      "name": "getCollectionName",
      "outputs": [
        {
          "internalType": "string",
          "name": "",
          "type": "string"
        }
      ],
      "stateMutability": "view",
      "type": "function"
    },
    {
      "inputs": [
        {
          "internalType": "address",
          "name": "owner",
          "type": "address"
        },
        {
          "internalType": "address",
          "name": "operator",
          "type": "address"
        }
      ],
      "name": "isApprovedForAll",
      "outputs": [
        {
          "internalType": "bool",
          "name": "",
          "type": "bool"
        }
      ],
      "stateMutability": "view",
      "type": "function"
    },
    {
      "inputs": [],
      "name": "marketplace",
      "outputs": [
        {
          "internalType": "address",
          "name": "",
          "type": "address"
        }
      ],
      "stateMutability": "view",
      "type": "function"
    },
    {
      "inputs": [
        {
          "internalType": "address",
          "name": "to",
          "type": "address"
        },
        {
          "internalType": "string",
          "name": "uri",
          "type": "string"
        }
      ],
      "name": "mint",
      "outputs": [
        {
          "internalType": "uint256",
          "name": "",
          "type": "uint256"
        }
      ],
      "stateMutability": "nonpayable",
      "type": "function"
    },
    {
      "inputs": [
        {
          "internalType": "address",
          "name": "to",
          "type": "address"
        },
        {
          "internalType": "string",
          "name": "uri",
          "type": "string"
        }
      ],
      "name": "mintFromMarketplace",
      "outputs": [
        {
          "internalType": "uint256",
          "name": "",
          "type": "uint256"
        }
      ],
      "stateMutability": "nonpayable",
      "type": "function"
    },
    {
      "inputs": [],
      "name": "name",
      "outputs": [
        {
          "internalType": "string",
          "name": "",
          "type": "string"
        }
      ],
      "stateMutability": "view",
      "type": "function"
    },
    {
      "inputs": [],
      "name": "nextTokenId",
      "outputs": [
        {
          "internalType": "uint256",
          "name": "",
          "type": "uint256"
        }
      ],
      "stateMutability": "view",
      "type": "function"
    },
    {
      "inputs": [],
      "name": "owner",
      "outputs": [
        {
          "internalType": "address",
          "name": "",
          "type": "address"
        }
      ],
      "stateMutability": "view",
      "type": "function"
    },
    {
      "inputs": [
        {
          "internalType": "uint256",
          "name": "tokenId",
          "type": "uint256"
        }
      ],
      "name": "ownerOf",
      "outputs": [
        {
          "internalType": "address",
          "name": "",
          "type": "address"
        }
      ],
      "stateMutability": "view",
      "type": "function"
    },
    {
      "inputs": [],
      "name": "renounceOwnership",
      "outputs": [],
      "stateMutability": "nonpayable",
      "type": "function"
    },
    {
      "inputs": [
        {
          "internalType": "address",
          "name": "from",
          "type": "address"
        },
        {
          "internalType": "address",
          "name": "to",
          "type": "address"
        },
        {
          "internalType": "uint256",
          "name": "tokenId",
          "type": "uint256"
        }
      ],
      "name": "safeTransferFrom",
      "outputs": [],
      "stateMutability": "nonpayable",
      "type": "function"
    },
    {
      "inputs": [
        {
          "internalType": "address",
          "name": "from",
          "type": "address"
        },
        {
          "internalType": "address",
          "name": "to",
          "type": "address"
        },
        {
          "internalType": "uint256",
          "name": "tokenId",
          "type": "uint256"
        },
        {
          "internalType": "bytes",
          "name": "data",
          "type": "bytes"
        }
      ],
      "name": "safeTransferFrom",
      "outputs": [],
      "stateMutability": "nonpayable",
      "type": "function"
    },
    {
      "inputs": [
        {
          "internalType": "address",
          "name": "operator",
          "type": "address"
        },
        {
          "internalType": "bool",
          "name": "approved",
          "type": "bool"
        }
      ],
      "name": "setApprovalForAll",
      "outputs": [],
      "stateMutability": "nonpayable",
      "type": "function"
    },
    {
      "inputs": [
        {
          "internalType": "address",
          "name": "_marketplace",
          "type": "address"
        }
      ],
      "name": "setMarketplace",
      "outputs": [],
      "stateMutability": "nonpayable",
      "type": "function"
    },
    {
      "inputs": [
        {
          "internalType": "bytes4",
          "name": "interfaceId",
          "type": "bytes4"
        }
      ],
      "name": "supportsInterface",
      "outputs": [
        {
          "internalType": "bool",
          "name": "",
          "type": "bool"
        }
      ],
      "stateMutability": "view",
      "type": "function"
    },
    {
      "inputs": [],
      "name": "symbol",
      "outputs": [
        {
          "internalType": "string",
          "name": "",
          "type": "string"
        }
      ],
      "stateMutability": "view",
      "type": "function"
    },
    {
      "inputs": [
        {
          "internalType": "uint256",
          "name": "tokenId",
          "type": "uint256"
        }
      ],
      "name": "tokenURI",
      "outputs": [
        {
          "internalType": "string",
          "name": "",
          "type": "string"
        }
      ],
      "stateMutability": "view",
      "type": "function"
    },
    {
      "inputs": [
        {
          "internalType": "address",
          "name": "from",
          "type": "address"
        },
        {
          "internalType": "address",
          "name": "to",
          "type": "address"
        },
        {
          "internalType": "uint256",
          "name": "tokenId",
          "type": "uint256"
        }
      ],
      "name": "transferFrom",
      "outputs": [],
      "stateMutability": "nonpayable",
      "type": "function"
    },
    {
      "inputs": [
        {
          "internalType": "address",
          "name": "newOwner",
          "type": "address"
        }
      ],
      "name": "transferOwnership",
      "outputs": [],
      "stateMutability": "nonpayable",
      "type": "function"
    }
  ],
  "bytecode": "0x608060405234801561001057600080fd5b506040516136e63803806136e6833981810160405281019061003291906103ab565b80848481600090816100449190610687565b5080600190816100549190610687565b505050600073ffffffffffffffffffffffffffffffffffffffff168173ffffffffffffffffffffffffffffffffffffffff16036100c95760006040517f1e4fbdf70000000000000000000000000000000000000000000000000000000081526004016100c09190610768565b60405180910390fd5b6100d88161011260201b60201c565b5083600a90816100e89190610687565b5082600b90816100f89190610687565b5081600c90816101089190610687565b5050505050610783565b6000600760009054906101000a900473ffffffffffffffffffffffffffffffffffffffff16905081600760006101000a81548173ffffffffffffffffffffffffffffffffffffffff021916908373ffffffffffffffffffffffffffffffffffffffff1602179055508173ffffffffffffffffffffffffffffffffffffffff168173ffffffffffffffffffffffffffffffffffffffff167f8be0079c531659141344cd1fd0a4f28419497f9722a3daafe3b4186f6b6457e060405160405180910390a35050565b6000604051905090565b600080fd5b600080fd5b600080fd5b600080fd5b6000601f19601f8301169050919050565b7f4e487b7100000000000000000000000000000000000000000000000000000000600052604160045260246000fd5b61023f826101f6565b810181811067ffffffffffffffff8211171561025e5761025d610207565b5b80604052505050565b60006102716101d8565b905061027d8282610236565b919050565b600067ffffffffffffffff82111561029d5761029c610207565b5b6102a6826101f6565b9050602081019050919050565b60005b838110156102d15780820151818401526020810190506102b6565b60008484015250505050565b60006102f06102eb84610282565b610267565b90508281526020810184848401111561030c5761030b6101f1565b5b6103178482856102b3565b509392505050565b600082601f830112610334576103336101ec565b5b81516103448482602086016102dd565b91505092915050565b600073ffffffffffffffffffffffffffffffffffffffff82169050919050565b60006103788261034d565b9050919050565b6103888161036d565b811461039357600080fd5b50565b6000815190506103a58161037f565b92915050565b600080600080608085870312156103c5576103c46101e2565b5b600085015167ffffffffffffffff8111156103e3576103e26101e7565b5b6103ef8782880161031f565b945050602085015167ffffffffffffffff8111156104105761040f6101e7565b5b61041c8782880161031f565b935050604085015167ffffffffffffffff81111561043d5761043c6101e7565b5b6104498782880161031f565b925050606061045a87828801610396565b91505092959194509250565b600081519050919050565b7f4e487b7100000000000000000000000000000000000000000000000000000000600052602260045260246000fd5b600060028204905060018216806104b857607f821691505b6020821081036104cb576104ca610471565b5b50919050565b60008190508160005260206000209050919050565b60006020601f8301049050919050565b600082821b905092915050565b6000600883026105337fffffffffffffffffffffffffffffffffffffffffffffffffffffffffffffffff826104f6565b61053d86836104f6565b95508019841693508086168417925050509392505050565b6000819050919050565b6000819050919050565b600061058461057f61057a84610555565b61055f565b610555565b9050919050565b6000819050919050565b61059e83610569565b6105b26105aa8261058b565b848454610503565b825550505050565b600090565b6105c76105ba565b6105d2818484610595565b505050565b5b818110156105f6576105eb6000826105bf565b6001810190506105d8565b5050565b601f82111561063b5761060c816104d1565b610615846104e6565b81016020851015610624578190505b610638610630856104e6565b8301826105d7565b50505b505050565b600082821c905092915050565b600061065e60001984600802610640565b1980831691505092915050565b6000610677838361064d565b9150826002028217905092915050565b61069082610466565b67ffffffffffffffff8111156106a9576106a8610207565b5b6106b382546104a0565b6106be8282856105fa565b600060209050601f8311600181146106f157600084156106df578287015190505b6106e9858261066b565b865550610751565b601f1984166106ff866104d1565b60005b8281101561072757848901518255600182019150602085019450602081019050610702565b868310156107445784890151610740601f89168261064d565b8355505b6001600288020188555050505b505050505050565b6107628161036d565b82525050565b600060208201905061077d6000830184610759565b92915050565b612f54806107926000396000f3fe608060405234801561001057600080fd5b506004361061018e5760003560e01c806375794a3c116100de578063b88d4fde11610097578063d0def52111610071578063d0def52114610471578063e5326ab1146104a1578063e985e9c5146104bf578063f2fde38b146104ef5761018e565b8063b88d4fde14610407578063c155f3b114610423578063c87b56dd146104415761018e565b806375794a3c146103435780638da5cb5b1461036157806395d89b411461037f578063a22cb4651461039d578063abc8c7af146103b9578063b04eec59146103d75761018e565b806332045a851161014b5780636352211e116101255780636352211e146102bd57806370a08231146102ed578063715018a61461031d57806373ad6c2d146103275761018e565b806332045a851461026757806342842e0e1461028557806342966c68146102a15761018e565b806301ffc9a71461019357806306fdde03146101c3578063081812fc146101e1578063095ea7b31461021157806323b872dd1461022d5780632f39352a14610249575b600080fd5b6101ad60048036038101906101a89190612268565b61050b565b6040516101ba91906122b0565b60405180910390f35b6101cb61056c565b6040516101d8919061235b565b60405180910390f35b6101fb60048036038101906101f691906123b3565b6105fe565b6040516102089190612421565b60405180910390f35b61022b60048036038101906102269190612468565b61061a565b005b610247600480360381019061024291906124a8565b610630565b005b610251610732565b60405161025e919061235b565b60405180910390f35b61026f6107c0565b60405161027c919061235b565b60405180910390f35b61029f600480360381019061029a91906124a8565b610852565b005b6102bb60048036038101906102b691906123b3565b610872565b005b6102d760048036038101906102d291906123b3565b6108f4565b6040516102e49190612421565b60405180910390f35b610307600480360381019061030291906124fb565b610906565b6040516103149190612537565b60405180910390f35b6103256109c0565b005b610341600480360381019061033c91906124fb565b6109d4565b005b61034b610a20565b6040516103589190612537565b60405180910390f35b610369610a26565b6040516103769190612421565b60405180910390f35b610387610a50565b604051610394919061235b565b60405180910390f35b6103b760048036038101906103b2919061257e565b610ae2565b005b6103c1610af8565b6040516103ce9190612421565b60405180910390f35b6103f160048036038101906103ec91906126f3565b610b1e565b6040516103fe9190612537565b60405180910390f35b610421600480360381019061041c91906127f0565b610c3c565b005b61042b610c61565b604051610438919061235b565b60405180910390f35b61045b600480360381019061045691906123b3565b610cef565b604051610468919061235b565b60405180910390f35b61048b600480360381019061048691906126f3565b610e02565b6040516104989190612537565b60405180910390f35b6104a9610f5d565b6040516104b6919061235b565b60405180910390f35b6104d960048036038101906104d49190612873565b610feb565b6040516104e691906122b0565b60405180910390f35b610509600480360381019061050491906124fb565b61107f565b005b6000634906490660e01b7bffffffffffffffffffffffffffffffffffffffffffffffffffffffff1916827bffffffffffffffffffffffffffffffffffffffffffffffffffffffff19161480610565575061056482611105565b5b9050919050565b60606000805461057b906128e2565b80601f01602080910402602001604051908101604052809291908181526020018280546105a7906128e2565b80156105f45780601f106105c9576101008083540402835291602001916105f4565b820191906000526020600020905b8154815290600101906020018083116105d757829003601f168201915b5050505050905090565b6000610609826111e7565b506106138261126f565b9050919050565b61062c82826106276112ac565b6112b4565b5050565b600073ffffffffffffffffffffffffffffffffffffffff168273ffffffffffffffffffffffffffffffffffffffff16036106a25760006040517f64a0ae920000000000000000000000000000000000000000000000000000000081526004016106999190612421565b60405180910390fd5b60006106b683836106b16112ac565b6112c6565b90508373ffffffffffffffffffffffffffffffffffffffff168173ffffffffffffffffffffffffffffffffffffffff161461072c578382826040517f64283d7b00000000000000000000000000000000000000000000000000000000815260040161072393929190612913565b60405180910390fd5b50505050565b600b805461073f906128e2565b80601f016020809104026020016040519081016040528092919081815260200182805461076b906128e2565b80156107b85780601f1061078d576101008083540402835291602001916107b8565b820191906000526020600020905b81548152906001019060200180831161079b57829003601f168201915b505050505081565b6060600a80546107cf906128e2565b80601f01602080910402602001604051908101604052809291908181526020018280546107fb906128e2565b80156108485780601f1061081d57610100808354040283529160200191610848565b820191906000526020600020905b81548152906001019060200180831161082b57829003601f168201915b5050505050905090565b61086d83838360405180602001604052806000815250610c3c565b505050565b3373ffffffffffffffffffffffffffffffffffffffff16610892826108f4565b73ffffffffffffffffffffffffffffffffffffffff16146108e8576040517f08c379a00000000000000000000000000000000000000000000000000000000081526004016108df90612996565b60405180910390fd5b6108f1816114e0565b50565b60006108ff826111e7565b9050919050565b60008073ffffffffffffffffffffffffffffffffffffffff168273ffffffffffffffffffffffffffffffffffffffff16036109795760006040517f89c62b640000000000000000000000000000000000000000000000000000000081526004016109709190612421565b60405180910390fd5b600360008373ffffffffffffffffffffffffffffffffffffffff1673ffffffffffffffffffffffffffffffffffffffff168152602001908152602001600020549050919050565b6109c8611566565b6109d260006115ed565b565b6109dc611566565b80600960006101000a81548173ffffffffffffffffffffffffffffffffffffffff021916908373ffffffffffffffffffffffffffffffffffffffff16021790555050565b60085481565b6000600760009054906101000a900473ffffffffffffffffffffffffffffffffffffffff16905090565b606060018054610a5f906128e2565b80601f0160208091040260200160405190810160405280929190818152602001828054610a8b906128e2565b8015610ad85780601f10610aad57610100808354040283529160200191610ad8565b820191906000526020600020905b815481529060010190602001808311610abb57829003601f168201915b5050505050905090565b610af4610aed6112ac565b83836116b3565b5050565b600960009054906101000a900473ffffffffffffffffffffffffffffffffffffffff1681565b6000600960009054906101000a900473ffffffffffffffffffffffffffffffffffffffff1673ffffffffffffffffffffffffffffffffffffffff163373ffffffffffffffffffffffffffffffffffffffff1614610bb0576040517f08c379a0000000000000000000000000000000000000000000000000000000008152600401610ba790612a02565b60405180910390fd5b6000600854905060086000815480929190610bca90612a51565b9190505550610bd98482611822565b610be38184611840565b808473ffffffffffffffffffffffffffffffffffffffff167fe7cd4ce7f2a465edc730269a1305e8a48bad821e8fb7e152ec413829c01a53c485604051610c2a919061235b565b60405180910390a38091505092915050565b610c47848484610630565b610c5b610c526112ac565b8585858561189c565b50505050565b600c8054610c6e906128e2565b80601f0160208091040260200160405190810160405280929190818152602001828054610c9a906128e2565b8015610ce75780601f10610cbc57610100808354040283529160200191610ce7565b820191906000526020600020905b815481529060010190602001808311610cca57829003601f168201915b505050505081565b6060610cfa826111e7565b506000600660008481526020019081526020016000208054610d1b906128e2565b80601f0160208091040260200160405190810160405280929190818152602001828054610d47906128e2565b8015610d945780601f10610d6957610100808354040283529160200191610d94565b820191906000526020600020905b815481529060010190602001808311610d7757829003601f168201915b505050505090506000610da5611a4d565b90506000815103610dba578192505050610dfd565b600082511115610def578082604051602001610dd7929190612ad5565b60405160208183030381529060405292505050610dfd565b610df884611a64565b925050505b919050565b6000610e0c610a26565b73ffffffffffffffffffffffffffffffffffffffff163373ffffffffffffffffffffffffffffffffffffffff161480610e925750600960009054906101000a900473ffffffffffffffffffffffffffffffffffffffff1673ffffffffffffffffffffffffffffffffffffffff163373ffffffffffffffffffffffffffffffffffffffff16145b610ed1576040517f08c379a0000000000000000000000000000000000000000000000000000000008152600401610ec890612b45565b60405180910390fd5b6000600854905060086000815480929190610eeb90612a51565b9190505550610efa8482611822565b610f048184611840565b808473ffffffffffffffffffffffffffffffffffffffff167fe7cd4ce7f2a465edc730269a1305e8a48bad821e8fb7e152ec413829c01a53c485604051610f4b919061235b565b60405180910390a38091505092915050565b600a8054610f6a906128e2565b80601f0160208091040260200160405190810160405280929190818152602001828054610f96906128e2565b8015610fe35780601f10610fb857610100808354040283529160200191610fe3565b820191906000526020600020905b815481529060010190602001808311610fc657829003601f168201915b505050505081565b6000600560008473ffffffffffffffffffffffffffffffffffffffff1673ffffffffffffffffffffffffffffffffffffffff16815260200190815260200160002060008373ffffffffffffffffffffffffffffffffffffffff1673ffffffffffffffffffffffffffffffffffffffff16815260200190815260200160002060009054906101000a900460ff16905092915050565b611087611566565b600073ffffffffffffffffffffffffffffffffffffffff168173ffffffffffffffffffffffffffffffffffffffff16036110f95760006040517f1e4fbdf70000000000000000000000000000000000000000000000000000000081526004016110f09190612421565b60405180910390fd5b611102816115ed565b50565b60007f80ac58cd000000000000000000000000000000000000000000000000000000007bffffffffffffffffffffffffffffffffffffffffffffffffffffffff1916827bffffffffffffffffffffffffffffffffffffffffffffffffffffffff191614806111d057507f5b5e139f000000000000000000000000000000000000000000000000000000007bffffffffffffffffffffffffffffffffffffffffffffffffffffffff1916827bffffffffffffffffffffffffffffffffffffffffffffffffffffffff1916145b806111e057506111df82611acd565b5b9050919050565b6000806111f383611b37565b9050600073ffffffffffffffffffffffffffffffffffffffff168173ffffffffffffffffffffffffffffffffffffffff160361126657826040517f7e27328900000000000000000000000000000000000000000000000000000000815260040161125d9190612537565b60405180910390fd5b80915050919050565b60006004600083815260200190815260200160002060009054906101000a900473ffffffffffffffffffffffffffffffffffffffff169050919050565b600033905090565b6112c18383836001611b74565b505050565b6000806112d284611b37565b9050600073ffffffffffffffffffffffffffffffffffffffff168373ffffffffffffffffffffffffffffffffffffffff161461131457611313818486611d39565b5b600073ffffffffffffffffffffffffffffffffffffffff168173ffffffffffffffffffffffffffffffffffffffff16146113a557611356600085600080611b74565b6001600360008373ffffffffffffffffffffffffffffffffffffffff1673ffffffffffffffffffffffffffffffffffffffff168152602001908152602001600020600082825403925050819055505b600073ffffffffffffffffffffffffffffffffffffffff168573ffffffffffffffffffffffffffffffffffffffff1614611428576001600360008773ffffffffffffffffffffffffffffffffffffffff1673ffffffffffffffffffffffffffffffffffffffff168152602001908152602001600020600082825401925050819055505b846002600086815260200190815260200160002060006101000a81548173ffffffffffffffffffffffffffffffffffffffff021916908373ffffffffffffffffffffffffffffffffffffffff160217905550838573ffffffffffffffffffffffffffffffffffffffff168273ffffffffffffffffffffffffffffffffffffffff167fddf252ad1be2c89b69c2b068fc378daa952ba7f163c4a11628f55a4df523b3ef60405160405180910390a4809150509392505050565b60006114ef60008360006112c6565b9050600073ffffffffffffffffffffffffffffffffffffffff168173ffffffffffffffffffffffffffffffffffffffff160361156257816040517f7e2732890000000000000000000000000000000000000000000000000000000081526004016115599190612537565b60405180910390fd5b5050565b61156e6112ac565b73ffffffffffffffffffffffffffffffffffffffff1661158c610a26565b73ffffffffffffffffffffffffffffffffffffffff16146115eb576115af6112ac565b6040517f118cdaa70000000000000000000000000000000000000000000000000000000081526004016115e29190612421565b60405180910390fd5b565b6000600760009054906101000a900473ffffffffffffffffffffffffffffffffffffffff16905081600760006101000a81548173ffffffffffffffffffffffffffffffffffffffff021916908373ffffffffffffffffffffffffffffffffffffffff1602179055508173ffffffffffffffffffffffffffffffffffffffff168173ffffffffffffffffffffffffffffffffffffffff167f8be0079c531659141344cd1fd0a4f28419497f9722a3daafe3b4186f6b6457e060405160405180910390a35050565b600073ffffffffffffffffffffffffffffffffffffffff168273ffffffffffffffffffffffffffffffffffffffff160361172457816040517f5b08ba1800000000000000000000000000000000000000000000000000000000815260040161171b9190612421565b60405180910390fd5b80600560008573ffffffffffffffffffffffffffffffffffffffff1673ffffffffffffffffffffffffffffffffffffffff16815260200190815260200160002060008473ffffffffffffffffffffffffffffffffffffffff1673ffffffffffffffffffffffffffffffffffffffff16815260200190815260200160002060006101000a81548160ff0219169083151502179055508173ffffffffffffffffffffffffffffffffffffffff168373ffffffffffffffffffffffffffffffffffffffff167f17307eab39ab6107e8899845ad3d59bd9653f200f220920489ca2b5937696c318360405161181591906122b0565b60405180910390a3505050565b61183c828260405180602001604052806000815250611dfd565b5050565b806006600084815260200190815260200160002090816118609190612d11565b507ff8e1a15aba9398e019f0b49df1a4fde98ee17ae345cb5f6b5e2c27f5033e8ce7826040516118909190612537565b60405180910390a15050565b60008373ffffffffffffffffffffffffffffffffffffffff163b1115611a46578273ffffffffffffffffffffffffffffffffffffffff1663150b7a02868685856040518563ffffffff1660e01b81526004016118fb9493929190612e38565b6020604051808303816000875af192505050801561193757506040513d601f19601f820116820180604052508101906119349190612e99565b60015b6119bb573d8060008114611967576040519150601f19603f3d011682016040523d82523d6000602084013e61196c565b606091505b5060008151036119b357836040517f64a0ae920000000000000000000000000000000000000000000000000000000081526004016119aa9190612421565b60405180910390fd5b805160208201fd5b63150b7a0260e01b7bffffffffffffffffffffffffffffffffffffffffffffffffffffffff1916817bffffffffffffffffffffffffffffffffffffffffffffffffffffffff191614611a4457836040517f64a0ae92000000000000000000000000000000000000000000000000000000008152600401611a3b9190612421565b60405180910390fd5b505b5050505050565b606060405180602001604052806000815250905090565b6060611a6f826111e7565b506000611a7a611a4d565b90506000815111611a9a5760405180602001604052806000815250611ac5565b80611aa484611e21565b604051602001611ab5929190612ad5565b6040516020818303038152906040525b915050919050565b60007f01ffc9a7000000000000000000000000000000000000000000000000000000007bffffffffffffffffffffffffffffffffffffffffffffffffffffffff1916827bffffffffffffffffffffffffffffffffffffffffffffffffffffffff1916149050919050565b60006002600083815260200190815260200160002060009054906101000a900473ffffffffffffffffffffffffffffffffffffffff169050919050565b8080611bad5750600073ffffffffffffffffffffffffffffffffffffffff168273ffffffffffffffffffffffffffffffffffffffff1614155b15611ce1576000611bbd846111e7565b9050600073ffffffffffffffffffffffffffffffffffffffff168373ffffffffffffffffffffffffffffffffffffffff1614158015611c2857508273ffffffffffffffffffffffffffffffffffffffff168173ffffffffffffffffffffffffffffffffffffffff1614155b8015611c3b5750611c398184610feb565b155b15611c7d57826040517fa9fbf51f000000000000000000000000000000000000000000000000000000008152600401611c749190612421565b60405180910390fd5b8115611cdf57838573ffffffffffffffffffffffffffffffffffffffff168273ffffffffffffffffffffffffffffffffffffffff167f8c5be1e5ebec7d5bd14f71427d1e84f3dd0314c0f7b2291e5b200ac8c7c3b92560405160405180910390a45b505b836004600085815260200190815260200160002060006101000a81548173ffffffffffffffffffffffffffffffffffffffff021916908373ffffffffffffffffffffffffffffffffffffffff16021790555050505050565b611d44838383611eef565b611df857600073ffffffffffffffffffffffffffffffffffffffff168373ffffffffffffffffffffffffffffffffffffffff1603611db957806040517f7e273289000000000000000000000000000000000000000000000000000000008152600401611db09190612537565b60405180910390fd5b81816040517f177e802f000000000000000000000000000000000000000000000000000000008152600401611def929190612ec6565b60405180910390fd5b505050565b611e078383611fb0565b611e1c611e126112ac565b600085858561189c565b505050565b606060006001611e30846120a9565b01905060008167ffffffffffffffff811115611e4f57611e4e6125c8565b5b6040519080825280601f01601f191660200182016040528015611e815781602001600182028036833780820191505090505b509050600082602083010190505b600115611ee4578080600190039150507f3031323334353637383961626364656600000000000000000000000000000000600a86061a8153600a8581611ed857611ed7612eef565b5b04945060008503611e8f575b819350505050919050565b60008073ffffffffffffffffffffffffffffffffffffffff168373ffffffffffffffffffffffffffffffffffffffff1614158015611fa757508273ffffffffffffffffffffffffffffffffffffffff168473ffffffffffffffffffffffffffffffffffffffff161480611f685750611f678484610feb565b5b80611fa657508273ffffffffffffffffffffffffffffffffffffffff16611f8e8361126f565b73ffffffffffffffffffffffffffffffffffffffff16145b5b90509392505050565b600073ffffffffffffffffffffffffffffffffffffffff168273ffffffffffffffffffffffffffffffffffffffff16036120225760006040517f64a0ae920000000000000000000000000000000000000000000000000000000081526004016120199190612421565b60405180910390fd5b6000612030838360006112c6565b9050600073ffffffffffffffffffffffffffffffffffffffff168173ffffffffffffffffffffffffffffffffffffffff16146120a45760006040517f73c6ac6e00000000000000000000000000000000000000000000000000000000815260040161209b9190612421565b60405180910390fd5b505050565b600080600090507a184f03e93ff9f4daa797ed6e38ed64bf6a1f0100000000000000008310612107577a184f03e93ff9f4daa797ed6e38ed64bf6a1f01000000000000000083816120fd576120fc612eef565b5b0492506040810190505b6d04ee2d6d415b85acef81000000008310612144576d04ee2d6d415b85acef8100000000838161213a57612139612eef565b5b0492506020810190505b662386f26fc10000831061217357662386f26fc10000838161216957612168612eef565b5b0492506010810190505b6305f5e100831061219c576305f5e100838161219257612191612eef565b5b0492506008810190505b61271083106121c15761271083816121b7576121b6612eef565b5b0492506004810190505b606483106121e457606483816121da576121d9612eef565b5b0492506002810190505b600a83106121f3576001810190505b80915050919050565b6000604051905090565b600080fd5b600080fd5b60007fffffffff0000000000000000000000000000000000000000000000000000000082169050919050565b61224581612210565b811461225057600080fd5b50565b6000813590506122628161223c565b92915050565b60006020828403121561227e5761227d612206565b5b600061228c84828501612253565b91505092915050565b60008115159050919050565b6122aa81612295565b82525050565b60006020820190506122c560008301846122a1565b92915050565b600081519050919050565b600082825260208201905092915050565b60005b838110156123055780820151818401526020810190506122ea565b60008484015250505050565b6000601f19601f8301169050919050565b600061232d826122cb565b61233781856122d6565b93506123478185602086016122e7565b61235081612311565b840191505092915050565b600060208201905081810360008301526123758184612322565b905092915050565b6000819050919050565b6123908161237d565b811461239b57600080fd5b50565b6000813590506123ad81612387565b92915050565b6000602082840312156123c9576123c8612206565b5b60006123d78482850161239e565b91505092915050565b600073ffffffffffffffffffffffffffffffffffffffff82169050919050565b600061240b826123e0565b9050919050565b61241b81612400565b82525050565b60006020820190506124366000830184612412565b92915050565b61244581612400565b811461245057600080fd5b50565b6000813590506124628161243c565b92915050565b6000806040838503121561247f5761247e612206565b5b600061248d85828601612453565b925050602061249e8582860161239e565b9150509250929050565b6000806000606084860312156124c1576124c0612206565b5b60006124cf86828701612453565b93505060206124e086828701612453565b92505060406124f18682870161239e565b9150509250925092565b60006020828403121561251157612510612206565b5b600061251f84828501612453565b91505092915050565b6125318161237d565b82525050565b600060208201905061254c6000830184612528565b92915050565b61255b81612295565b811461256657600080fd5b50565b60008135905061257881612552565b92915050565b6000806040838503121561259557612594612206565b5b60006125a385828601612453565b92505060206125b485828601612569565b9150509250929050565b600080fd5b600080fd5b7f4e487b7100000000000000000000000000000000000000000000000000000000600052604160045260246000fd5b61260082612311565b810181811067ffffffffffffffff8211171561261f5761261e6125c8565b5b80604052505050565b60006126326121fc565b905061263e82826125f7565b919050565b600067ffffffffffffffff82111561265e5761265d6125c8565b5b61266782612311565b9050602081019050919050565b82818337600083830152505050565b600061269661269184612643565b612628565b9050828152602081018484840111156126b2576126b16125c3565b5b6126bd848285612674565b509392505050565b600082601f8301126126da576126d96125be565b5b81356126ea848260208601612683565b91505092915050565b6000806040838503121561270a57612709612206565b5b600061271885828601612453565b925050602083013567ffffffffffffffff8111156127395761273861220b565b5b612745858286016126c5565b9150509250929050565b600067ffffffffffffffff82111561276a576127696125c8565b5b61277382612311565b9050602081019050919050565b600061279361278e8461274f565b612628565b9050828152602081018484840111156127af576127ae6125c3565b5b6127ba848285612674565b509392505050565b600082601f8301126127d7576127d66125be565b5b81356127e7848260208601612780565b91505092915050565b6000806000806080858703121561280a57612809612206565b5b600061281887828801612453565b945050602061282987828801612453565b935050604061283a8782880161239e565b925050606085013567ffffffffffffffff81111561285b5761285a61220b565b5b612867878288016127c2565b91505092959194509250565b6000806040838503121561288a57612889612206565b5b600061289885828601612453565b92505060206128a985828601612453565b9150509250929050565b7f4e487b7100000000000000000000000000000000000000000000000000000000600052602260045260246000fd5b600060028204905060018216806128fa57607f821691505b60208210810361290d5761290c6128b3565b5b50919050565b60006060820190506129286000830186612412565b6129356020830185612528565b6129426040830184612412565b949350505050565b7f4e6f74206f776e65720000000000000000000000000000000000000000000000600082015250565b60006129806009836122d6565b915061298b8261294a565b602082019050919050565b600060208201905081810360008301526129af81612973565b9050919050565b7f4e6f74206d61726b6574706c6163650000000000000000000000000000000000600082015250565b60006129ec600f836122d6565b91506129f7826129b6565b602082019050919050565b60006020820190508181036000830152612a1b816129df565b9050919050565b7f4e487b7100000000000000000000000000000000000000000000000000000000600052601160045260246000fd5b6000612a5c8261237d565b91507fffffffffffffffffffffffffffffffffffffffffffffffffffffffffffffffff8203612a8e57612a8d612a22565b5b600182019050919050565b600081905092915050565b6000612aaf826122cb565b612ab98185612a99565b9350612ac98185602086016122e7565b80840191505092915050565b6000612ae18285612aa4565b9150612aed8284612aa4565b91508190509392505050565b7f4e6f7420617574686f72697a6564000000000000000000000000000000000000600082015250565b6000612b2f600e836122d6565b9150612b3a82612af9565b602082019050919050565b60006020820190508181036000830152612b5e81612b22565b9050919050565b60008190508160005260206000209050919050565b60006020601f8301049050919050565b600082821b905092915050565b600060088302612bc77fffffffffffffffffffffffffffffffffffffffffffffffffffffffffffffffff82612b8a565b612bd18683612b8a565b95508019841693508086168417925050509392505050565b6000819050919050565b6000612c0e612c09612c048461237d565b612be9565b61237d565b9050919050565b6000819050919050565b612c2883612bf3565b612c3c612c3482612c15565b848454612b97565b825550505050565b600090565b612c51612c44565b612c5c818484612c1f565b505050565b5b81811015612c8057612c75600082612c49565b600181019050612c62565b5050565b601f821115612cc557612c9681612b65565b612c9f84612b7a565b81016020851015612cae578190505b612cc2612cba85612b7a565b830182612c61565b50505b505050565b600082821c905092915050565b6000612ce860001984600802612cca565b1980831691505092915050565b6000612d018383612cd7565b9150826002028217905092915050565b612d1a826122cb565b67ffffffffffffffff811115612d3357612d326125c8565b5b612d3d82546128e2565b612d48828285612c84565b600060209050601f831160018114612d7b5760008415612d69578287015190505b612d738582612cf5565b865550612ddb565b601f198416612d8986612b65565b60005b82811015612db157848901518255600182019150602085019450602081019050612d8c565b86831015612dce5784890151612dca601f891682612cd7565b8355505b6001600288020188555050505b505050505050565b600081519050919050565b600082825260208201905092915050565b6000612e0a82612de3565b612e148185612dee565b9350612e248185602086016122e7565b612e2d81612311565b840191505092915050565b6000608082019050612e4d6000830187612412565b612e5a6020830186612412565b612e676040830185612528565b8181036060830152612e798184612dff565b905095945050505050565b600081519050612e938161223c565b92915050565b600060208284031215612eaf57612eae612206565b5b6000612ebd84828501612e84565b91505092915050565b6000604082019050612edb6000830185612412565b612ee86020830184612528565b9392505050565b7f4e487b7100000000000000000000000000000000000000000000000000000000600052601260045260246000fdfea2646970667358221220e9442477652ea44e00a246b07ad0330e647c31844d318182a6b8a20fc1301f3464736f6c634300081c0033",
  "linkReferences": {},
  "deployedLinkReferences": {}
}