{
  "_format": "hh-sol-artifact-1",
  "contractName": "NFTMarketplace",
  "sourceName": "contracts/NFTMarketplace.sol",
  "abi": [
    {
      "inputs": [],
      "stateMutability": "nonpayable",
      "type": "constructor"
    },
    {
      "inputs": [],
      "name": "ReentrancyGuardReentrantCall",
      "type": "error"
    },
    {
      "anonymous": false,
      "inputs": [
        {
          "indexed": true,
          "internalType": "address",
          "name": "nft",
          "type": "address"
        },
        {
          "indexed": true,
          "internalType": "uint256",
          "name": "tokenId",
          "type": "uint256"
        },
        {
          "indexed": false,
          "internalType": "address",
          "name": "seller",
          "type": "address"
        },
        {
          "indexed": false,
          "internalType": "uint256",
          "name": "price",
          "type": "uint256"
        }
      ],
      "name": "Listed",
      "type": "event"
    },
    {
      "anonymous": false,
      "inputs": [
        {
          "indexed": true,
          "internalType": "address",
          "name": "nft",
          "type": "address"
        },
        {
          "indexed": true,
          "internalType": "uint256",
          "name": "tokenId",
          "type": "uint256"
        },
        {
          "indexed": false,
          "internalType": "address",
          "name": "buyer",
          "type": "address"
        },
        {
          "indexed": false,
          "internalType": "uint256",
          "name": "price",
          "type": "uint256"
        }
      ],
      "name": "Sale",
      "type": "event"
    },
    {
      "inputs": [
        {
          "internalType": "address",
          "name": "_nft",
          "type": "address"
        },
        {
          "internalType": "uint256",
          "name": "_tokenId",
          "type": "uint256"
        },
        {
          "internalType": "uint256",
          "name": "_price",
          "type": "uint256"
        }
      ],
      "name": "ListNFT",
      "outputs": [],
      "stateMutability": "nonpayable",
      "type": "function"
    },
    {
      "inputs": [
        {
          "internalType": "address",
          "name": "_nft",
          "type": "address"
        },
        {
          "internalType": "uint256",
          "name": "_tokenId",
          "type": "uint256"
        }
      ],
      "name": "buyNFT",
      "outputs": [],
      "stateMutability": "payable",
      "type": "function"
    },
    {
      "inputs": [],
      "name": "feePercent",
      "outputs": [
        {
          "internalType": "uint256",
          "name": "",
          "type": "uint256"
        }
      ],
      "stateMutability": "view",
      "type": "function"
    },
    {
      "inputs": [
        {
          "internalType": "address",
          "name": "",
          "type": "address"
        },
        {
          "internalType": "uint256",
          "name": "",
          "type": "uint256"
        }
      ],
      "name": "listings",
      "outputs": [
        {
          "internalType": "address",
          "name": "seller",
          "type": "address"
        },
        {
          "internalType": "uint256",
          "name": "price",
          "type": "uint256"
        }
      ],
      "stateMutability": "view",
      "type": "function"
    },
    {
      "inputs": [
        {
          "internalType": "address",
          "name": "_nft",
          "type": "address"
        },
        {
          "internalType": "string",
          "name": "tokenURI",
          "type": "string"
        },
        {
          "internalType": "uint256",
          "name": "price",
          "type": "uint256"
        }
      ],
      "name": "mintAndListNFT",
      "outputs": [],
      "stateMutability": "nonpayable",
      "type": "function"
    },
    {
      "inputs": [],
      "name": "owner",
      "outputs": [
        {
          "internalType": "address",
          "name": "",
          "type": "address"
        }
      ],
      "stateMutability": "view",
      "type": "function"
    }
  ],
  "bytecode": "0x60806040526019600155348015601457600080fd5b50600160008190555033600260006101000a81548173ffffffffffffffffffffffffffffffffffffffff021916908373ffffffffffffffffffffffffffffffffffffffff1602179055506115f08061006d6000396000f3fe6080604052600436106100545760003560e01c806207df30146100595780636cd52e2a146100975780637fd6f15c146100c05780638da5cb5b146100eb57806399cdd7e614610116578063a82ba76f1461013f575b600080fd5b34801561006557600080fd5b50610080600480360381019061007b9190610d4d565b61015b565b60405161008e929190610dab565b60405180910390f35b3480156100a357600080fd5b506100be60048036038101906100b99190610dd4565b6101ac565b005b3480156100cc57600080fd5b506100d561056b565b6040516100e29190610e27565b60405180910390f35b3480156100f757600080fd5b50610100610571565b60405161010d9190610e42565b60405180910390f35b34801561012257600080fd5b5061013d60048036038101906101389190610ec2565b610597565b005b61015960048036038101906101549190610d4d565b610802565b005b6003602052816000526040600020602052806000526040600020600091509150508060000160009054906101000a900473ffffffffffffffffffffffffffffffffffffffff16908060010154905082565b600081116101ef576040517f08c379a00000000000000000000000000000000000000000000000000000000081526004016101e690610f93565b60405180910390fd5b60008390503373ffffffffffffffffffffffffffffffffffffffff168173ffffffffffffffffffffffffffffffffffffffff16636352211e856040518263ffffffff1660e01b81526004016102449190610e27565b602060405180830381865afa158015610261573d6000803e3d6000fd5b505050506040513d601f19601f820116820180604052508101906102859190610fc8565b73ffffffffffffffffffffffffffffffffffffffff16146102db576040517f08c379a00000000000000000000000000000000000000000000000000000000081526004016102d290611041565b60405180910390fd5b8073ffffffffffffffffffffffffffffffffffffffff1663e985e9c533306040518363ffffffff1660e01b8152600401610316929190611061565b602060405180830381865afa158015610333573d6000803e3d6000fd5b505050506040513d601f19601f8201168201806040525081019061035791906110c2565b8061040657503073ffffffffffffffffffffffffffffffffffffffff168173ffffffffffffffffffffffffffffffffffffffff1663081812fc856040518263ffffffff1660e01b81526004016103ad9190610e27565b602060405180830381865afa1580156103ca573d6000803e3d6000fd5b505050506040513d601f19601f820116820180604052508101906103ee9190610fc8565b73ffffffffffffffffffffffffffffffffffffffff16145b610445576040517f08c379a000000000000000000000000000000000000000000000000000000000815260040161043c9061113b565b60405180910390fd5b60405180604001604052803373ffffffffffffffffffffffffffffffffffffffff16815260200183815250600360008673ffffffffffffffffffffffffffffffffffffffff1673ffffffffffffffffffffffffffffffffffffffff168152602001908152602001600020600085815260200190815260200160002060008201518160000160006101000a81548173ffffffffffffffffffffffffffffffffffffffff021916908373ffffffffffffffffffffffffffffffffffffffff16021790555060208201518160010155905050828473ffffffffffffffffffffffffffffffffffffffff167f8b06cda60618abf2b2d07227f9dd63ec6349ca3269ce0eb18d49122a48362ad8338560405161055d929190610dab565b60405180910390a350505050565b60015481565b600260009054906101000a900473ffffffffffffffffffffffffffffffffffffffff1681565b61059f610c5f565b600081116105e2576040517f08c379a00000000000000000000000000000000000000000000000000000000081526004016105d9906111a7565b60405180910390fd5b60008473ffffffffffffffffffffffffffffffffffffffff1663b04eec593386866040518463ffffffff1660e01b815260040161062193929190611214565b6020604051808303816000875af1158015610640573d6000803e3d6000fd5b505050506040513d601f19601f82011682018060405250810190610664919061125b565b90508473ffffffffffffffffffffffffffffffffffffffff1663095ea7b330836040518363ffffffff1660e01b81526004016106a1929190610dab565b600060405180830381600087803b1580156106bb57600080fd5b505af11580156106cf573d6000803e3d6000fd5b5050505060405180604001604052803373ffffffffffffffffffffffffffffffffffffffff16815260200183815250600360008773ffffffffffffffffffffffffffffffffffffffff1673ffffffffffffffffffffffffffffffffffffffff168152602001908152602001600020600083815260200190815260200160002060008201518160000160006101000a81548173ffffffffffffffffffffffffffffffffffffffff021916908373ffffffffffffffffffffffffffffffffffffffff16021790555060208201518160010155905050808573ffffffffffffffffffffffffffffffffffffffff167f8b06cda60618abf2b2d07227f9dd63ec6349ca3269ce0eb18d49122a48362ad833856040516107eb929190610dab565b60405180910390a3506107fc610ca5565b50505050565b61080a610c5f565b6000600360008473ffffffffffffffffffffffffffffffffffffffff1673ffffffffffffffffffffffffffffffffffffffff16815260200190815260200160002060008381526020019081526020016000206040518060400160405290816000820160009054906101000a900473ffffffffffffffffffffffffffffffffffffffff1673ffffffffffffffffffffffffffffffffffffffff1673ffffffffffffffffffffffffffffffffffffffff16815260200160018201548152505090506000816020015111610910576040517f08c379a0000000000000000000000000000000000000000000000000000000008152600401610907906112d4565b60405180910390fd5b8060200151341015610957576040517f08c379a000000000000000000000000000000000000000000000000000000000815260040161094e90611340565b60405180910390fd5b60006103e86001543461096a919061138f565b6109749190611400565b9050600081346109849190611431565b90506000836000015173ffffffffffffffffffffffffffffffffffffffff16826040516109b090611496565b60006040518083038185875af1925050503d80600081146109ed576040519150601f19603f3d011682016040523d82523d6000602084013e6109f2565b606091505b5050905080610a36576040517f08c379a0000000000000000000000000000000000000000000000000000000008152600401610a2d906114f7565b60405180910390fd5b6000600260009054906101000a900473ffffffffffffffffffffffffffffffffffffffff1673ffffffffffffffffffffffffffffffffffffffff1684604051610a7e90611496565b60006040518083038185875af1925050503d8060008114610abb576040519150601f19603f3d011682016040523d82523d6000602084013e610ac0565b606091505b5050905080610b04576040517f08c379a0000000000000000000000000000000000000000000000000000000008152600401610afb90611563565b60405180910390fd5b8673ffffffffffffffffffffffffffffffffffffffff166342842e0e866000015133896040518463ffffffff1660e01b8152600401610b4593929190611583565b600060405180830381600087803b158015610b5f57600080fd5b505af1158015610b73573d6000803e3d6000fd5b50505050600360008873ffffffffffffffffffffffffffffffffffffffff1673ffffffffffffffffffffffffffffffffffffffff1681526020019081526020016000206000878152602001908152602001600020600080820160006101000a81549073ffffffffffffffffffffffffffffffffffffffff021916905560018201600090555050858773ffffffffffffffffffffffffffffffffffffffff167f686fb6eb169cadc38afcea6d15c9b04b00e9a461889d6a280f21f5ffda48095d338860200151604051610c46929190610dab565b60405180910390a35050505050610c5b610ca5565b5050565b600260005403610c9b576040517f3ee5aeb500000000000000000000000000000000000000000000000000000000815260040160405180910390fd5b6002600081905550565b6001600081905550565b600080fd5b600080fd5b600073ffffffffffffffffffffffffffffffffffffffff82169050919050565b6000610ce482610cb9565b9050919050565b610cf481610cd9565b8114610cff57600080fd5b50565b600081359050610d1181610ceb565b92915050565b6000819050919050565b610d2a81610d17565b8114610d3557600080fd5b50565b600081359050610d4781610d21565b92915050565b60008060408385031215610d6457610d63610caf565b5b6000610d7285828601610d02565b9250506020610d8385828601610d38565b9150509250929050565b610d9681610cd9565b82525050565b610da581610d17565b82525050565b6000604082019050610dc06000830185610d8d565b610dcd6020830184610d9c565b9392505050565b600080600060608486031215610ded57610dec610caf565b5b6000610dfb86828701610d02565b9350506020610e0c86828701610d38565b9250506040610e1d86828701610d38565b9150509250925092565b6000602082019050610e3c6000830184610d9c565b92915050565b6000602082019050610e576000830184610d8d565b92915050565b600080fd5b600080fd5b600080fd5b60008083601f840112610e8257610e81610e5d565b5b8235905067ffffffffffffffff811115610e9f57610e9e610e62565b5b602083019150836001820283011115610ebb57610eba610e67565b5b9250929050565b60008060008060608587031215610edc57610edb610caf565b5b6000610eea87828801610d02565b945050602085013567ffffffffffffffff811115610f0b57610f0a610cb4565b5b610f1787828801610e6c565b93509350506040610f2a87828801610d38565b91505092959194509250565b600082825260208201905092915050565b7f5072696365206d7573742062652067726561746572207468616e207a65726f00600082015250565b6000610f7d601f83610f36565b9150610f8882610f47565b602082019050919050565b60006020820190508181036000830152610fac81610f70565b9050919050565b600081519050610fc281610ceb565b92915050565b600060208284031215610fde57610fdd610caf565b5b6000610fec84828501610fb3565b91505092915050565b7f4e6f74204e4654206f776e657200000000000000000000000000000000000000600082015250565b600061102b600d83610f36565b915061103682610ff5565b602082019050919050565b6000602082019050818103600083015261105a8161101e565b9050919050565b60006040820190506110766000830185610d8d565b6110836020830184610d8d565b9392505050565b60008115159050919050565b61109f8161108a565b81146110aa57600080fd5b50565b6000815190506110bc81611096565b92915050565b6000602082840312156110d8576110d7610caf565b5b60006110e6848285016110ad565b91505092915050565b7f4d61726b6574706c616365206e6f7420617070726f7665640000000000000000600082015250565b6000611125601883610f36565b9150611130826110ef565b602082019050919050565b6000602082019050818103600083015261115481611118565b9050919050565b7f5072696365206d757374206265203e2030000000000000000000000000000000600082015250565b6000611191601183610f36565b915061119c8261115b565b602082019050919050565b600060208201905081810360008301526111c081611184565b9050919050565b82818337600083830152505050565b6000601f19601f8301169050919050565b60006111f38385610f36565b93506112008385846111c7565b611209836111d6565b840190509392505050565b60006040820190506112296000830186610d8d565b818103602083015261123c8184866111e7565b9050949350505050565b60008151905061125581610d21565b92915050565b60006020828403121561127157611270610caf565b5b600061127f84828501611246565b91505092915050565b7f4e4654206e6f74206c6973746564000000000000000000000000000000000000600082015250565b60006112be600e83610f36565b91506112c982611288565b602082019050919050565b600060208201905081810360008301526112ed816112b1565b9050919050565b7f4e465420656e6f756768204554482073656e7400000000000000000000000000600082015250565b600061132a601383610f36565b9150611335826112f4565b602082019050919050565b600060208201905081810360008301526113598161131d565b9050919050565b7f4e487b7100000000000000000000000000000000000000000000000000000000600052601160045260246000fd5b600061139a82610d17565b91506113a583610d17565b92508282026113b381610d17565b915082820484148315176113ca576113c9611360565b5b5092915050565b7f4e487b7100000000000000000000000000000000000000000000000000000000600052601260045260246000fd5b600061140b82610d17565b915061141683610d17565b925082611426576114256113d1565b5b828204905092915050565b600061143c82610d17565b915061144783610d17565b925082820390508181111561145f5761145e611360565b5b92915050565b600081905092915050565b50565b6000611480600083611465565b915061148b82611470565b600082019050919050565b60006114a182611473565b9150819050919050565b7f53656c6c6572207061796d656e74206661696c65640000000000000000000000600082015250565b60006114e1601583610f36565b91506114ec826114ab565b602082019050919050565b60006020820190508181036000830152611510816114d4565b9050919050565b7f466565207472616e73666572206661696c656400000000000000000000000000600082015250565b600061154d601383610f36565b915061155882611517565b602082019050919050565b6000602082019050818103600083015261157c81611540565b9050919050565b60006060820190506115986000830186610d8d565b6115a56020830185610d8d565b6115b26040830184610d9c565b94935050505056fea264697066735822122012b187856b7967ed6e82c22b81f50ebd4dab31a808ad4c026c275ff1eee2d96a64736f6c634300081c0033",
  "linkReferences": {},
  "deployedLinkReferences": {}
}